:400000000080002011000000F1050000F105000008B5044B1A6803F53F5302331A6000F007FB00BFFA46004010B5054C237833B9044B13B10448AFF300800123237010BD89
:40004000A081FF1F00000000A43D0000084B10B51BB108490848AFF300800848036803B910BD074B002BFBD0BDE81040184700BF00000000A481FF1FA43D0000C880FF1F90
:400080000000000000000000F8B500F0E1F800F0FBFC1F4B1F683F1A186000263A46334619A1D1E9000101F021FC314600F0D6F8184D2868012100F0D1F86B680133164C11
:4000C00084FB0324A4EBE37404EB440462009C1A6B68124941F823706B6851F82320AB681A44AA6051F82430D21AAA60334606A1D1E9000101F0FAFB00EB800028606C603E
:4001000000F0B6FCF8BD00BFF0F407EA00000000CC80FF1FBC81FF1FABAAAA2AEC81FF1F10B5C2B0164BDA68164922A802F056FA22A800F01BF910E000F044FE044600F0EC
:400140002DFE0F4BDA680194009403460E4902A802F044FA02A800F009F900F073FE0028EAD1074CE268094922A802F037FA22A800F0FCF8E3680133E36042B010BD00BF6B
:40018000BC81FF1FB03D0000BC3D0000E03D000030B5A3B062B600F043F800211A4800F04DF800F049FC00F0B1FC184800F02AFC00F020FD00F092FD00F0E2FD00F006FF16
:4001C000134800F0E9FE4FF47A7300240BB1013BFCE7104D2A68104902A802F0FFF902A800F0C4F828680D4B596840F6FF7300930023224600F042F884B2204600F0A8FCA3
:400200004FF47A73E2E700BFEC3D00008900000021010000BC81FF1FF43D0000CC80FF1F08B500F073FB0021084600F07DFB024800F012FB08BD00BFEC3D000010B5044647
:40024000C8B2002100F070FB204600F005FB10BD08B5012000F00EFB08BD00BF10B584B00C4602460449684602F0B8F921466846FFF7E4FF04B010BDF43D00002DE9F843E8
:400280001D460C1A344B18682044186001F00EF8324BD3E9022301F06FF806460F4600222F4B01F0F9FA38B900222E4B3046394601F0D4FA18B904E00026294F01E0002672
:4002C000284F204600F0F2FFDFF89090D9E9002301F052F802460B463046394600F09AFE06460F46DFF87080D8F80400201A00F0DDFFD9E9042301F03FF802460B463046B1
:40030000394600F087FE0022174B00F083FE06460F46C8F80440284600F0B8FF04460D4602460B463046394601F098FA68B9089800F0ACFF04460D4602460B4630463946E5
:4003400001F0AAFA08B934463D462046294601F0ADFABDE8F88300BFD081FF1FD880FF1F0000B0400000B0C000D0864008B500F0A5FD024800F0A2FD08BD00BF003E000019
:40038000FEE700BFF0B40022174611E050F82760F3B226F0FF0608E001EB420511F812406D78A5550132013BDBB2002BF4D101371A2FEBD9F0BC7047064B1B78DBB203F0A9
:4003C0000701054A11701B09013213704422034B1A707047CF0100496E5800407658004008B50A46002101F080FC08BD38B501222A4B1A8018232A4A1370022229490A8058
:4004000002310B7017200231088002310B70192502310D8002310B70234B1A7008224FF040231A70032103F5007319701F4B1B78DBB21F490B701F4B1A8041F25122023B08
:400440001A8000240CE01C4B1B7803F0010343EA440404F003044FF4F07000F0C5FD013D0DB1032CEFD115B90320FFF789FF134B4FF480721A8007221A70002210490A70ED
:400480004820023108701A700222033B1A700D4A137843F00F03137038BD00BF8040004082400040844000400043004008010049A146004022420040254200400440004084
:4004C00006400040A243004008B501F003FC08BD38B572B6354A137843F00403137000240CE0334D630019194A0011462A44084691882858FFF774FF0134E4B2092CF0D9B6
:4005000000240BE02A49A3001819420088188022016CC06BFFF7D8FF0134E4B2002CF1D024494FF09040FFF72DFF234A137843F0020313701032137843F0020313701F4C80
:40054000237843F040032370A2F58632513A137843F010031370082219491A48FFF7B4FF082219491948FFF7AFFF0A2218491948FFF7AAFF0A2218491848FFF7A5FF184A0B
:40058000137843F008031370164D61232B70FFF72DFF81232B700122134B1A70FFF70CFF0E2221461148FFF78FFF38BDE8460040083E00006C00004803500140A043004078
:4005C0004C0600481251004054060048225100405C060048305100406806004860510040224300400048004004000840B043004008B501F043FB03680C2B00D1FEE7FEE782
:4006000008B5094B1A681044084BC31AB3F5805F02DC054B186005E001F030FB0C2303604FF0FF32104608BDF080FF1FF082FF1F08B5104E104D16E029686B68AC68002232
:4006400004E051F8040B43F8040B0432A242F8D1E868002203E0002143F8041B04328242F9D11035013E002EE6D101F00DFBFFF78FFDFEE701000000D83F000008B5104A85
:40068000104B1A60104A136843F40073136000230AE0032B03D80D4A52F8231000E00C490C4A42F8231001332F2BF2D90A4B1A780A4B1A70074A0A4B1A60FFF709FF08BD8F
:4006C0000004FA050CED00E014ED00E000000000F10500000080FF1FBC760040C080FF1F08ED00E010B50B4C237803F09F032370237803F0F00323702378184340F01000DB
:400700002070012000F046F9237803F0EF03237010BD00BF2051004038B505460E4C237843F020032370237803F0BF032370002000F030F9237803F0F003237023781D4348
:4007400045F010052570012000F024F9237803F0EF03237038BD00BF2051004070B5354B1A7802F08002D2B21A7033490A7802F0F00242F00F020A7001310A7802F0F00204
:400780000A7001310A7802F0F0020A701A7802F0DF021A701A7842F040021A704FF4CA76002000F0F7F8234D2B7843F010032B70012000F0EFF8214B1C78E4B22B7803F094
:4007C000EF032B70002000F0E5F804F00804E4B22B7843F010032B70012000F0DBF82B7803F0EF032B7014B90A2000F0D3F8013E0CB1002ED4D10F4A137803F0BF031370C1
:40080000137803F08003DBB213700232137803F0F00313700132137803F0F00343F00F0313700132137803F0F00343F00F03137070BD00BF205100402251004021510040A5
:4008400010B50446FFF78AFF2009FFF765FF04F00F00FFF761FF10BD38B505460078012404E0FFF7EDFF285D0134E4B20028F8D138BD00BF10B50446FFF770FF2009FFF71E
:4008800031FF04F00F00FFF72DFF10BD08B5282000F06AF80320FFF725FF052000F064F80320FFF71FFF0F2000F05EF80320FFF719FF012000F058F80220FFF713FF052084
:4008C00000F052F80620FFF7D5FF0E20FFF7D2FF2C20FFF7CFFF0820FFF7CCFF0120FFF7C9FF0C20FFF7C6FF0320FFF7C3FF052000F03AF808BD00BF08B50C20FFF7BAFFDC
:400900000122014B1A7008BDD881FF1F08B5054B5B7823B9FFF7BAFF0122024B5A70FFF7EBFF08BDD881FF1F08B5032819D8DFE800F002070D1381F08000FFF79BFF08BDC2
:40094000A1F14000C0B2FFF795FF08BDA1F16C00C0B2FFF78FFF08BDA1F12C00C0B2FFF789FF08BD01BE704710B5044605E0084B186800F039FBA4F50044B4F5004FF6D8B4
:40098000034B586800FB04F000F02EFB10BD00BFF480FF1F08B5034B1B7A00FB03F000F023FB08BDF480FF1F70B504460E46074B1D681F2802D90020FFF7D4FF04F01F0454
:4009C000103455F8240045F8246070BD08ED00E038B504460D46072902D90020FFF7C2FF1F2C02D90020FFF7BDFF04F01F0000F1604000F564406D01EDB2057038BD00BFA8
:400A0000704700BF014B1B681864704708ED00E04001C0B2014B1870704700BF00E400E00122014B1A60704700E100E00122014B1A60704780E100E008B5FFF7F7FF044871
:400A4000FFF7E0FF0720FFF7E3FFFFF7E9FF08BD010A0000024A137843F080031370704777640040014B1870704700BF87640040014B1878704700BF67640040014B18607C
:400A8000704700BF24640040014B1868704700BF44640040014B1860704700BF0464004000F00300044B1A7802F0FC021A701A7810431870704700BF7764004008B501E002
:400AC000FFF7E2FFFFF7D4FF10F0080FF8D108BD08B54FF0FF30FFF7D1FF4FF0FF30FFF7D9FF00F089FA084A137843F01003137000F086FA0020FFF7D3FFFFF7DFFF02201D
:400B0000FFF7B0FF08BD00BF9764004008B5054B1B7823B9FFF7DCFF0122024B1A70FFF799FF08BDDA81FF1F024A137843F080031370704777650040014B1880704700BF01
:400B40000C6A0040014B1880704700BF8C6A0040014B1880704700BF4C6A0040014B1870704700BF87650040014B1878704700BF67650040014B188880B27047AC6A0040E0
:400B800008B501E0FFF7F6FFFFF7EEFF10F0100FF8D108BD10B5154A137803F0C00343F0090313701F32137843F001031370104C237843F00103237040F6FF70FFF7BCFF48
:400BC00040F6FF70FFF7BEFF40F2DA20FFF7C0FF0020FFF7C3FF00F00FFA237843F01003237000F00DFAFFF7CBFF10BD776500409765004008B5054B1B7823B9FFF7CAFF60
:400C00000122024B1A70FFF78FFF08BDDB81FF1F024A137843F080031370704775650040014B1880704700BF086A0040014B1880704700BF886A0040014B1880704700BF24
:400C4000486A0040014B1870704700BF85650040014B1878704700BF65650040014B188880B27047A86A004008B501E0FFF7F6FFFFF7EEFF10F0100FF8D108BD10B5154A4E
:400C8000137803F0C00343F0090313701F32137843F001031370104C237843F00103237044F62060FFF7BCFF44F62060FFF7BEFF40F2CD50FFF7C0FF0020FFF7C3FF00F036
:400CC0009BF9237843F01003237000F099F9FFF7CBFF10BD756500409565004008B5054B1B7823B9FFF7CAFF0122024B1A70FFF78FFF08BDDC81FF1F08B50D490220FFF765
:400D000053FE07210220FFF763FE0023094A13707221094A11702021033A117006215E3A11704721103211704F32137008BD00BFE10E0000DD81FF1F8F64004010B500F01C
:400D40005BF904460B4A137843F020031370033A137843F0100313700422074B1A60074A137843F01003137000F006F9204600F047F910BD9F64004000E100E09D6400405D
:400D800008B5054B5B7823B9FFF7B6FF0122024B5A70FFF7D3FF08BDDD81FF1F074B187800F07F00064B5B7913F0FF0F04D040F080000022024B5A71704700BF6C640040BE
:400DC000DD81FF1F0422194B1A60194A9378DBB2D178C9B2127912F0FF0F01D18B4211D0144AD05CC0B20133DBB2632B00D900230F4A9370137913F0FF0F13D000220C4BFD
:400E00001A710FE00C4B1B78DBB213F0200F06D00A4A1078C0B213F01E0F02D102E0002000E000200422064B1A60704780E100E0DD81FF1F8482FF1F6C6400404F640040DA
:400E400000E100E00422144B1A60144B9A78D2B2DB78DBB29A4206D1104B1B7913F0FF0F15D0642014E00D4B9A78D2B2DB78DBB29A4205D2094AD3789078181AC0B207E01B
:400E8000064AD3789078181A6430C0B200E000200422034B1A60704780E100E0DD81FF1F00E100E0034B1B7813F0040FFAD1024B187070476D6400404D64004038B5074BA5
:400EC0005B782BB938BDFFF7EDFF0134A4B201E005460024285D0028F5D138BDDD81FF1F1D4B1B78DBB213F01E0F05D01B4803F01E0201780A43027003F0200303F0FF0260
:400F000033B3174B1978C9B2164B1B78DBB21648C154164B1B7813F0FF0F02D00121144B197010490B780133DBB20B700B78DBB2632B02D900210B4B19700A4B1978C9B296
:400F40000C4B1B78DBB2994202D10121074B1970002AC5D1704700BF6C640040DD81FF1F4F640040E081FF1F8482FF1FE181FF1FE281FF1FDF81FF1F054A137843F0080360
:400F800013701032137843F008031370704700BFA2430040704700BF014B1B685864704708ED00E04001C0B2014B1870704700BF01E400E00222014B1A60704700E100E0D4
:400FC0000222014B1A60704780E100E008B5FFF7F7FF0448FFF7E0FF0720FFF7E3FFFFF7E9FF08BD950F00000230800803D000BF01380046FCD17047EFF3108072B670475F
:4010000080F31088704700BF81F0004102E000BF83F0004330B54FEA41044FEA430594EA050F08BF90EA020F1FBF54EA000C55EA020C7FEA645C7FEA655C00F0E2804FEA0B
:401040005454D4EB5555B8BF6D420CDD2C4480EA020281EA030382EA000083EA010180EA020281EA0303362D88BF30BD11F0004F4FEA01314FF4801C4CEA113102D040424A
:4010800061EB410113F0004F4FEA03334CEA133302D0524263EB430394EA050F00F0A780A4F10104D5F1200E0DDB02FA0EFC22FA05F2801841F1000103FA0EF2801843FA96
:4010C00005F359410EE0A5F120050EF1200E012A03FA0EFC28BF4CF0020C43FA05F3C01851EBE37101F0004507D54FF0000EDCF1000C7EEB00006EEB0101B1F5801F1BD359
:40110000B1F5001F0CD349085FEA30004FEA3C0C04F101044FEA445212F5800F80F09A80BCF1004F08BF5FEA500C50F1000041EB045141EA050130BD5FEA4C0C404141EB41
:40114000010111F4801FA4F10104E9D191F0000F04BF01460020B1FA81F308BF2033A3F10B03B3F120020CDA0C3208DD02F1140CC2F10C0201FA0CF021FA02F10CE002F159
:401180001402D8BFC2F1200C01FA02F120FA0CFCDCBF41EA0C019040E41AA2BF01EB0451294330BD6FEA04041F3C1CDA0C340EDC04F11404C4F1200220FA04F001FA02F339
:4011C00040EA030021FA04F345EA030130BDC4F10C04C4F1200220FA02F001FA04F340EA0300294630BD21FA04F0294630BD94F0000F83F4801306BF81F480110134013D27
:401200004EE77FEA645C18BF7FEA655C29D094EA050F08BF90EA020F05D054EA000C04BF1946104630BD91EA030F1EBF0021002030BD5FEA545C05D14000494128BF41F0A5
:40124000004130BD14F580043CBF01F5801130BD01F0004545F0FE4141F470014FF0000030BD7FEA645C1ABF194610467FEA655C1CBF0B46024650EA013406BF52EA0335CB
:4012800091EA030F41F4002130BD00BF90F0000F04BF0021704730B54FF4806404F132044FF000054FF0000150E700BF90F0000F04BF0021704730B54FF4806404F1320463
:4012C00010F0004548BF40424FF000013EE700BF42004FEAE2014FEA31014FEA02701FBF12F07F4393F07F4F81F06051704792F0000F14BF93F07F4F704730B54FF4607454
:4013000001F0004521F0004120E700BF50EA010208BF704730B54FF000050AE050EA010208BF704730B511F0004502D5404261EB41014FF4806404F132045FEA915C3FF409
:40134000DCAE4FF003025FEADC0C18BF03325FEADC0C18BF033202EBDC02C2F1200300FA03FC20FA02F001FA03FE40EA0E0021FA02F11444C1E600BF70B54FF0FF0C4CF4D0
:40138000E06C1CEA11541DBF1CEA135594EA0C0F95EA0C0F00F0DEF82C4481EA030621EA4C5123EA4C5350EA013518BF52EA033541F4801143F4801338D0A0FB02CE4FF0FE
:4013C0000005E1FB02E506F00042E0FB03E54FF00006E1FB03569CF0000F18BF4EF0010EA4F1FF04B6F5007F64F5407404D25FEA4E0E6D4146EB060642EAC62141EA5551D8
:401400004FEAC52040EA5E504FEACE2EB4F1FD0C88BFBCF5E06F1ED8BEF1004F08BF5FEA500E50F1000041EB045170BD06F0004646EA010140EA020081EA0301B4EB5C0433
:40144000C2BFD4EB0C0541EA045170BD41F480114FF0000E013C00F3AB8014F1360FDEBF002001F0004170BDC4F10004203C35DA0C341BDC04F11404C4F1200500FA05F366
:4014800020FA04F001FA05F240EA020001F0004221F0004110EBD37021FA04F642EB06015EEA430E08BF20EAD37070BDC4F10C04C4F1200500FA04F320FA05F001FA04F28A
:4014C00040EA020001F0004110EBD37041F100015EEA430E08BF20EAD37070BDC4F1200500FA05F24EEA020E20FA04F301FA05F243EA020321FA04F001F0004121FA04F2A9
:4015000020EA020000EBD3705EEA430E08BF20EAD37070BD94F0000F0FD101F00046400041EB010111F4801F08BF013CF7D041EA060195F0000F18BF704703F00046520031
:4015400043EB030313F4801F08BF013DF7D043EA0603704794EA0C0F0CEA135518BF95EA0C0F0CD050EA410618BF52EA4306D1D181EA030101F000414FF0000070BD50EACE
:40158000410606BF1046194652EA430619D094EA0C0F02D150EA013613D195EA0C0F05D152EA03361CBF104619460AD181EA030101F0004141F0FE4141F470014FF00000F5
:4015C00070BD41F0FE4141F4780170BD70B54FF0FF0C4CF4E06C1CEA11541DBF1CEA135594EA0C0F95EA0C0F00F0A7F8A4EB050481EA030E52EA03354FEA013100F0888016
:401600004FEA03334FF0805545EA131343EA12634FEA022245EA111545EA10654FEA00260EF000419D4208BF964244F1FD0404F5407402D25B084FEA3202B61A65EB03050F
:401640005B084FEA32024FF480104FF4002CB6EB020E75EB030E22BFB61A754640EA0C005B084FEA3202B6EB020E75EB030E22BFB61A754640EA5C005B084FEA3202B6EB3F
:40168000020E75EB030E22BFB61A754640EA9C005B084FEA3202B6EB020E75EB030E22BFB61A754640EADC0055EA060E18D04FEA051545EA16754FEA06164FEAC30343EA4A
:4016C00052734FEAC2025FEA1C1CC0D111F4801F0BD141EA00014FF000004FF0004CB6E711F4801F04BF01430020B4F1FD0C88BFBCF5E06F3FF6AFAEB5EB030C04BFB6EB9E
:40170000020C5FEA500C50F1000041EB045170BD0EF0004E4EEA113114EB5C04C2BFD4EB0C0541EA045170BD41F480114FF0000E013C90E645EA060E8DE60CEA135594EA8C
:401740000C0F08BF95EA0C0F3FF43BAF94EA0C0F0AD150EA01347FF434AF95EA0C0F7FF425AF104619462CE795EA0C0F06D152EA03353FF4FDAE1046194622E750EA4106EC
:4017800018BF52EA43067FF4C5AE50EA41047FF40DAF52EA43057FF4EBAE12E74FF0FF3C06E000BF4FF0010C02E000BF4FF0010C4DF804CD4FEA410C7FEA6C5C4FEA430C03
:4017C00018BF7FEA6C5C1BD001B050EA410C0CBF52EA430C91EA030F02BF90EA020F0020704710F1000F91EA030F58BF994208BF90422CBFD8176FEAE37040F00100704722
:401800004FEA410C7FEA6C5C02D150EA013C07D14FEA430C7FEA6C5CD6D152EA033CD3D05DF8040B704700BF8446104662468C461946634600E000BF01B5FFF7B7FF0028AC
:4018400048BF10F1000F01BD4DF808EDFFF7F4FF0CBF012000205DF808FB00BF4DF808EDFFF7EAFF34BF012000205DF808FB00BF4DF808EDFFF7E0FF94BF012000205DF8F1
:4018800008FB00BF4DF808EDFFF7CEFF94BF012000205DF808FB00BF4DF808EDFFF7C4FF34BF012000205DF808FB00BF4A0011D212F5001211D20DD56FF47873B3EB6252D5
:4018C0000ED44FEAC12343F0004343EA505323FA02F070474FF00000704750EA013002D14FF0FF3070474FF0000070477BB972B90029BEBF00204FF0004106E008BF002814
:401900001CBF6FF000414FF0FF3000F0B5B9ADF1080C6DE904CE002909DB002B1ADB00F035F8DDF804E0DDE9022304B07047404261EB4101002B1BDB00F028F8DDF804E033
:40194000DDE9022304B0404261EB4101524263EB43037047524263EB430300F017F8DDF804E0DDE9022304B0404261EB41017047524263EB430300F009F8DDF804E0DDE9FB
:40198000022304B0524263EB430370472DE9F04F8C460C460546099E002B4FD18A4217466BD9B2FA82FEBEF1000F0BD0CEF1200520FA05F501FA0EF345EA030C02FA0EF754
:4019C00000FA0EF5390CBCFBF1F0BAB201FB10C300FB02F84FEA154C4CEA0344A04509D9E41900F1FF3380F02881A04540F2258102383C44C8EB0404B4FBF1F301FB134CA6
:401A000003FB02F2ACB244EA0C418A4209D9C91903F1FF3480F00F818A4240F20C81023B39448A1A43EA00400021002E63D022FA0EF2002386E80C00BDE8F08F8B4207D9C2
:401A4000002E56D0002186E811000846BDE8F08FB3FA83F1002940F09380A34202D3824200F2FE80851A64EB03039C460120002E41D086E82010BDE8F08F12B90127B7FBE8
:401A8000F2F7B7FA87FEBEF1000F36D1E41B4FEA17481FFA87F90121B4FBF8F308FB134409FB03F24FEA154C4CEA0444A24207D9E41903F1FF3002D2A24200F2D3800346C1
:401AC000A41AB4FBF8F008FB104809FB00F9ACB244EA0842914507D9D21900F1FF3402D2914500F2BA802046C9EB020240EA03409BE731463046BDE8F08F07FA0EF7CEF1E5
:401B0000200C24FA0CF34FEA1748B3FBF8FA1FFA87F908FB1A3520FA0CFC04FA0EF40AFB09FB4CEA040C4FEA1C4242EA05439B4500FA0EF50AD9DB190AF1FF3280F08B8062
:401B40009B4540F28880AAF1020A3B44CBEB0303B3FBF8F008FB103300FB09F41FFA8CFC4CEA03439C4207D9DB1900F1FF326ED29C426CD902383B441C1B40EA0A418BE76A
:401B8000C1F1200E8B4022FA0EFC4CEA030C24FA0EF74FEA1C49B7FBF9FA1FFA8CF309FB1A7720FA0EF88C400AFB03F548EA04044FEA144848EA0747BD4202FA01F200FA5C
:401BC00001FB09D917EB0C070AF1FF3041D2BD423FD9AAF1020A67447F1BB7FBF9F509FB157705FB03F3A4B244EA0747BB4208D917EB0C0705F1FF3027D2BB4225D9023D6F
:401C0000674445EA0A40A0FB0289FF1A4F4545464C4614D329D066B3BBEB050367EB040707FA0EFECB40CF404EEA030386E888000021BDE8F08F2346F3E61846DAE6B8EBE9
:401C4000020569EB0C040138E5E70546D9E7104692E78246C0E7924678E702383A4443E7084604E7023B3C442AE7C345E7D33C46D1E73146BDE8F08F704700BF014B1868B2
:401C8000704700BF6481FF1F0E4B70B51E460E4C0025E41AA410A54204D056F8253098470135F8E702F086F9084B094C1E46E41AA4100025A54204D056F82530984701357F
:401CC000F8E770BDC03F0000C03F0000C03F0000C83F000010B5431E0A44914204D011F8014B03F8014FF8E710BD03460244934202D003F8011BFAE770472DE9F04788B003
:401D0000149F002B1E461299B8BF03F1004327F02007B6BF1E4600232D23462F1446109DDDF84CA00B7003D0452F03D1013501E0032300E0022307AA049206AA03928DE868
:401D400028042246334600F003FD472F804602D1119BDB0728D5462F08EB050911D198F80030302B0AD10022002320463146FFF76BFD18B9C5F10105CAF80050DAF800305D
:401D800099440022002320463146FFF75DFD08B9302202E0CDF81C9006E0079B994503D9591C07911A70F8E74046079B159AC8EB0303136008B0BDE8F087034673B5002945
:401DC000B8BF494203F8022BB4BF2D222B22092942701ADD0DF1070216460A2591FBF5F405FB1411092C01F1300102F8011D2146F4DC3031541E02F8011CB4421A460AD2E0
:401E000014F8012B03F8012BF7E71A463024214402F8024B5970101A02B070BD2DE9F04F91B00C46DDF8688016461F46054601F027FA03681846099300F0F4FB00230E9368
:401E4000D8F800300A90073323F0070303F1080294F81890D4F800B0C8F80020D3E90023C4E91223D4F84CA0D4F848802AF000430B934FF0FF32A74B40460B9901F054FF0B
:401E8000A0B94FF0FF32A34B40460B99FFF7F0FC60B90022002340465146FFF7DFFC10B12D2384F843309C4B9C4A0AE0424653464046514601F038FF002800F09281984BE8
:401EC000984AB9F1470F8CBF90469846032323612BF0040323604FF0000A3DE0B9F1670F00F08A81B9F1470F00F0868123600193636800210DF133020590029200934246C0
:401F000053460691CDF81090CDF80CE02846FFF7F4FE09F0DF03472B804600F08481B9F1650F0D9900F28D8101394A4604F150000D91FFF742FF0E9A82468318012A23619B
:401F400000F37C812268D10700F178819DF8333013B12D2384F84330009733460FAA2146284600F09FF9013002D14FF0FF3096E123685A0501D4236965E0B9F1650F40F23B
:401F8000D580D4E9120100220023FFF75DFC78B30123654A31462846B8470130E5D00E9B0D9A9A420BDB2368D80708D423689B0740F111814FF0000804F1190906E10A9B6E
:401FC000099A31462846B8470130CED04FF0000804F11A090E9B013B9845E7DA01234A4631462846B8470130BFD008F10108F1E70D9B002B29DC01234B4A31462846B84702
:402000000130B2D00D9B23B90E9B13B92368D907CCD50A9B099A31462846B8470130A4D04FF0000904F11A0A0D9B5B42994509DA0123524631462846B847013095D009F180
:402040000109F1E70E9B4246A7E00E9AA36D9A42A8BF1A46002A914606DC4FF0000A29EAE97904F11A0B11E01346314642462846B8470130F1D178E701235A4631462846FF
:40208000B84701303FF471AF0AF1010AA36DC9EB03029245F0DB08EB03090D9A0E9B9A420FDB2368DA070CD40E9B0D9A9844C9EB08089B1A9845A8BF9846B8F1000F08DC68
:4020C0000FE00A9B099A31462846B8470130EBD14BE743464A4631462846B84701303FF444AF4FF0000928EAE87804F11A0A09E00123524631462846B84701303FF435AFAE
:4021000009F101090D9A0E9B9B1AC8EB03039945EEDB4BE7FFFFEF7F503E0000543E0000583E00005C3E0000603E00000E9A012A01DCDB0738D50123424631462846B8477B
:4021400001303FF412AF0A9B099A31462846B84701303FF40AAFD4E9120100220023FFF773FB20B14FF0000804F11A090EE00E9B08F10102013B19E001234A4631462846E7
:40218000B84701303FF4F1AE08F101080E9B013B9845F1DB534604F1500231462846B84701307FF403AFE0E64246012331462846B8470130EED1D8E601234A4631462846D6
:4021C000B84701303FF4D1AE08F10108E3680F9A9B1A9845F0DBE0680F9B9842B8BF18465DE062680EA8531C0DF1340E4BF480637FF474AE062201E012B90122626075E6D2
:40220000002106910DF133018DE80C00236005904246CDF81090CDF80CE0029153462846FFF76BFD80460D9BD81C02DB626893421DDDA9F102095FFA89F970E6013323611F
:4022400084E6B9F1660F14D10029636807DD216113B92268D2071DD501330B4419E013B92268D00701D5023313E0012311E04FF067090D9B0E9A934205DB22682361D1071F
:4022800008D5013305E0002BD4BFC3F102030123134423610D9B4FF0000AA36556E611B0BDE8F08F2DE9F04791461F460A698B6806469342B8BF1346C9F8003091F84320DB
:4022C0000C46DDF8208012B10133C9F800302368990642BFD9F800300233C9F80030256815F0060510D104F1190A07E00123524639463046C04701301AD00135E368D9F83B
:4023000000209B1A9D42F1DB94F843302268003318BF012392060FD5E118302081F843005A1C94F845102244023382F8431003E04FF0FF30BDE8F08704F14302394630468A
:40234000C0470130F4D02268D9F80050E36802F00602042A08BF5D1B2269A3680CBF25EAE57500259342C4BF9B1AED184FF000091A344D4509D00123224639463046C0477A
:402380000130D5D009F10109F3E70020BDE8F0872DE9F04317460A7E85B06E2A984606460C460C9B01F1430E00F0AE8011D8632A22D009D8002A00F0BB80582A40F0CA8014
:4023C00081F84520834955E0642A1ED0692A1CD0C0E0732A00F0B08009D86F2A2ED0702A40F0B8800A6842F020020A603EE0752A24D0782A3AD0ADE01A6801F14205111D29
:402400001960136884F84230A8E021681A6811F0800F02D0111D196008E011F0400F02F10401196002D0B2F9003000E01368002B3CDA2D225B4284F8432037E021681A683F
:4024400011F0800F02D0111D196007E011F0400F02F10401196001D0138800E01368227E5C496F2A14BF0A2208221BE078225A4984F845202268186812F0800F00F104052F
:402480001D6003D1550601D5038800E00368D00744BF42F0200222601BB9226822F0200222601022002084F8430001E049490A226568002DA56008DB206820F00400206052
:4024C0002BB9002D7DD175460CE0002B79D07546B3FBF2F002FB1033CB5C05F8013D03460028F5D1082A0BD12368DA0708D5236962689A42DEBF302305F8013C05F1FF3561
:40250000C5EB0E0323612EE008681A6810F0800F496903D0101D1860136808E010F0400F02F104001860136801D0198000E0196000232361754616E01A68111D1960156840
:4025400000216268284600F0A7FE08B1401B6060636804E004F1420584F8422001232361002384F84330CDF800803B4603AA21463046FFF797FE013002D14FF0FF3026E0C3
:4025800023692A4639463046C0470130F5D023689B0710D5002504F1190907E001234A4639463046C0470130E7D00135E368039A9B1A9D42F2DBE068039B9842B8BF18464C
:4025C00005E00B7804F1420584F842308AE705B0BDE8F083623E0000733E00000EB400B54FF402719CB0ADF814106FF00041049107914FF6FF711DAB02900690084853F86B
:40260000042BADF81610006802A9019301F03AFA029B00221A701CB05DF804EB03B070476481FF1F034613F8012B002AFBD1181A013870472DE9F74F03690C6980469C4295
:402640007FDC013C01F114074FEA840E00F1140606EB0E0357F82450019356F824300135B3FBF5F507EB0E09C5B34FF0000A3846B446D34650F8043B9AB205FB02A21B0C1D
:402680004FEA124A05FB03A392B2C2EB0B0BBCF800204FEA134A5A441FFA83FBDCF800308145CBEB134303EB224392B242EA03424FEA234B4CF8042BDCD256F80E306BB9E3
:4026C000019B043B9E421A4602D3C8F8104005E01268043B002AF8D1013CF3E7404600F0F6FF00282BDB304601354FF0000E57F8042B036891B2C1EB0E0E120C99B271448E
:40270000C2EB134303EB214389B24FEA234EB94541EA034340F8043BE9D256F8242006EB840362B9043B9E421A4602D3C8F8104005E01268043B002AF8D1013CF3E728461F
:4027400000E0002003B0BDE8F08F0000000000002DE9F04F456A95B08246219CCDE9022345B9102000F090FDCAF82400456085600560C560DAF82430196859B15A6801239D
:4027800093404A608B60504600F0C9FDDAF8243000221A60039BA04A002BBDBF01232360039B0023BCBF23F000430393DDF80C80A8BF236028F000431B0D1B0593421DD1F4
:4027C00042F20F73209A1360029B43B9934A944BC8F31300002814BF1846104600E09048229B002B00F04685C37813B100F1080300E0C31C229A136000F03CBDDDE90245EA
:402800000022002320462946FFF71EF8074658B1209A01231360229B002B00F01E8581481860013800F026BD12AB019313AB009322462B46504600F0C5FFC8F30A5604908F
:4028400056B1C5F3130343F07F51204641F44011A6F2FF3611971DE0139B129E1E4406F23243202B0ADD029A06F21240C3F1400322FA00F008FA03F3184304E0C3F12000CF
:40288000029B03FA00F0FEF701FD0123A1F1F871013E11930022644BFEF7BAFB58A3D3E90023FEF769FD58A3D3E90023FEF7B2FB044630460D46FEF7F9FC55A3D3E9002399
:4028C000FEF75AFD02460B4620462946FEF7A2FB04460D4601F03EFA00228346002320462946FEF7BBFF58B15846FEF7DFFC02460B4620462946FEF7A7FF08B90BF1FF3BBD
:40290000BBF1160F0DD8DDE90223484901EBCB01D1E90001FEF7C0FF30B10BF1FF3B002300E00123109300E01090129B9E1B731E079343BFC3F10008002307934FF000088A
:40294000BBF1000F06DB079BCDF82CB05B440793002705E00023CBEB0808CBF100070B931E9B092B28D8052BC4BF043B1E931E9BC8BF0025A3F10203D8BF0125032B20D878
:40298000DFE803F0060E0204012302E0012308E000230A931F9B002B1DDD9946059321E000230A931F9B0BEB030909F10103012B0593B8BF012315E0012500231E930A95B3
:4029C00001E001230A934FF0FF390022CDF8149012231F9206E04FF001094B46CDF81490CDF87C90DAF8244000226260042101F114029A421CD86268490001326260F6E757
:402A000061436F63A787D23FB3C8608B288AC63FFB799F501344D33F0000F07F843E00008D3E0000613E00000000F83FA03E00006168504600F03EFCDAF8243020601B6896
:402A40000693059B0E2B00F25B81002D00F05881DDE90234BBF1000FCDE90E3430DD9F4A0BF00F034FEA2B1502EBC303E80618CBCDE908340CD5DDE90E01994B05F00F05DC
:402A8000D3E90823FEF7A2FD0324CDE9020100E00224934E6DB1E90708D5DDE90801D6E90023FEF769FCCDE9080101346D100836F0E7DDE90823DDE90201FEF787FD20E025
:402AC000CBF1000505B3DDE90E01844B05F00F0203EBC203D3E90023FEF74EFCCDE902017F4E2D110023022455B1EA0705D5D6E90023FEF741FC013401236D100836F3E702
:402B00001BB1CDE9020100E00224109BE3B1DDE902560022734B28463146FEF79FFE98B1059B8BB1B9F1000F40F3E6800BF1FF330893314600226C4B2846FEF71DFC013415
:402B4000CDE902014E4602E0059ECDF820B02046FEF7ACFBDDE90223FEF70EFC634B0022FEF758FAA1F1507304460C931D46D6B9DDE9020100225E4BFEF74AFA22460C9BDF
:402B8000CDE90201FEF788FE002840F03F820C99224601F10043DDE90201FEF75FFE002840F02B82A8E00A9A4C4B711E002A49D003EBC103D3E9002300204E49FEF706FD91
:402BC00022462B46FEF724FACDE90C01069CDDE9020101F0BFF80546FEF768FB02460B46DDE90201FEF714FADDE90C23303504F8015BCDE90201FEF731FE002840F01D8384
:402C0000DDE9022300203749FEF702FADDE90C23FEF724FE002840F0D180069BE31AB3426ADADDE90C0100222F4BFEF7A5FB0022CDE90C01DDE902012B4BFEF79DFBCDE921
:402C40000201C4E703EBC1012246D1E900012B46FEF792FB069BCDE90C011D469C19DDE9020101F077F80646FEF720FB02460B46DDE90201FEF7CCF9303605F8016BAC4206
:402C8000CDE902014FF0000222D11A4BDDE90C01FEF7C0F902460B46DDE90201FEF7FCFD002840F08B80DDE90C2300201149FEF7AFF902460B46DDE90201FEF7CFFDD8B1D6
:402CC00014F8013C621E302B40F0B7821446F7E7054BFEF751FBCDE90201C0E7A03E0000783F00000000F03F0000244000001C40000014400000E03FDDE90E34CDE9023433
:402D0000139B002B7CDBBBF10E0F79DCAB4B03EBCB03D3E900671F9B002B14DA059B002B11DC40F06C810022A54B30463946FEF723FBDDE90223FEF7A5FD059D2E460028EE
:402D400040F05F8165E1069CDDE9028932463B4640464946FEF73AFC00F0FCFF0546FEF7A5FA32463B46FEF707FB0B46024649464046FEF74DF905F1300E069B04F801EB71
:402D8000C3EB040E059B73452DD102460B46FEF741F98046894602460B4630463946FEF75DFD78B942464B4630463946FEF74CFD002800F04482EB0704D440E2DDF820B0D7
:402DC00000E01C4614F8012C631E392A07D1069A9A42F6D1069930220BF1010B0A701A7801321A702BE20022764BFEF7C5FA0022002380468946FEF727FD0028A6D01EE262
:402E00000A9A002A2BD01E9A012A0ADC119A12B103F2334302E0129BC3F136033D46444613E0059B5D1EAF42BFBF0B9BEA1B9B180B93059BB6BF2F467D1B0025002BA7BF4D
:402E40004446059BC3EB08040023079A01211A4450469844079200F001FB064602E03D4644460A9E5CB1079B002B08DDA342A8BF2346079AC3EB0808E41AD31A0793002FC9
:402E80001DDD0A9BABB18DB131462A46504600F07FFB049A01460646504600F0E8FA04990890504600F03BFA089B04937A1B06D000E03A460499504600F06AFB0490012126
:402EC000504600F0CBFA0B9B05465BB31A460146504600F05DFB1E9B0546012B18DC029B83B9039BC3F3130373B9039B23F000473F0D3F054FB1079B08F101080133079376
:402F0000012702E0002700E0029F0B9B73B100E000272B6905EB8303186900F052FAC0F1200004E01E9B012BD9DD0B9F0120079B184410F01F0008D0C0F12003042B02DD55
:402F4000C0F11C0002E006D018461C30079B8044034404440793B8F1000F05DD42460499504600F063FB0490079B002B05DD29461A46504600F05AFB0546109B23B32946C8
:402F8000049800F0A4FB00281EDA00230A220499504600F0DBF90A9B0BF1FF3B0490002B00F05F81314600230A22504600F0CEF9B9F1000F06463FDC3BE000BFA03E00002B
:402FC0000000144000002440059B002B2BDC1E9B022B28DDDDF81490B9F1000F11D129464B460522504600F0B1F901460546049800F06DFB00280CDC03E0354600E00025F8
:403000002E461F9B069C6FEA030B09E03546DDF820B0069B069A5C1C312313700BF1010B05960026F7E00A9BDDF8149023B9069CB2E01E9B022BCFDC002C05DD3146224674
:40304000504600F0F3FA06469FB17168504600F031F90446326906F10C01023292000C30FEF738FE01222146504600F0DFFA059000E00596029B069F03F001030793294667
:403080000498FFF7D7FA3146044600F13008049800F01DFB059A02902946504600F033FBC36802463BB901460A90049800F00FFB0A9A034600E00123114650460A9300F082
:4030C0002EF90A9B53B91E9A42B9079A32B9B8F1390F2AD0029B002B1CDC1DE0029A002A04DB1BD11E9ACAB9079ABAB9002B13DD01220499504600F099FA2946049000F04A
:40310000E6FA002803DC07D118F0010F04D0B8F1390F0AD004F131087C1C0CE0002B07F101040BDDB8F1390F03D139233B70013756E008F1010887F800806CE0069B2746C2
:40314000E31A4B4504F8018C3BD000230A220499504600F0FBF8059B04909E424FF00A024FF000033146504604D100F0EFF80646059084E700F0EAF8002306460A22059918
:40318000504600F0E3F8059079E700230A220499504600F0DBF8049029460498FFF74AFA069B00F1300804F8018BE31A4B45ECDB069B0596B9F1010FACBF4B4401331F466C
:4031C000002601220499504600F030FA2946049000F07DFA002803DC15D118F0010F12D03C4614F8013C621E392B09D1069B934204D10BF1010B3123069A02E01446F0E705
:403200000133137007E03C4614F8013C621E302B01D11446F8E72946504600F080F8059B6BB12EB19E4203D03146504600F077F80599504600F073F801E0DDF820B0049966
:40324000504600F06CF80023209A23700BF101031360229B1BB11C6001E008480AE0069808E0B9F1000F3FF7E2AE1E9B022B7FF7DEAEB1E615B0BDE8F08F00BF603E000097
:40328000004870476881FF1F024B0146186800F041BB00BF6481FF1F10B5C9B202449042034605D01C7801308C42F8D1184610BD002010BD70B5456A04460E463DB91020C4
:4032C000FFF7E2FF6062456085600560C560656AEB6843B1636ADB6853F8260078B1026843F8262017E021220421204600F0B8FA636AE860DB68002BECD1002070BD012160
:4033000001FA06F56A1D9200204600F0A9FA0028F3D04660856000230361C36070BD70B5446A06460D463CB91020FFF7ADFF7062446084600460C4603DB1736A6A68DB683D
:4033400053F82210296043F8225070BD2DE9F04106460C460D691F4601F1140E0023DEF80000013381B202FB0171000C0F0C02FB007089B201EB00419D424FEA10474EF819
:40338000041BECDCD7B1A3689D4212DB616830460131FFF78FFF8046226904F10C01023292000C30FEF796FC21463046FFF7B7FF444604EB850301355F6125612046BDE8E5
:4033C000F081030C1B0413B90004102300E0002310F07F4F04BF0002083310F0704F04BF0001043310F0404F04BF80000233002803DB420003D5581C7047184670472020F9
:403400007047036813F007020BD0D90722D49A074BBF5B089B08036003604CBF01200220704799B209B91B0C102213F0FF0F04BF1B0A0832190704BF1B090432990704BFF8
:403440009B080232D90702D45B0805D00132036010467047002070472020704710B50C460121FFF727FF01224461026110BD2DE9F74F14460A69236988469A42BEBF0B469C
:40348000A0461C46D8F81070D4F81090D8F80830D8F8041007EB09069E42C8BF0131FFF709FF00F114052B4605EB860C0022634502D243F8042BFAE704F1140208F1140185
:4034C00002EB890301EB87070093009B0192934257D9B2F800B0BBF1000F23D08946AE464FF0000859F8044BBEF800A0A3B20BFB03A34FEA144ADEF8004043444FEA144841
:403500000BFB0A84F24604EB13449BB243EA04434F454FEA14484AF8043B01D9D646E1E7CEF80480019B0432B3F802A0BAF1000F21D02C4689462B684FF00008B9F800E090
:40354000B4F802B09BB20AFB0EBEA346F04443EA08434BF8043B59F8043BB4F804E01B0C0AFB03E34F4503EB18434FEA134801D95C46E3E763600435A7E75CF8043D13B9E4
:40358000013E002EF9DC066103B0BDE8F08F00002DE9F843154612F0030206460F4607D0214C013A002354F82220FFF7CFFE0746AD1036D0746A3CB91020FFF765FE706206
:4035C000446084600460C460D6F82480D8F808404CB940F271213046FFF740FF04460023C8F8080003604FF00008EB070AD5394622463046FFF73BFF814639463046FFF7CE
:403600008EFE4F466D100CD0206808B10446ECE7224621463046FFF72AFF2060C0F80080F4E73846BDE8F883683F00002DE9F0470C460746914626694FEA621A5644496824
:40364000A368751CAB4202DA01315B00FAE73846FFF730FE002380461A4600F11401534503DA41F823200133F9E72AEAEA73206901EB830319F01F0904F1140101EB800E60
:4036800014D0C9F1200C002208689A4600FA09F0024343F8042B51F8042B8E4522FA0CF2F2D8CAF8042042B1B51C06E0043B51F8042B8E4543F8042FF9D8013D3846C8F828
:4036C00010502146FFF72BFE4046BDE8F08703690A6910B59B1A11D192001430143183180A4453F8044D52F8041D8C4202D007D3012010BD9842F4D3002010BD184610BDDB
:403700004FF0FF3010BD2DE9F8430C460746114620461546FFF7DBFF061E08D131463846FFF7C8FD012303614661BDE8F883BCBF23462C4638466168BABF1D4601260026B4
:40374000FFF7B8FD2B69C660266905F1140904F1140101EB860709EB830800F114054FF0000C51F8042B59F8044B93B29C44A3B2240CC3EB0C03C4EB124202EB23429BB2CA
:403780004FEA224CC84543EA02428E4645F8042BE7D8BE450ED25EF8041B8AB26244131403EB114392B242EA03424FEA234C45F8042BEEE755F8043D0BB9013EFAE70661CB
:4037C000BDE8F8832DE9F3411C4601219046089E099DFFF76FFDC4F31302C4F30A5407460CB142F480120192B8F1000F19D002A840F8088DFFF705FE009B48B1019AC0F120
:40380000200102FA01F10B43C2407B61019200E07B61019B002B14BF02210121BB61396107E001A8FFF7EDFD019B01217B613961203034B1A4F2334404443460C0F13500C1
:4038400009E0A0F2324007EB810330601869FFF7B8FDC0EB41102860384602B0BDE8F08138B502FB01F4214600F054F8054618B122460021FEF739FA284638BD38B505467D
:40388000002944D051F8043C0C1F002BB8BFE41800F017FA1E4A1368114613B96360146030E0A3420DD92268A018834201BF18685B681218226063600C6023E0A24203D8B9
:4038C00013465A68002AF9D118681918A1420BD12168014458188242196013D110685268014419605A600DE002D90C232B6009E021686018824201BF10685268091821607C
:4039000062605C602846BDE8384000F0DBB938BDE881FF1F70B5CD1C25F0030508350C2D38BF0C25002D064601DBA94202D90C23336046E000F0C5F9234B1C681A4621464B
:40394000A1B10B685B1B0ED40B2B03D90B60CC18CD501EE08C420BBF63684B681360636018BF0C4615E00C464968E9E7174C23681BB9304600F07AF920602946304600F081
:4039800075F9431C18D0C41C24F00304A0420DD12560304600F096F904F10B00231D20F00700C31A0ED05A42E25070BD211A304600F05CF90130EBD10C233360304600F005
:4039C00081F9002070BD00BFE881FF1FE481FF1F2DE9F0478E6882469E420C46914698463ED88A8912F4906F3AD02568096902236F1A656905EB450595FBF3F57B1C4344C2
:403A00009D4238BF1D4653050FD52946FFF782FF064698B13A462169FEF75CF9A38923F4906343F08003A38113E02A4600F04BF9064670B921695046FFF720FF0C23CAF800
:403A40000030A3894FF0FF3043F04003A381BDE8F08726613E44266046466561ED1BA560464528BF464649463246206800F00EF9A36800209B1BA36023681E442660BDE858
:403A8000F08700002DE9F04F9DB003938B8980461C060D4616460DD50B695BB94021FFF739FF2860286118B90C23C8F80030CDE040236B610023099320238DF82930DFF81F
:403AC0009CB130238DF82A3037463C4614F8013B1BB9B7EB060910D003E0252BF9D02746F3E74B46324629464046FFF771FF013000F0A780099B4B4409933B78002B00F00F
:403B0000A08000234FF0FF3204930793059206938DF853301A930126052221784E48FFF7BBFB671C049B38B14B4A3C46801A06FA00F018430490EFE7D90644BF20228DF879
:403B400053201A0744BF2B228DF8532022782A2A03D0079A00210A200BE0039A111D12680391002A10DA524243F00200079204900BE027463B780134303B092B03D800FB39
:403B800002320121F5E701B107923B782E2B1ED17B782A2B0AD1039B02371A1D1B680392002BB8BF4FF0FF33059310E0002319460593781C0A2407463A780130303A092A00
:403BC00003D804FB01210123F5E703B10591032239782248FFF760FB40B14023CBEB000003FA00F0049B013718430490397806221B487E1C8DF82810FFF74EFB88B1194BC2
:403C000033B9039B073323F007030833039314E003AB00932A46144B04A94046FEF7FEF807E003AB00932A460F4B04A94046FEF7AFFBB0F1FF3F824603D0099B534409939B
:403C400042E7AB895B0601D4099801E04FF0FF301DB0BDE8F08F00BFA03F0000A63F0000AA3F00001D1E0000D139000038B5064C0023054608462360FCF7C2FC431C02D1BE
:403C8000236803B12B6038BDE882FF1F884210B501EB020301D8421E0BE09842FBD28118D21AD34204D013F8014D01F8014DF8E710BD994204D011F8014B02F8014FF8E78B
:403CC00010BD70477047F8B5074615460E4621B91146BDE8F840FFF71DBE1AB9FFF7CEFD2846F8BD00F015F885420ED929463846FFF710FE044650B131462A46FDF7EAFF9F
:403D000031463846FFF7BAFD01E03046F8BD2046F8BD51F8040C0028BEBF091851F8043CC0180438704700004FEA410C7FEA6C5C02D150EA013C0AD14FEA430C7FEA6C5CB2
:403D400002D152EA033C02D14FF0000070474FF0010070474FEA410212F5001215D211D56FF47873B3EB625212D94FEAC12343F0004343EA505311F0004F23FA02F018BFAF
:403D8000404270474FF00000704750EA013005D111F0004008BF6FF0004070474FF00000704700BF00000000E4DBFF7F010000005B25645D206F70656E0000005B25642C1F
:403DC00020737461747573203D202533645D206563686F3A2025632028256429000000005B25645D20636C6F73650A005265616479210000256C7500256C660025640000B1
:403E00000D0A000071000000005100401000405100402000C05100401000F0510040100000000140800E000F0140000100140140000800400140000A004C0140000200508F
:403E400001402000800E0140CC05004880004300494E4600696E66004E414E006E616E003000303132333435363738394142434445460030313233343536373839616263FD
:403E800064656600496E66696E697479004E614E00504F534958002E0000000000000000000000000000F03F000000000000244000000000000059400000000000408F4090
:403EC000000000000088C34000000000006AF8400000000080842E4100000000D01263410000000084D797410000000065CDCD41000000205FA00242000000E876483742A7
:403F0000000000A2941A6D42000040E59C30A2420000901EC4BCD64200003426F56B0C430080E03779C3414300A0D8855734764300C84E676DC1AB43003D9160E458E1439F
:403F4000408CB5781DAF154450EFE2D6E41A4B4492D54D06CFF08044F64AE1C7022DB544B49DD9794378EA4405000000190000007D000000000000000080E03779C34143D4
:403F8000176E05B5B5B89346F5F93FE9034F384D321D30F94877825A3CBF737FDD4F1575232D302B2000686C4C0065666745464700000000F8B500BFF8BC08BC9E4670476B
:403FC0004D0000007D060000F8B500BFF8BC08BC9E46704729000000E83F0000C880FF1FD80000005001000000000000FFFFFFFF10270000000000009A9999999999C93FC1
:404000002D431CEBE2361A3F0000000000C06240F082FF1F0000E02EC05D00001800000000366E0100000000000000000000000000000000000000000000000000000000BE
:40404000000000004E3E00000000000000000000000000000000000000000000000000000000000000000000000000000000000000000000000000000000000000000000B4
:40408000000000000481FF1F973E0000A53F0000A53F0000A53F0000A53F0000A53F0000A53F0000A53F0000A53F0000A53F0000FFFFFFFFFFFFFFFFFFFFFFFFFFFF000092
:4040C00000000000000000000000000000000000000000000000000000000000000000000000000000000000000000000000000000000000000000000000000000000000C0
:40410000000000000000000000000000000000000000000000000000000000000000000000000000000000000000000000000000000000000000000000000000000000007F
:40414000000000000000000000000000000000000000000000000000000000000000000000000000000000000000000000000000000000000000000000000000000000003F
:4041800000000000000000000000000000000000000000000000000000000000000000000000000000000000000000000000000000000000000000000000000000000000FF
:020000040003F7
:0200000480007A
:40000000035200400464004002650040010301402F040140110501404A0601402C070140040B01405E0C0140480D01402A0E0140340F01403F1401401C150140421601409A
:400040002217014003400140064101400142014003430140044401400545014004480140094901400550014001510140180419103440870F8C388D0F8F72850D870DE602D4
:400080004053420149FF4AFF4BFF4F0150185A045F016040624064406540668068806A806C806E808C019201AE01AF01B101B601BE40C052C201C9FFCAFFCBFFCD83CE03C5
:4000C000CF01D018D804D904DA04DF01E040E240E440E540E680E880EA80EC80EE8005800F4017401D8027402D804184458046044B404F40C080C210C480CA10D03AD21846
:400100004052420149FF4AFF4BFF4D834E034F0150185A045F016040624064406540668068806A806C806E8080028130820483C9880689308BC38D558FA0920196019C08E2
:400140009FFFA006A550A7AEA802AA04B20EB5F0B601B70FBA0CBB80BE40C053C201C5ECC702C813C9FFCAFFCBFFCD83CE03CF01D018D283D403D604D804D904DA04DB04DD
:40018000DF01E040E240E440E540E680E880EA80EC80EE80001109880B40100813021810194820012210290831803801395041844580460449064B404F40510C5204594699
:4001C0005A206380680869506B0273408340950897409D809E04A180C00AC20DC40ACA02CC08CE0DD03AD218D60FD801B001B108B604B70101100204050806020B040E0485
:400200000F43120215181601195C1B021C01215F240125472718291C2A012B412D042F2030013202331F34043520375838023A803B083E1454185604580459045B045C33F0
:400240005D305F01800C821184098610871589038B148C408E0390109113920C930C94209B08A010A113A304A414A81CA90AAA02AB14B01FB10FB220B440B710BB02BE1403
:40028000BF40C042C101C50BC6C0C70EC819C9FFCAFFCBFFCEF0CF44D00CD401D804D904DA04DB04DC33DD33DF01E6C0EA40EB020048022003800420051006600701090AB9
:4002C0000C080E6110A414101710184019041B101E491F042102224025102711280429202B802C182D802E013102322035083710382C3DA03E0A400441024380482050107C
:400300005108580159145A805E02674A87408F1090089601981099A89A6A9F11A084A140A211A380A502B410B580B604B701C0BDC2BCC46ECAF5CC65CEF6D00DD68FD8B0E9
:400340000001020E0508061C0701081C0A031001110712162107220829022A032B04301A3103340F350C39223A223F014004454049FF4A074BFF4C404D204EF04F05500852
:40038000580459045A045C335D035F01604061A86240632000080120038004220602071009020C100E290F4110881501172819211E6A2048240225402628274029212B801E
:4003C0002D803102362838083D58404044104604474148804C01500C56605E406D587508760A772889018A288B40C0FEC2F8C47ACA15CC61CE72D0F1D210D61040304102D9
:4004000049FF4AFF4BFF4DA04F0450185A045D025F01604062C06440654066C068C06AC06CC06EC087018B0296029A06A501AB02AE01B002B201B404B502B701BF10C030A5
:40044000C106C5D1C620C80BC9FFCAFFCBFFCDAFCE0FCF04D018D280D405D804D904DA04DB04DC22DD22DF01E040E2C0E440E540E6C0E8C0EAC0ECC0EEC00D080F0417409D
:400480001C101D091F24264027082F243F244010412045084F25552057105E805F0977408D01C260C480CA60CE60D046D220D6D0E6400F01270137014050410249FF4AFF1D
:4004C0004BFF4DA04F04501859045A045C105D015F01604062C06440654066C068C06AC06CC06EC092019B019E02A101A604AA02B004B402B601B701BE10C010C106C5D1AD
:40050000C702C813C9FFCAFFCBFFCDAFCE0FCF04D018D280D405D804D904DA04DB04DC11DD11DF01E040E2C0E440E540E6C0E8C0EAC0ECC0EEC009020A0110201204190278
:400540001A051B402240268029022C2030203F8042014604482849014F805008520459015A8471028280B180C209C406CA41CC04CE10D028D214D60BEC8033183620CC707B
:40058000862087089F10A620A708E6409F1083109F10E22009205220C202D4048E20A620B520E008EE028304A520B120E6200920562063088E20A304A520C240D440D840FC
:4005C00000090A010E0810061A06003F000073008CE7730011E7000008200000220000008F01700EF3840C51FF00000033000000040000000C0000000042009180184C07DF
:400600000FC030200000280000000101350204000100EC000CFFFFFF62A0F0410C0000000000021004040404333300010000000000004002001030100010101200000000B4
:40064000000000000000000000000000000B0B0000000000007F7F000000000040000054140014000000000001004001010001000000000000000000000000000000000066
:40068000000000000000000000000000000000000000000000000000000000000000000000000000000000000000000000000000000000000000000000000000000000003A
:4006C00000000000000000000000000000000000000000000000000000000000000000000000000000000000000000000000000000000000000000000000000000000000FA
:4007000000000000000000000000000000000000000000000000000000000000000000000000000000000000000000000000000000000000000000000000000000000000B9
:400740000000000000000000000000000000000000000000000000000000000000000000000000000000000000000000000000000000000000000000000000000000000079
:0200000490006A
:0400000000004005B7
:0200000490105A
:04000000BC90ACAF55
:0200000490303A
:020000009B3231
:0200000490402A
:4000000000000000000000000000000000000000000000000000000000000000000000000000000000000000000000000000000000000000000000000000000000000000C0
:400040000000000000000000000000000000000000000000000000000000000000000000000000000000000000000000000000000000000000000000000000000000000080
:400080000000000000000000000000000000000000000000000000000000000000000000000000000000000000000000000000000000000000000000000000000000000040
:4000C0000000000000000000000000000000000000000000000000000000000000000000000000000000000000000000000000000000000000000000000000000000000000
:0200000490501A
:0C00000000012E12306900012E2DCB9B58
:00000001FF