:400000000080002011000000410900004109000008B5044B1A6803F53F5302331A6000F0AFFC00BFFA46004010B5054C237833B9044B13B10448AFF300800123237010BD38
:40004000C081FF1F0000000054450000084B10B51BB108490848AFF300800848036803B910BD074B002BFBD0BDE81040184700BF00000000C481FF1F54450000C880FF1FE0
:4000800000000000024A136801331360704700BFE081FF1F08B500F0C1FF08BD0000000010B500F085FA01F0F7F8114B19681860104C091A204600F089FAD4F80C220024CC
:4000C000234609A1D1E9000101F0D8FE01F0BEFB0022094B01F01AFD084BC3E9000101F0CFF8074B5C6010BD007841CB02000000D080FF1F4082FF1F00408F403082FF1FFD
:40010000E081FF1F10B500F095FFC143A1F14603B3F50C7F0AD8064C204600F057FAD4F8100201F053FB034BC3E9000110BD00BF6084FF1F5884FF1F2DE9F04FA7B08E4AE6
:40014000536801335360092B04D9002000218B4BC3E900018A4CD4E90267884BD3E900233046394601F0F4F982468B46824DD5E9022301F0EFF9C5E90201D4E9042301F0DD
:400180009BFBD4E9068942464B4601F095FB04460D46CDE9024500227A4B01F01DFE38B90022794B2046294601F0F8FD28B908E00023744CCDE9023403E00023724CCDE992
:4001C00002346F4BD3E908235046594601F074FBCDE90401684CD4E904235046594601F0B7F9D4E9062301F067FB42464B4601F08DFC8046894658A3D3E90023304639463A
:4002000001F05AFB02460B46DDE9040101F0A2F902460B46DDE9020101F09CF902460B464046494601F096F901F008FE01F0CEFA06460F46C4E904AB49A3D3E9002301F009
:40024000CBFD10B146A7D7E900673046394601F0F5FD80B201F084F8494FD7E90A234B49D1E9000101F074F904460D46424ED6E9082301F06FF9C6E90801D6E90A2301F033
:400280001BFBD7E9066732463B4601F015FB82468B4600223E4B01F09FFD40B932A3D3E900235046594601F079FD28B908E04FF0000ADFF8DCB003E00FF2AC0BDBE900AB68
:4002C000DFF8BC80D8E90C232046294601F0F4FACDE90201284BD3E90C232046294601F037F9D8E90E2301F0E7FA32463B4601F00DFC80468946274BD3E9006732463B4660
:40030000DDE9020101F026F902460B465046594601F020F902460B464046494601F01AF901F064FD01F062FA8046894600221A4B01F034FDA0B30EA3D3E900234046494685
:4003400001F0BAFA0122154B01F004F98046894642E000BFAFF30080CDCCCCCCCCCCFC3F0000000000FEAF400000000000407FC0CDCCCCCCCCCCF43FE081FF1F3082FF1F14
:40038000D080FF1F00009040000090C05884FF1F00407F403882FF1F000049C000001E40002200234046494601F0F8FCA0B13EA3D3E900234046494601F07EFA02460B4610
:4003C0004046494601F078FA02460B464046494601F0C0F88046894635A3D3E900234046494601F0B7F8804689462046294601F0FDFC824680EAE070A0EBEA7001F0F6F992
:400400002DA3D3E9002301F057FA02460B462CA1D1E9000101F09CF82B4BC3E9020100222A4B01F0BBFC20B100202849264BC3E90201274BC3E90C450022264B4046494628
:4004400001F0ACFC38B90022234B4046494601F0C3FC28B908E04FF00008DFF8789003E04FF00008DFF870903046394601F0BEFC04464046494601F0B9FC00902346524677
:40048000164906A802F0ACFC06A800F0A5FC4046494601F0D3FC80B200F05AFE27B0BDE8F08F00BFAFF30080FB7E6ABC749368BF00000000007097409A9999999999F13F50
:4004C0000000000000507A40D080FF1F00807640E081FF1F00408F4000409F406045000008B500F087FE0022702308E013F0010F03D003EB4303013300E05B1001321C49FC
:400500008A42F3DD62B600F045F800F04BFC194800F062FC00F00AFC174800F0EDFB00F061FD00F0F5FC00F0C7FD00F0EFFD134800F0D2FD0321124800F044F800F084FED2
:4005400000F0ECFE0F4800F065FE05210E4800F039F800F07DFC0D4800F060FC00F054FF00F0A8FF00F0D0FF094800F0B3FFFEE786D612008C450000850000000501000015
:400580006084FF1FA10000004082FF1F950000003901000008B500F061FB0021084600F06BFB024800F000FB08BD00BF9845000008B5012000F006FB08BD00BF00680B6857
:4005C000C01A7047C0F80012704700BF2DE9F04100AF0446D0F80052D0F80432581C6A1C90FBF2F802FB180844F8231054F82320D4F808321344C4F8083254F82820D4F895
:4006000008329B1AC4F80832D4F80832D4F80022B3FBF2F3C4F80C32AB000A3323F00703ADEB030D6E46002304E054F8232046F823200133AB42F8DB074B0422294630468B
:4006400002F096FA6D1056F82530C4F81032C4F80482BD46BDE8F081BD050000FEE700BFF0B40022174611E050F82760F3B226F0FF0608E001EB420511F812406D78A55521
:400680000132013BDBB2002BF4D10137222FEBD9F0BC70470C4B1B78DBB203F007010B4A11701B09013213700422094B1A701023084A13704021303211700432137044220D
:4006C000054B1A70704700BFCF0100496E5800404D510040905A00407658004008B50A46002101F092FD08BD38B501222F4B1A801C2202331A70022202331A8018232C493E
:400700000B7017212B480180023003700230018029490B70192502310D8002310B700024264B1C801B210233197003F26A231A7008224FF040231A70032103F5007319707C
:400740001F4B1B78DBB21F490B701F4B1A8041F25122023B1A800CE01C4B1B7803F0010343EA440404F003044FF4F07000F0DCFE013D0DB1032CEFD115B90320FFF76EFF92
:40078000134B4FF480721A8007221A70002211490A704820023108701A700222033B1A700D4A137843F03F03137038BD8040004086400040884000408E40004094400040DB
:4007C00008010049A146004022420040254200400440004006400040A243004008B501F009FD08BD38B572B63E4A137843F00403137000240CE03C4D630019194A001146D9
:400800002A44084691882858FFF768FF0134E4B2082CF0D900240BE03349A3001819420088188022C16B806BFFF7D8FF0134E4B2002CF1D02D494FF09040FFF711FF03220F
:400840002B4B1A802B4A03F52A4390331A602A4A137843F0020313701032137843F002031370264C237843F040032370A2F58632513A137843F010031370082220492148CF
:40088000FFF7ACFF082220492048FFF7A7FF08221F492048FFF7A2FF0A221F491F48FFF79DFF08221E491F48FFF798FF0A221E491E48FFF793FF1E4A137843F00803137028
:4008C0001C4D61232B70FFF70FFF81232B700122194B1A70FFF7DEFE0E2221461748FFF77DFF38BDE8460040B04500008C000048485800400404044403500140A0430040CF
:40090000B00A004802510040B80A004812510040C00A004822510040C80A004830510040D40A004842510040DC0A004860510040224300400048004004000840B043004011
:4009400008B501F02BFC03680C2B00D1FEE7FEE708B5094B1A681044084BC31A802B02DC054B186005E001F019FC0C2303604FF0FF32104608BD00BF1081FF1F7886FF1F6B
:4009800008B5104E104D16E029686B68AC68002204E051F8040B43F8040B0432A242F8D1E868002203E0002143F8041B04328242F9D11035013E002EE6D101F0F5FBFFF7F2
:4009C0008FFDFEE7010000007847000008B5104A104B1A60104A136843F40073136000230AE0032B03D80D4A52F8231000E00C490C4A42F8231001332F2BF2D90A4B1A78C6
:400A00000A4B1A70074A0A4B1A60FFF7EBFE08BD0004FA050CED00E014ED00E000000000410900000080FF1FBC760040C080FF1F08ED00E010B50B4C237803F09F032370EA
:400A4000237803F0F00323702378184340F010002070012000F044F9237803F0EF03237010BD00BF2051004038B505460E4C237843F020032370237803F0BF0323700020E5
:400A800000F02EF9237803F0F003237023781D4345F010052570012000F022F9237803F0EF03237038BD00BF2051004070B5354B1A7802F08002D2B21A7033490A7802F0E4
:400AC000F00242F00F020A7001310A7802F0F0020A7001310A7802F0F0020A701A7802F0DF021A701A7842F040021A704FF4CA76002000F0F5F8234D2B7843F010032B7030
:400B0000012000F0EDF8214B1C78E4B22B7803F0EF032B70002000F0E3F804F00804E4B22B7843F010032B70012000F0D9F82B7803F0EF032B7014B90A2000F0D1F8013E0D
:400B40000CB1002ED4D10F4A137803F0BF031370137803F08003DBB213700232137803F0F00313700132137803F0F00343F00F0313700132137803F0F00343F00F031370B8
:400B800070BD00BF20510040225100402151004010B50446FFF78AFF2009FFF765FF04F00F00FFF761FF10BD38B505460078012404E0FFF7EDFF285D0134E4B20028F8D120
:400BC00038BD00BF10B50446FFF770FF2009FFF731FF04F00F00FFF72DFF10BD08B5282000F068F80320FFF725FF052000F062F80320FFF71FFF0F2000F05CF80320FFF7C8
:400C000019FF012000F056F80220FFF713FF052000F050F80620FFF7D5FF0E20FFF7D2FF2C20FFF7CFFF0820FFF7CCFF0120FFF7C9FF0C20FFF7C6FF0320FFF7C3FF052012
:400C400000F038F808BD00BF08B50C20FFF7BAFF0122014B1A7008BD1882FF1F08B5054B5B7823B9FFF7BAFF0122024B5A70FFF7EBFF08BD1882FF1F08B5032819D8DFE820
:400C800000F002070D1381F08000FFF79BFF08BDA1F14000C0B2FFF795FF08BDA1F16C00C0B2FFF78FFF08BDA1F12C00C0B2FFF789FF08BD10B5044605E0084B186800F05F
:400CC00033FCA4F50044B4F5004FF6D8034B586800FB04F000F028FC10BD00BF1481FF1F08B5034B1B7A00FB03F000F01DFC08BD1481FF1F704700BF014B1B68586470470B
:400D000008ED00E04001C0B2014B1870704700BF01E400E00222014B1A60704700E100E00222014B1A60704780E100E008B5FFF7F7FF0448FFF7E0FF0720FFF7E3FFFFF719
:400D4000E9FF08BDF50C00007222074B1A70202201331A700622623B1A70472210331A7000224E331A7070478D64004010B500F0E3FB04460A4A137843F0200313700132F3
:400D8000137843F010031370043A137843F01003137000F033F8204600F0D2FB10BD00BF9D64004008B5054B1B7823B9FFF7CCFF0122024B1A70FFF7D9FF08BD1A82FF1FBE
:400DC000034B1B7813F0040FFAD1024B187070476A6400404D64004038B5074B1B782BB938BDFFF7EDFF0134A4B201E005460024285D0028F5D138BD1A82FF1F054A137842
:400E000043F0100313701032137843F010031370704700BFA2430040704700BF014B1B681865704708ED00E04001C0B2014B1870704700BF04E400E01022014B1A607047F6
:400E400000E100E01022014B1A60704780E100E008B5FFF7F7FF0448FFF7E0FF0720FFF7E3FFFFF7E9FF08BD190E0000054A137843F0040313701032137843F0040313700D
:400E8000704700BFA8430040054B1A7802F0FD021A701A7800F0020010431870704700BF28580040014B1870704700BF825B0040064B1B78C3F3810303F19243063393F88D
:400EC0002831DBB2024A1370704700BF285800400A46004008B5064B1A7802F0F3021A701A7800F00C0010431870FFF7E1FF08BD2858004008B50020044B18700133187032
:400F0000FFF7E8FF0220FFF7BFFF08BD2858004008B5074B1B7823B9FFF7ECFF0122044B1A70FFF7A3FF6420FFF7BCFF08BD00BF1C82FF1F054A137843F00103137010323B
:400F4000137843F001031370704700BFA74300400F490B7803F0FC0200F0030313430B7001280AD10B4B1B78DBB20B4A13700B4B1B78DBB2013213707047094B1B78DBB250
:400F8000054A1370074B1B78DBB201321370704740580040100100493046004014010049AD010049B501004908B50120FFF7D0FF0B4B1A7802F0DF021A701A7802F0FB02DB
:400FC0001A701A7842F008021A7003F287231A7802F0E7021A701A7842F010021A7008BD4058004008B5054B1B7823B9FFF7DCFF0122024B1A70FFF79DFF08BD1D82FF1F21
:40100000024A137843F080031370704770640040014B1870704700BF83640040014B1878704700BF63640040014B1860704700BF20640040014B1868704700BF40640040E7
:40104000014B1860704700BF0064004000F00300044B1A7802F0FC021A701A7810431870704700BF7064004008B501E0FFF7E2FFFFF7D4FF10F0080FF8D108BD08B54FF06E
:40108000FF30FFF7D1FF4FF0FF30FFF7D9FF00F053FA084A137843F01003137000F050FA0020FFF7D3FFFFF7DFFF0220FFF7B0FF08BD00BF9364004008B5054B1B7823B928
:4010C000FFF7DCFF0122024B1A70FFF799FF08BD1E82FF1F704700BF014B1B681864704708ED00E04001C0B2014B1870704700BF00E400E00122014B1A60704700E100E0A5
:401100000122014B1A60704780E100E008B5FFF7F7FF0448FFF7E0FF0720FFF7E3FFFFF7E9FF08BDD5100000024A137843F080031370704779650040014B1880704700BF3E
:4011400010680040014B1880704700BF90680040014B1880704700BF50680040014B1870704700BF89640040014B1878704700BF69640040014B188880B27047B0680040D0
:4011800008B501E0FFF7F6FFFFF7EEFF10F0100FF8D108BD10B5154A137803F0C00343F009031370E13A137843F001031370104C237843F00103237044F62060FFF7BCFF63
:4011C00044F62060FFF7BEFF40F2CD50FFF7C0FF0020FFF7C3FF00F0AFF9237843F01003237000F0ADF9FFF7CBFF10BD796500409964004008B5054B1B7823B9FFF7CAFFE1
:401200000122024B1A70FFF78FFF08BD1F82FF1F704700BF014B1B689864704708ED00E04001C0B2014B1870704700BF02E400E00422014B1A60704700E100E00422014B46
:401240001A60704780E100E008B5FFF7F7FF0448FFF7E0FF0720FFF7E3FFFFF7E9FF08BD11120000024A137843F080031370704776650040014B1870704700BF8765004015
:40128000014B1878704700BF67650040014B1860704700BF24650040014B1868704700BF44650040014B1860704700BF0465004000F00300044B1A7802F0FC021A701A78DF
:4012C00010431870704700BF7665004008B501E0FFF7E2FFFFF7D4FF10F0080FF8D108BD08B54FF0FF30FFF7D1FF4FF0FF30FFF7D9FF00F021F9084A137843F010031370C2
:4013000000F01EF90020FFF7D3FFFFF7DFFF0220FFF7B0FF08BD00BF9765004008B5054B1B7823B9FFF7DCFF0122024B1A70FFF799FF08BD2082FF1F024A137843F080037C
:401340001370704778650040014B1880704700BF14680040014B1880704700BF94680040014B1880704700BF54680040014B1870704700BF88640040014B1878704700BF4C
:4013800068640040014B188880B27047B468004008B501E0FFF7F6FFFFF7EEFF10F0100FF8D108BD08B5164A137803F0C00343F009031370DE3A137843F001031370013227
:4013C000137843F00103137040F6FF70FFF7BCFF40F6FF70FFF7BEFF40F2DA20FFF7C0FF0020FFF7C3FF00F0A7F8064A137843F01003137000F0A4F8FFF7CAFF08BD00BF3F
:40140000786500409864004008B5054B1B7823B9FFF7C8FF0122024B1A70FFF78DFF08BD2182FF1F024A137843F08003137070477A650040014B1870704700BF8B650040B8
:40144000014B1878704700BF6B650040014B1860704700BF28650040014B1868704700BF48650040014B1860704700BF0865004008B501E0FFF7F0FFFFF7E2FF10F0080F7C
:40148000F8D108BD08B51320FFF7E0FF1320FFF7E9FF00F051F8064A137843F01003137000F04EF8FFF7E4FF0120FFF7C3FF08BD9B65004008B5054B1B7823B9FFF7E2FFAB
:4014C0000122024B1A70FFF7ADFF08BD2282FF1F704700BF014B1B68D864704708ED00E04001C0B2014B1870704700BF03E400E00822014B1A60704700E100E00822014B1A
:401500001A60704780E100E008B5FFF7F7FF0448FFF7E0FF0720FFF7E3FFFFF7E9FF08BDD1140000000000000230800803D000BF01380046FCD17047EFF3108072B6704748
:4015400080F31088704700BF81F0004102E000BF83F0004330B54FEA41044FEA430594EA050F08BF90EA020F1FBF54EA000C55EA020C7FEA645C7FEA655C00F0E2804FEAC6
:401580005454D4EB5555B8BF6D420CDD2C4480EA020281EA030382EA000083EA010180EA020281EA0303362D88BF30BD11F0004F4FEA01314FF4801C4CEA113102D0404205
:4015C00061EB410113F0004F4FEA03334CEA133302D0524263EB430394EA050F00F0A780A4F10104D5F1200E0DDB02FA0EFC22FA05F2801841F1000103FA0EF2801843FA51
:4016000005F359410EE0A5F120050EF1200E012A03FA0EFC28BF4CF0020C43FA05F3C01851EBE37101F0004507D54FF0000EDCF1000C7EEB00006EEB0101B1F5801F1BD313
:40164000B1F5001F0CD349085FEA30004FEA3C0C04F101044FEA445212F5800F80F09A80BCF1004F08BF5FEA500C50F1000041EB045141EA050130BD5FEA4C0C404141EBFC
:40168000010111F4801FA4F10104E9D191F0000F04BF01460020B1FA81F308BF2033A3F10B03B3F120020CDA0C3208DD02F1140CC2F10C0201FA0CF021FA02F10CE002F114
:4016C0001402D8BFC2F1200C01FA02F120FA0CFCDCBF41EA0C019040E41AA2BF01EB0451294330BD6FEA04041F3C1CDA0C340EDC04F11404C4F1200220FA04F001FA02F3F4
:4017000040EA030021FA04F345EA030130BDC4F10C04C4F1200220FA02F001FA04F340EA0300294630BD21FA04F0294630BD94F0000F83F4801306BF81F480110134013DE1
:401740004EE77FEA645C18BF7FEA655C29D094EA050F08BF90EA020F05D054EA000C04BF1946104630BD91EA030F1EBF0021002030BD5FEA545C05D14000494128BF41F060
:40178000004130BD14F580043CBF01F5801130BD01F0004545F0FE4141F470014FF0000030BD7FEA645C1ABF194610467FEA655C1CBF0B46024650EA013406BF52EA033586
:4017C00091EA030F41F4002130BD00BF90F0000F04BF0021704730B54FF4806404F132044FF000054FF0000150E700BF90F0000F04BF0021704730B54FF4806404F132041E
:4018000010F0004548BF40424FF000013EE700BF42004FEAE2014FEA31014FEA02701FBF12F07F4393F07F4F81F06051704792F0000F14BF93F07F4F704730B54FF460740E
:4018400001F0004521F0004120E700BF50EA010208BF704730B54FF000050AE050EA010208BF704730B511F0004502D5404261EB41014FF4806404F132045FEA915C3FF4C4
:40188000DCAE4FF003025FEADC0C18BF03325FEADC0C18BF033202EBDC02C2F1200300FA03FC20FA02F001FA03FE40EA0E0021FA02F11444C1E600BF70B54FF0FF0C4CF48B
:4018C000E06C1CEA11541DBF1CEA135594EA0C0F95EA0C0F00F0DEF82C4481EA030621EA4C5123EA4C5350EA013518BF52EA033541F4801143F4801338D0A0FB02CE4FF0B9
:401900000005E1FB02E506F00042E0FB03E54FF00006E1FB03569CF0000F18BF4EF0010EA4F1FF04B6F5007F64F5407404D25FEA4E0E6D4146EB060642EAC62141EA555192
:401940004FEAC52040EA5E504FEACE2EB4F1FD0C88BFBCF5E06F1ED8BEF1004F08BF5FEA500E50F1000041EB045170BD06F0004646EA010140EA020081EA0301B4EB5C04EE
:40198000C2BFD4EB0C0541EA045170BD41F480114FF0000E013C00F3AB8014F1360FDEBF002001F0004170BDC4F10004203C35DA0C341BDC04F11404C4F1200500FA05F321
:4019C00020FA04F001FA05F240EA020001F0004221F0004110EBD37021FA04F642EB06015EEA430E08BF20EAD37070BDC4F10C04C4F1200500FA04F320FA05F001FA04F245
:401A000040EA020001F0004110EBD37041F100015EEA430E08BF20EAD37070BDC4F1200500FA05F24EEA020E20FA04F301FA05F243EA020321FA04F001F0004121FA04F263
:401A400020EA020000EBD3705EEA430E08BF20EAD37070BD94F0000F0FD101F00046400041EB010111F4801F08BF013CF7D041EA060195F0000F18BF704703F000465200EC
:401A800043EB030313F4801F08BF013DF7D043EA0603704794EA0C0F0CEA135518BF95EA0C0F0CD050EA410618BF52EA4306D1D181EA030101F000414FF0000070BD50EA89
:401AC000410606BF1046194652EA430619D094EA0C0F02D150EA013613D195EA0C0F05D152EA03361CBF104619460AD181EA030101F0004141F0FE4141F470014FF00000B0
:401B000070BD41F0FE4141F4780170BD70B54FF0FF0C4CF4E06C1CEA11541DBF1CEA135594EA0C0F95EA0C0F00F0A7F8A4EB050481EA030E52EA03354FEA013100F08880D0
:401B40004FEA03334FF0805545EA131343EA12634FEA022245EA111545EA10654FEA00260EF000419D4208BF964244F1FD0404F5407402D25B084FEA3202B61A65EB0305CA
:401B80005B084FEA32024FF480104FF4002CB6EB020E75EB030E22BFB61A754640EA0C005B084FEA3202B6EB020E75EB030E22BFB61A754640EA5C005B084FEA3202B6EBFA
:401BC000020E75EB030E22BFB61A754640EA9C005B084FEA3202B6EB020E75EB030E22BFB61A754640EADC0055EA060E18D04FEA051545EA16754FEA06164FEAC30343EA05
:401C000052734FEAC2025FEA1C1CC0D111F4801F0BD141EA00014FF000004FF0004CB6E711F4801F04BF01430020B4F1FD0C88BFBCF5E06F3FF6AFAEB5EB030C04BFB6EB58
:401C4000020C5FEA500C50F1000041EB045170BD0EF0004E4EEA113114EB5C04C2BFD4EB0C0541EA045170BD41F480114FF0000E013C90E645EA060E8DE60CEA135594EA47
:401C80000C0F08BF95EA0C0F3FF43BAF94EA0C0F0AD150EA01347FF434AF95EA0C0F7FF425AF104619462CE795EA0C0F06D152EA03353FF4FDAE1046194622E750EA4106A7
:401CC00018BF52EA43067FF4C5AE50EA41047FF40DAF52EA43057FF4EBAE12E74FF0FF3C06E000BF4FF0010C02E000BF4FF0010C4DF804CD4FEA410C7FEA6C5C4FEA430CBE
:401D000018BF7FEA6C5C1BD001B050EA410C0CBF52EA430C91EA030F02BF90EA020F0020704710F1000F91EA030F58BF994208BF90422CBFD8176FEAE37040F001007047DC
:401D40004FEA410C7FEA6C5C02D150EA013C07D14FEA430C7FEA6C5CD6D152EA033CD3D05DF8040B704700BF8446104662468C461946634600E000BF01B5FFF7B7FF002867
:401D800048BF10F1000F01BD4DF808EDFFF7F4FF0CBF012000205DF808FB00BF4DF808EDFFF7EAFF34BF012000205DF808FB00BF4DF808EDFFF7E0FF94BF012000205DF8AC
:401DC00008FB00BF4DF808EDFFF7CEFF94BF012000205DF808FB00BF4DF808EDFFF7C4FF34BF012000205DF808FB00BF4FEA410212F5001215D211D56FF47873B3EB625239
:401E000012D94FEAC12343F0004343EA505311F0004F23FA02F018BF404270474FF00000704750EA013005D111F0004008BF6FF0004070474FF00000704700BF4A0011D26E
:401E400012F5001211D20DD56FF47873B3EB62520ED44FEAC12343F0004343EA505323FA02F070474FF00000704750EA013002D14FF0FF3070474FF00000704753B94AB97B
:401E8000002908BF00281CBF4FF0FF314FF0FF3000F082B9ADF1080C6DE904CE00F006F8DDF804E0DDE9022304B070472DE9F04F8C460C460546099E002B4FD18A42174671
:401EC0006BD9B2FA82FEBEF1000F0BD0CEF1200520FA05F501FA0EF345EA030C02FA0EF700FA0EF5390CBCFBF1F0BAB201FB10C300FB02F84FEA154C4CEA0344A04509D9BE
:401F0000E41900F1FF3380F02881A04540F2258102383C44C8EB0404B4FBF1F301FB134C03FB02F2ACB244EA0C418A4209D9C91903F1FF3480F00F818A4240F20C81023BFE
:401F400039448A1A43EA00400021002E63D022FA0EF2002386E80C00BDE8F08F8B4207D9002E56D0002186E811000846BDE8F08FB3FA83F1002940F09380A34202D3824256
:401F800000F2FE80851A64EB03039C460120002E41D086E82010BDE8F08F12B90127B7FBF2F7B7FA87FEBEF1000F36D1E41B4FEA17481FFA87F90121B4FBF8F308FB1344EA
:401FC00009FB03F24FEA154C4CEA0444A24207D9E41903F1FF3002D2A24200F2D3800346A41AB4FBF8F008FB104809FB00F9ACB244EA0842914507D9D21900F1FF3402D28A
:40200000914500F2BA802046C9EB020240EA03409BE731463046BDE8F08F07FA0EF7CEF1200C24FA0CF34FEA1748B3FBF8FA1FFA87F908FB1A3520FA0CFC04FA0EF40AFB28
:4020400009FB4CEA040C4FEA1C4242EA05439B4500FA0EF50AD9DB190AF1FF3280F08B809B4540F28880AAF1020A3B44CBEB0303B3FBF8F008FB103300FB09F41FFA8CFC3F
:402080004CEA03439C4207D9DB1900F1FF326ED29C426CD902383B441C1B40EA0A418BE7C1F1200E8B4022FA0EFC4CEA030C24FA0EF74FEA1C49B7FBF9FA1FFA8CF309FB7E
:4020C0001A7720FA0EF88C400AFB03F548EA04044FEA144848EA0747BD4202FA01F200FA01FB09D917EB0C070AF1FF3041D2BD423FD9AAF1020A67447F1BB7FBF9F509FB58
:40210000157705FB03F3A4B244EA0747BB4208D917EB0C0705F1FF3027D2BB4225D9023D674445EA0A40A0FB0289FF1A4F4545464C4614D329D066B3BBEB050367EB0407E8
:4021400007FA0EFECB40CF404EEA030386E888000021BDE8F08F2346F3E61846DAE6B8EB020569EB0C040138E5E70546D9E7104692E78246C0E7924678E702383A4443E7EA
:40218000084604E7023B3C442AE7C345E7D33C46D1E73146BDE8F08F704700BF014B1868704700BF8481FF1F0E4B70B51E460E4C0025E41AA410A54204D056F82530984756
:4021C0000135F8E702F0C6FA084B094C1E46E41AA4100025A54204D056F8253098470135F8E770BD6047000060470000604700006847000010B5431E0A44914204D011F8EE
:40220000014B03F8014FF8E710BD03460244934202D003F8011BFAE770472DE9F04788B0149F002B1E461299B8BF03F1004327F02007B6BF1E4600232D23462F1446109D50
:40224000DDF84CA00B7003D0452F03D1013501E0032300E0022307AA049206AA03928DE828042246334600F073FE472F804602D1119BDB0728D5462F08EB050911D198F8D4
:402280000030302B0AD10022002320463146FFF77BFD18B9C5F10105CAF80050DAF8003099440022002320463146FFF76DFD08B9302202E0CDF81C9006E0079B994503D980
:4022C000591C07911A70F8E74046079B159AC8EB0303136008B0BDE8F087034673B50029B8BF494203F8022BB4BF2D222B22092942701ADD0DF1070216460A2591FBF5F4DC
:4023000005FB1411092C01F1300102F8011D2146F4DC3031541E02F8011CB4421A460AD214F8012B03F8012BF7E71A463024214402F8024B5970101A02B070BD2DE9F04FF1
:4023400091B00C46DDF8688016461F46054601F097FB03681846099300F066FD00230E93D8F800300A90073323F0070303F1080294F81890D4F800B0C8F80020D3E90023A4
:40238000C4E91223D4F84CA0D4F848802AF000430B934FF0FF32A74B40460B9902F0C4F8A0B94FF0FF32A34B40460B99FFF700FD60B90022002340465146FFF7EFFC10B1C9
:4023C0002D2384F843309C4B9C4A0AE0424653464046514602F0A8F8002800F09281984B984AB9F1470F8CBF90469846032323612BF0040323604FF0000A3DE0B9F1670F53
:4024000000F08A81B9F1470F00F0868123600193636800210DF13302059002920093424653460691CDF81090CDF80CE02846FFF7F4FE09F0DF03472B804600F08481B9F1E2
:40244000650F0D9900F28D8101394A4604F150000D91FFF742FF0E9A82468318012A236100F37C812268D10700F178819DF8333013B12D2384F84330009733460FAA21463D
:40248000284600F09FF9013002D14FF0FF3096E123685A0501D4236965E0B9F1650F40F2D580D4E9120100220023FFF76DFC78B30123654A31462846B8470130E5D00E9B23
:4024C0000D9A9A420BDB2368D80708D423689B0740F111814FF0000804F1190906E10A9B099A31462846B8470130CED04FF0000804F11A090E9B013B9845E7DA01234A4667
:4025000031462846B8470130BFD008F10108F1E70D9B002B29DC01234B4A31462846B8470130B2D00D9B23B90E9B13B92368D907CCD50A9B099A31462846B8470130A4D01F
:402540004FF0000904F11A0A0D9B5B42994509DA0123524631462846B847013095D009F10109F1E70E9B4246A7E00E9AA36D9A42A8BF1A46002A914606DC4FF0000A29EA90
:40258000E97904F11A0B11E01346314642462846B8470130F1D178E701235A4631462846B84701303FF471AF0AF1010AA36DC9EB03029245F0DB08EB03090D9A0E9B9A42CF
:4025C0000FDB2368DA070CD40E9B0D9A9844C9EB08089B1A9845A8BF9846B8F1000F08DC0FE00A9B099A31462846B8470130EBD14BE743464A4631462846B84701303FF4A7
:4026000044AF4FF0000928EAE87804F11A0A09E00123524631462846B84701303FF435AF09F101090D9A0E9B9B1AC8EB03039945EEDB4BE7FFFFEF7FF4450000F845000086
:40264000FC45000000460000044600000E9A012A01DCDB0738D50123424631462846B84701303FF412AF0A9B099A31462846B84701303FF40AAFD4E9120100220023FFF7E1
:4026800083FB20B14FF0000804F11A090EE00E9B08F10102013B19E001234A4631462846B84701303FF4F1AE08F101080E9B013B9845F1DB534604F1500231462846B847B5
:4026C00001307FF403AFE0E64246012331462846B8470130EED1D8E601234A4631462846B84701303FF4D1AE08F10108E3680F9A9B1A9845F0DBE0680F9B9842B8BF184611
:402700005DE062680EA8531C0DF1340E4BF480637FF474AE062201E012B90122626075E6002106910DF133018DE80C00236005904246CDF81090CDF80CE0029153462846A7
:40274000FFF76BFD80460D9BD81C02DB626893421DDDA9F102095FFA89F970E60133236184E6B9F1660F14D10029636807DD216113B92268D2071DD501330B4419E013B964
:402780002268D00701D5023313E0012311E04FF067090D9B0E9A934205DB22682361D10708D5013305E0002BD4BFC3F102030123134423610D9B4FF0000AA36556E611B0A9
:4027C000BDE8F08F2DE9F04791461F460A698B6806469342B8BF1346C9F8003091F843200C46DDF8208012B10133C9F800302368990642BFD9F800300233C9F8003025686A
:4028000015F0060510D104F1190A07E00123524639463046C04701301AD00135E368D9F800209B1A9D42F1DB94F843302268003318BF012392060FD5E118302081F84300CB
:402840005A1C94F845102244023382F8431003E04FF0FF30BDE8F08704F1430239463046C0470130F4D02268D9F80050E36802F00602042A08BF5D1B2269A3680CBF25EA34
:40288000E57500259342C4BF9B1AED184FF000091A344D4509D00123224639463046C0470130D5D009F10109F3E70020BDE8F0872DE9F04317460A7E85B06E2A98460646E9
:4028C0000C460C9B01F1430E00F0AE8011D8632A22D009D8002A00F0BB80582A40F0CA8081F84520834955E0642A1ED0692A1CD0C0E0732A00F0B08009D86F2A2ED0702A9B
:4029000040F0B8800A6842F020020A603EE0752A24D0782A3AD0ADE01A6801F14205111D1960136884F84230A8E021681A6811F0800F02D0111D196008E011F0400F02F183
:402940000401196002D0B2F9003000E01368002B3CDA2D225B4284F8432037E021681A6811F0800F02D0111D196007E011F0400F02F10401196001D0138800E01368227E8B
:402980005C496F2A14BF0A2208221BE078225A4984F845202268186812F0800F00F104051D6003D1550601D5038800E00368D00744BF42F0200222601BB9226822F0200268
:4029C00022601022002084F8430001E049490A226568002DA56008DB206820F0040020602BB9002D7DD175460CE0002B79D07546B3FBF2F002FB1033CB5C05F8013D0346F7
:402A00000028F5D1082A0BD12368DA0708D5236962689A42DEBF302305F8013C05F1FF35C5EB0E0323612EE008681A6810F0800F496903D0101D1860136808E010F0400F1B
:402A400002F104001860136801D0198000E0196000232361754616E01A68111D1960156800216268284601F017F808B1401B6060636804E004F1420584F84220012323610D
:402A8000002384F84330CDF800803B4603AA21463046FFF797FE013002D14FF0FF3026E023692A4639463046C0470130F5D023689B0710D5002504F1190907E001234A46DA
:402AC00039463046C0470130E7D00135E368039A9B1A9D42F2DBE068039B9842B8BF184605E00B7804F1420584F842308AE705B0BDE8F0830646000017460000012B30B554
:402B00000ADC920803680C68013A002A40F8044B41F8043BF6DC30BD03460D781C7803F8015B01F8014BD41A0444002CF5DC30BDF8B50F46144606461D469847002821467C
:402B400038460BDAA847002801DA3846F8BD21463046A847002809DB3046F8BDA8470028F3DC21463046A8470028F5DB2046F8BD2DE9F04F06468B46144685B00093B207B8
:402B800007D1A30705D1B4F1040818BF4FF0010801E04FF002083319BBF1060F019326D81F4604FB0B65AF4280F01681B9464E4501D32744F7E7C4EB090A49465046009B27
:402BC00098470028F5DDB8F1000F08D1D9F80030DAF80020C9F80020CAF8003005E04346224651464846FFF789FFD146DFE74FEA5B050BF1FF33BBF1070F04FB05650193C9
:402C000026D0BBF1280F04FB036919D94FEADB076743F119CA19009B3046FFF789FFEA192946009B8246E81BFFF782FF0546A9EB47004A46009BC119FFF77AFF814600E08D
:402C4000B2462946009B4A465046FFF771FF0546B8F1000F04D133682A6832602B6005E04346224629463046FFF748FF019B371904FB0365A9463B19029301970023029A2A
:402C8000C4EB020A554555D303933146009B504698470028039B24DC15D1B8F1000F08D1019BDAF800201B6801990A60CAF8003005E04346224651460198FFF71FFF019B80
:402CC000234401930123029A22440292D7E703933146009B284698470028039B18DB03D02D1B5545F3D225E0B8F1000F06D12B68D9F800202A60C9F8003005E043462246D0
:402D000049462846FFF7FAFEC4EB09090123E7E7B8F1000F06D1DAF800302A68CAF800202B6005E04346224629465046FFF7E6FE2D1BC7E704FB0BFB63B3019B06EB0B0700
:402D40009A1BC3EB0A0B5A45A8BF5A462AB14346C2EB0A013046FFF7D1FEC9EB0702C5EB0905121BAA4228BF2A4622B14346B91A5046FFF7C3FE5C4506D2009B2246BBFB45
:402D8000F4F13046FFF7F4FEAC4225D27E1BB5FBF4FBF4E6B3445F451ED23D46AE4201D32744F8E7C4EB050929464846009B98470028F5DDB8F1000F06D12B68D9F800207C
:402DC0002A60C9F8003005E04346224649462846FFF794FE4D46E1E705B0BDE8F08F00000EB400B54FF402719CB0ADF814106FF00041049107914FF6FF711DAB0290069015
:402E0000084853F8042BADF81610006802A9019301F038FA029B00221A701CB05DF804EB03B070478481FF1F034613F8012B002AFBD1181A013870472DE9F74F03690C6978
:402E400080469C427FDC013C01F114074FEA840E00F1140606EB0E0357F82450019356F824300135B3FBF5F507EB0E09C5B34FF0000A3846B446D34650F8043B9AB205FB3C
:402E800002A21B0C4FEA124A05FB03A392B2C2EB0B0BBCF800204FEA134A5A441FFA83FBDCF800308145CBEB134303EB224392B242EA03424FEA234B4CF8042BDCD256F872
:402EC0000E306BB9019B043B9E421A4602D3C8F8104005E01268043B002AF8D1013CF3E7404600F0F4FF00282BDB304601354FF0000E57F8042B036891B2C1EB0E0E120C26
:402F000099B27144C2EB134303EB214389B24FEA234EB94541EA034340F8043BE9D256F8242006EB840362B9043B9E421A4602D3C8F8104005E01268043B002AF8D1013C5F
:402F4000F3E7284600E0002003B0BDE8F08F00002DE9F04F456A95B08246219CCDE9022345B9102000F090FDCAF82400456085600560C560DAF82430196859B15A6801234D
:402F800093404A608B60504600F0C9FDDAF8243000221A60039BA04A002BBDBF01232360039B0023BCBF23F000430393DDF80C80A8BF236028F000431B0D1B0593421DD1EC
:402FC00042F20F73209A1360029B43B9934A944BC8F31300002814BF1846104600E09048229B002B00F04685C37813B100F1080300E0C31C229A136000F03CBDDDE90245E2
:403000000022002320462946FEF7BEFE074658B1209A01231360229B002B00F01E8581481860013800F026BD12AB019313AB009322462B46504600F0C5FFC8F30A560490E2
:4030400056B1C5F3130343F07F51204641F44011A6F2FF3611971DE0139B129E1E4406F23243202B0ADD029A06F21240C3F1400322FA00F008FA03F3184304E0C3F12000C7
:40308000029B03FA00F0FEF7A1FB0123A1F1F871013E11930022644BFEF75AFA58A3D3E90023FEF709FC58A3D3E90023FEF752FA044630460D46FEF799FB55A3D3E9002377
:4030C000FEF7FAFB02460B4620462946FEF742FA04460D46FEF78AFE00228346002320462946FEF75BFE58B15846FEF77FFB02460B4620462946FEF747FE08B90BF1FF3B47
:40310000BBF1160F0DD8DDE90223484901EBCB01D1E90001FEF760FE30B10BF1FF3B002300E00123109300E01090129B9E1B731E079343BFC3F10008002307934FF00008E3
:40314000BBF1000F06DB079BCDF82CB05B440793002705E00023CBEB0808CBF100070B931E9B092B28D8052BC4BF043B1E931E9BC8BF0025A3F10203D8BF0125032B20D870
:40318000DFE803F0060E0204012302E0012308E000230A931F9B002B1DDD9946059321E000230A931F9B0BEB030909F10103012B0593B8BF012315E0012500231E930A95AB
:4031C00001E001230A934FF0FF390022CDF8149012231F9206E04FF001094B46CDF81490CDF87C90DAF8244000226260042101F114029A421CD86268490001326260F6E74F
:4032000061436F63A787D23FB3C8608B288AC63FFB799F501344D33F0000F07F2846000031460000054600000000F83F404600006168504600F03EFCDAF8243020601B68E2
:403240000693059B0E2B00F25B81002D00F05881DDE90234BBF1000FCDE90E3430DD9F4A0BF00F034FEA2B1502EBC303E80618CBCDE908340CD5DDE90E01994B05F00F05D4
:40328000D3E90823FEF742FC0324CDE9020100E00224934E6DB1E90708D5DDE90801D6E90023FEF709FBCDE9080101346D100836F0E7DDE90823DDE90201FEF727FC20E040
:4032C000CBF1000505B3DDE90E01844B05F00F0203EBC203D3E90023FEF7EEFACDE902017F4E2D110023022455B1EA0705D5D6E90023FEF7E1FA013401236D100836F3E7BE
:403300001BB1CDE9020100E00224109BE3B1DDE902560022734B28463146FEF73FFD98B1059B8BB1B9F1000F40F3E6800BF1FF330893314600226C4B2846FEF7BDFA0134D0
:40334000CDE902014E4602E0059ECDF820B02046FEF74CFADDE90223FEF7AEFA634B0022FEF7F8F8A1F1507304460C931D46D6B9DDE9020100225E4BFEF7EAF822460C9B5E
:40338000CDE90201FEF728FD002840F03F820C99224601F10043DDE90201FEF7FFFC002840F02B82A8E00A9A4C4B711E002A49D003EBC103D3E9002300204E49FEF7A6FBAE
:4033C00022462B46FEF7C4F8CDE90C01069CDDE90201FEF70BFD0546FEF708FA02460B46DDE90201FEF7B4F8DDE90C23303504F8015BCDE90201FEF7D1FC002840F01D83AE
:40340000DDE9022300203749FEF7A2F8DDE90C23FEF7C4FC002840F0D180069BE31AB3426ADADDE90C0100222F4BFEF745FA0022CDE90C01DDE902012B4BFEF73DFACDE99F
:403440000201C4E703EBC1012246D1E900012B46FEF732FA069BCDE90C011D469C19DDE90201FEF7C3FC0646FEF7C0F902460B46DDE90201FEF76CF8303605F8016BAC42CE
:40348000CDE902014FF0000222D11A4BDDE90C01FEF760F802460B46DDE90201FEF79CFC002840F08B80DDE90C2300201149FEF74FF802460B46DDE90201FEF76FFCD8B152
:4034C00014F8013C621E302B40F0B7821446F7E7054BFEF7F1F9CDE90201C0E740460000184700000000F03F0000244000001C40000014400000E03FDDE90E34CDE902343D
:40350000139B002B7CDBBBF10E0F79DCAB4B03EBCB03D3E900671F9B002B14DA059B002B11DC40F06C810022A54B30463946FEF7C3F9DDE90223FEF745FC059D2E460028A9
:4035400040F05F8165E1069CDDE9028932463B4640464946FEF7DAFAFEF748FC0546FEF745F932463B46FEF7A7F90B46024649464046FDF7EDFF05F1300E069B04F801EB9B
:40358000C3EB040E059B73452DD102460B46FDF7E1FF8046894602460B4630463946FEF7FDFB78B942464B4630463946FEF7ECFB002800F04482EB0704D440E2DDF820B0EE
:4035C00000E01C4614F8012C631E392A07D1069A9A42F6D1069930220BF1010B0A701A7801321A702BE20022764BFEF765F90022002380468946FEF7C7FB0028A6D01EE21D
:403600000A9A002A2BD01E9A012A0ADC119A12B103F2334302E0129BC3F136033D46444613E0059B5D1EAF42BFBF0B9BEA1B9B180B93059BB6BF2F467D1B0025002BA7BF45
:403640004446059BC3EB08040023079A01211A4450469844079200F001FB064602E03D4644460A9E5CB1079B002B08DDA342A8BF2346079AC3EB0808E41AD31A0793002FC1
:403680001DDD0A9BABB18DB131462A46504600F07FFB049A01460646504600F0E8FA04990890504600F03BFA089B04937A1B06D000E03A460499504600F06AFB049001211E
:4036C000504600F0CBFA0B9B05465BB31A460146504600F05DFB1E9B0546012B18DC029B83B9039BC3F3130373B9039B23F000473F0D3F054FB1079B08F10108013307936E
:40370000012702E0002700E0029F0B9B73B100E000272B6905EB8303186900F052FAC0F1200004E01E9B012BD9DD0B9F0120079B184410F01F0008D0C0F12003042B02DD4D
:40374000C0F11C0002E006D018461C30079B8044034404440793B8F1000F05DD42460499504600F063FB0490079B002B05DD29461A46504600F05AFB0546109B23B32946C0
:40378000049800F0A4FB00281EDA00230A220499504600F0DBF90A9B0BF1FF3B0490002B00F05F81314600230A22504600F0CEF9B9F1000F06463FDC3BE000BF404600007B
:4037C0000000144000002440059B002B2BDC1E9B022B28DDDDF81490B9F1000F11D129464B460522504600F0B1F901460546049800F06DFB00280CDC03E0354600E00025F0
:403800002E461F9B069C6FEA030B09E03546DDF820B0069B069A5C1C312313700BF1010B05960026F7E00A9BDDF8149023B9069CB2E01E9B022BCFDC002C05DD314622466C
:40384000504600F0F3FA06469FB17168504600F031F90446326906F10C01023292000C30FEF7C8FC01222146504600F0DFFA059000E00596029B069F03F0010307932946D1
:403880000498FFF7D9FA3146044600F13008049800F01DFB059A02902946504600F033FBC36802463BB901460A90049800F00FFB0A9A034600E00123114650460A9300F078
:4038C0002EF90A9B53B91E9A42B9079A32B9B8F1390F2AD0029B002B1CDC1DE0029A002A04DB1BD11E9ACAB9079ABAB9002B13DD01220499504600F099FA2946049000F042
:40390000E6FA002803DC07D118F0010F04D0B8F1390F0AD004F131087C1C0CE0002B07F101040BDDB8F1390F03D139233B70013756E008F1010887F800806CE0069B2746BA
:40394000E31A4B4504F8018C3BD000230A220499504600F0FBF8059B04909E424FF00A024FF000033146504604D100F0EFF80646059084E700F0EAF8002306460A22059910
:40398000504600F0E3F8059079E700230A220499504600F0DBF8049029460498FFF74CFA069B00F1300804F8018BE31A4B45ECDB069B0596B9F1010FACBF4B4401331F4662
:4039C000002601220499504600F030FA2946049000F07DFA002803DC15D118F0010F12D03C4614F8013C621E392B09D1069B934204D10BF1010B3123069A02E01446F0E7FD
:403A00000133137007E03C4614F8013C621E302B01D11446F8E72946504600F080F8059B6BB12EB19E4203D03146504600F077F80599504600F073F801E0DDF820B004995E
:403A4000504600F06CF80023209A23700BF101031360229B1BB11C6001E008480AE0069808E0B9F1000F3FF7E2AE1E9B022B7FF7DEAEB1E615B0BDE8F08F00BF04460000E3
:403A8000004870478881FF1F024B0146186800F041BB00BF8481FF1F10B5C9B202449042034605D01C7801308C42F8D1184610BD002010BD70B5456A04460E463DB910207C
:403AC000FFF7E2FF6062456085600560C560656AEB6843B1636ADB6853F8260078B1026843F8262017E021220421204600F0B8FA636AE860DB68002BECD1002070BD012158
:403B000001FA06F56A1D9200204600F0A9FA0028F3D04660856000230361C36070BD70B5446A06460D463CB91020FFF7ADFF7062446084600460C4603DB1736A6A68DB6835
:403B400053F82210296043F8225070BD2DE9F04106460C460D691F4601F1140E0023DEF80000013381B202FB0171000C0F0C02FB007089B201EB00419D424FEA10474EF811
:403B8000041BECDCD7B1A3689D4212DB616830460131FFF78FFF8046226904F10C01023292000C30FEF726FB21463046FFF7B7FF444604EB850301355F6125612046BDE84E
:403BC000F081030C1B0413B90004102300E0002310F07F4F04BF0002083310F0704F04BF0001043310F0404F04BF80000233002803DB420003D5581C7047184670472020F1
:403C00007047036813F007020BD0D90722D49A074BBF5B089B08036003604CBF01200220704799B209B91B0C102213F0FF0F04BF1B0A0832190704BF1B090432990704BFF0
:403C40009B080232D90702D45B0805D00132036010467047002070472020704710B50C460121FFF727FF01224461026110BD2DE9F74F14460A69236988469A42BEBF0B4694
:403C8000A0461C46D8F81070D4F81090D8F80830D8F8041007EB09069E42C8BF0131FFF709FF00F114052B4605EB860C0022634502D243F8042BFAE704F1140208F114017D
:403CC00002EB890301EB87070093009B0192934257D9B2F800B0BBF1000F23D08946AE464FF0000859F8044BBEF800A0A3B20BFB03A34FEA144ADEF8004043444FEA144839
:403D00000BFB0A84F24604EB13449BB243EA04434F454FEA14484AF8043B01D9D646E1E7CEF80480019B0432B3F802A0BAF1000F21D02C4689462B684FF00008B9F800E088
:403D4000B4F802B09BB20AFB0EBEA346F04443EA08434BF8043B59F8043BB4F804E01B0C0AFB03E34F4503EB18434FEA134801D95C46E3E763600435A7E75CF8043D13B9DC
:403D8000013E002EF9DC066103B0BDE8F08F00002DE9F843154612F0030206460F4607D0214C013A002354F82220FFF7CFFE0746AD1036D0746A3CB91020FFF765FE7062FE
:403DC000446084600460C460D6F82480D8F808404CB940F271213046FFF740FF04460023C8F8080003604FF00008EB070AD5394622463046FFF73BFF814639463046FFF7C6
:403E00008EFE4F466D100CD0206808B10446ECE7224621463046FFF72AFF2060C0F80080F4E73846BDE8F883084700002DE9F0470C460746914626694FEA621A5644496874
:403E4000A368751CAB4202DA01315B00FAE73846FFF730FE002380461A4600F11401534503DA41F823200133F9E72AEAEA73206901EB830319F01F0904F1140101EB800E58
:403E800014D0C9F1200C002208689A4600FA09F0024343F8042B51F8042B8E4522FA0CF2F2D8CAF8042042B1B51C06E0043B51F8042B8E4543F8042FF9D8013D3846C8F820
:403EC00010502146FFF72BFE4046BDE8F08703690A6910B59B1A11D192001430143183180A4453F8044D52F8041D8C4202D007D3012010BD9842F4D3002010BD184610BDD3
:403F00004FF0FF3010BD2DE9F8430C460746114620461546FFF7DBFF061E08D131463846FFF7C8FD012303614661BDE8F883BCBF23462C4638466168BABF1D4601260026AC
:403F4000FFF7B8FD2B69C660266905F1140904F1140101EB860709EB830800F114054FF0000C51F8042B59F8044B93B29C44A3B2240CC3EB0C03C4EB124202EB23429BB2C2
:403F80004FEA224CC84543EA02428E4645F8042BE7D8BE450ED25EF8041B8AB26244131403EB114392B242EA03424FEA234C45F8042BEEE755F8043D0BB9013EFAE70661C3
:403FC000BDE8F8832DE9F3411C4601219046089E099DFFF76FFDC4F31302C4F30A5407460CB142F480120192B8F1000F19D002A840F8088DFFF705FE009B48B1019AC0F118
:40400000200102FA01F10B43C2407B61019200E07B61019B002B14BF02210121BB61396107E001A8FFF7EDFD019B01217B613961203034B1A4F2334404443460C0F13500B9
:4040400009E0A0F2324007EB810330601869FFF7B8FDC0EB41102860384602B0BDE8F08138B502FB01F4214600F054F8054618B122460021FEF7C9F8284638BD38B50546E7
:40408000002944D051F8043C0C1F002BB8BFE41800F017FA1E4A1368114613B96360146030E0A3420DD92268A018834201BF18685B681218226063600C6023E0A24203D8B1
:4040C00013465A68002AF9D118681918A1420BD12168014458188242196013D110685268014419605A600DE002D90C232B6009E021686018824201BF106852680918216074
:4041000062605C602846BDE8384000F0DBB938BD2882FF1F70B5CD1C25F0030508350C2D38BF0C25002D064601DBA94202D90C23336046E000F0C5F9234B1C681A46214602
:40414000A1B10B685B1B0ED40B2B03D90B60CC18CD501EE08C420BBF63684B681360636018BF0C4615E00C464968E9E7174C23681BB9304600F07AF920602946304600F079
:4041800075F9431C18D0C41C24F00304A0420DD12560304600F096F904F10B00231D20F00700C31A0ED05A42E25070BD211A304600F05CF90130EBD10C233360304600F0FD
:4041C00081F9002070BD00BF2882FF1F2482FF1F2DE9F0478E6882469E420C46914698463ED88A8912F4906F3AD02568096902236F1A656905EB450595FBF3F57B1C434438
:404200009D4238BF1D4653050FD52946FFF782FF064698B13A462169FDF7ECFFA38923F4906343F08003A38113E02A4600F04BF9064670B921695046FFF720FF0C23CAF863
:404240000030A3894FF0FF3043F04003A381BDE8F08726613E44266046466561ED1BA560464528BF464649463246206800F00EF9A36800209B1BA36023681E442660BDE850
:40428000F08700002DE9F04F9DB003938B8980461C060D4616460DD50B695BB94021FFF739FF2860286118B90C23C8F80030CDE040236B610023099320238DF82930DFF817
:4042C0009CB130238DF82A3037463C4614F8013B1BB9B7EB060910D003E0252BF9D02746F3E74B46324629464046FFF771FF013000F0A780099B4B4409933B78002B00F007
:40430000A08000234FF0FF3204930793059206938DF853301A930126052221784E48FFF7BBFB671C049B38B14B4A3C46801A06FA00F018430490EFE7D90644BF20228DF871
:4043400053201A0744BF2B228DF8532022782A2A03D0079A00210A200BE0039A111D12680391002A10DA524243F00200079204900BE027463B780134303B092B03D800FB31
:4043800002320121F5E701B107923B782E2B1ED17B782A2B0AD1039B02371A1D1B680392002BB8BF4FF0FF33059310E0002319460593781C0A2407463A780130303A092AF8
:4043C00003D804FB01210123F5E703B10591032239782248FFF760FB40B14023CBEB000003FA00F0049B013718430490397806221B487E1C8DF82810FFF74EFB88B1194BBA
:4044000033B9039B073323F007030833039314E003AB00932A46144B04A94046FDF78EFF07E003AB00932A460F4B04A94046FEF73FFAB0F1FF3F824603D0099B534409936E
:4044400042E7AB895B0601D4099801E04FF0FF301DB0BDE8F08F00BF40470000464700004A4700003D230000D141000038B5064C0023054608462360FCF76AFA431C02D1EB
:40448000236803B12B6038BD7486FF1F884210B501EB020301D8421E0BE09842FBD28118D21AD34204D013F8014D01F8014DF8E710BD994204D011F8014B02F8014FF8E7F3
:4044C00010BD70477047F8B5074615460E4621B91146BDE8F840FFF71DBE1AB9FFF7CEFD2846F8BD00F015F885420ED929463846FFF710FE044650B131462A46FDF77AFE08
:4045000031463846FFF7BAFD01E03046F8BD2046F8BD51F8040C0028BEBF091851F8043CC0180438704700004FEA410C7FEA6C5C02D150EA013C0AD14FEA430C7FEA6C5CAA
:4045400002D152EA033C02D14FF0000070474FF0010070470000000054D9FF7F01000000657272203D2025356C64203B2063756265203D2025356C64203B206F7574707518
:4045800074203D2025346C640D0A00000D0A5374617274210D0A00004E6176696761746521000000256C7500256C660025640000505100401000C05100401000F0510040C4
:4045C000100000000140000E800E0140800100140140000800400140000A004C014000020050014020000000000E0140300A004880004300494E4600696E66004E414E0059
:404600006E616E00300030313233343536373839414243444546003031323334353637383961626364656600496E66696E697479004E614E00504F534958002E0000000001
:40464000000000000000F03F000000000000244000000000000059400000000000408F40000000000088C34000000000006AF8400000000080842E4100000000D0126341D9
:404680000000000084D797410000000065CDCD41000000205FA00242000000E876483742000000A2941A6D42000040E59C30A2420000901EC4BCD64200003426F56B0C43E2
:4046C0000080E03779C3414300A0D8855734764300C84E676DC1AB43003D9160E458E143408CB5781DAF154450EFE2D6E41A4B4492D54D06CFF08044F64AE1C7022DB5440C
:40470000B49DD9794378EA4405000000190000007D000000000000000080E03779C34143176E05B5B5B89346F5F93FE9034F384D321D30F94877825A3CBF737FDD4F1575D3
:40474000232D302B2000686C4C0065666745464700000000F8B500BFF8BC08BC9E4670474D000000CD090000F8B500BFF8BC08BC9E4670472900000088470000C880FF1FCB
:40478000F8000000B80400000000000000000000FFFFFFFF000000000000000000407A4000000000000000407B14AE47E17A943F00000000000000400000000000A07440C9
:4047C000EC51B81E85EBF13F9A9999999999A93F7886FF1F0000E02EC05D00001800000000366E010000000000000000000000000000000000000000000000000000000083
:4048000000000000F2450000000000000000000000000000000000000000000000000000000000000000000000000000000000000000000000000000000000000000000041
:40484000000000002481FF1F3B460000454700004547000045470000454700004547000045470000454700004547000045470000FFFFFFFFFFFFFFFFFFFFFFFFFFFF000016
:4048800000000000000000000000000000000000000000000000000000000000000000000000000000000000000000000000000000000000000000000000000000000000F8
:4048C00000000000000000000000000000000000000000000000000000000000000000000000000000000000000000000000000000000000000000000000000000000000B8
:404900000000000000000000000000000000000000000000000000000000000000000000000000000000000000000000000000000000000000000000000000000000000077
:404940000000000000000000000000000000000000000000000000000000000000000000000000000000000000000000000000000000000000000000000000000000000037
:020000040003F7
:0200000480007A
:40000000045200400664004002650040610001402E0101405E0201403D030140030501404808014029090140630A01403A0B0140560C0140450D01400A0E0140300F014015
:400040004514014025150140431601401E170140391801401A190140391A01401A1B01400940014008410140044201400243014009440140054501400346014005480140F9
:400080000E49014007500140025101401810190431013440830F880D890D8A0F8D728E38870F8B0D0118030604FF09080B020C100D060EEF0F191005128A191F1C231D0468
:4000C0001E4C1F1020E5221A28432A2C2D012F06340F36F0371F40534102420449FF4AFF4BFF4F0150185283580459045A045B045F016040624064406540668068806A80A6
:400100006C806E8082088610872A8A108E108F2A9309971A98059A129B04A002A214A408A515A617A72AB006B30CB401B530B618B703BA80BBA8C053C102C204C9FFCAFF41
:40014000CBFFCD83CE03CF01D018D804D904DA04DC88DF21E040E240E440E540E680E880EA80EC80EE8000440401071509800A800E04100811011490180219201C811E845A
:4001800021C027152A802C10312032403715380239913C803E0440444108452846804B404F405C805E80680869106A8073407F20C0F5C249C43ACA48CCECCE5DD0E7D218DE
:4001C000DE40021503010401050106140A150C010E14100111011214160D1701180119011A141C011E0221012201240A250126142B01321833013401360638203A883E10DB
:400200003F0440534102420449FF4AFF4BFF4D834E034F015018580459045A045C085F216040624064406540668068806A806C806E8087018A029601A402AE03B002B2012C
:40024000B301BE05C053C102C204C5ECC702C813C9FFCAFFCBFFCD83CE03CF01D018D403D604D804D904DA04DB04DF05E040E240E440E540E680E880EA80EC80EE8000201A
:400280000401071509080E9613481450184019081C041D201E1B202026082E15371539083C094044410842804528468049064B404F405108596663807A047F208340840489
:4002C000854C864087088A08900192049340944499209B159C109E80A240A528A720C0F2C2F4C435CAE0CCE0CEC2D0E7D218D60FD801DE44E208E680AC50AF20E0400701C0
:400300000B02170221012A013502360137013F104060410249FF4AFF4BFF4DA04F0450185405580459045A045B045C115D135F01604062C06440654066C068C06AC06CC034
:400340006EC081018A019A019B01A602B401B602B701BE10C060C102C5D1C620C80BC9FFCAFFCBFFCDAFCE0FCF04D018D405D804D904DA04DB04DC33DD33DF01E040E2C0BF
:40038000E440E540E6C0E8C0EAC0ECC0EEC0012009201220160818011A041F802240264027082F803220360438013E284120452049214A204D20512059015A845E805F096B
:4003C00093019A28A604A880AB10B010B201C002C202C444CA80CC44CE61D024D224D6DB0402070808010C021103130C150A170419031A021B041D031F04220226022B0546
:40040000310F320136023B023E444060410349FF4AFF4BFF4DA04F0450185401580459045A045B045C405D415F01604062C06440654066C068C06AC06CC06EC08308840892
:40044000860387038A069101930694069609990C9B039E02A008A205A410A501A601A70EAB0CB218B407B50FB808BA20BB20C060C103C5D0C620C701C81AC9FFCAFFCBFFB4
:40048000CDAFCE0FCF04D018D804D904DA04DC44DD01DF01E040E2C0E440E540E6C0E8C0EAC0ECC0EEC0002002060320041409200E200F02108011081308150217081984F4
:4004C0001C141F24210122022520261027042B082F2430803202332436123B083D093F02422046204A044B104F11562859845A015B10910197089A04A080A104A308A612E1
:40050000A720B510B680C067C2A2C43CCA64CCAFCEC2D042D224D60FE04001400701095011431330170C19721B082533274429242B403303357C39083F044002454049FF29
:400540004A074BFF4C404D204EF04F05500859045A045C405D045F01604061A862406320804A821485018603881389018A608D028E03900391019403950299029C259D022B
:400580009E98A203A47CA87CB003B270B40CB501B680B702BF40C053C102C50BC60CC70EC815C9FFCAFFCBFFCEF0CF44D00CD602D713D804D904DA04DB04DC44DD44DF0158
:4005C000E6C0EA40EB02009002A008840B4010401114181019151B802110230227242F2430443268330136123704384039143B403C203D013E084328472048104A024D0132
:40060000508052045504560857085B0269146B01700471C07318884089108E018F089040928094089520971098809D559E019F04A228A580A780B084B120B612C00FC20DDA
:40064000C40ECA60CCEFCEEED026D208D601E2088301A401AF01B501B601BE40BF10D804D904DF010008038A09800A040B5010801229170419801A801B2A1E022040214004
:4006800022382340240429642A022D8031103248384839203A013F0140404150420443084A084B0150805901600462808E818F20C00FC20FC42FCA1FCC0ECE8FD00FD2040A
:4006C000D601D80C0201210127012F01320135013F104043420249FF4AFF4BFF4F015018580459045A045C025D025F016040624064406540668068806A806C806E808006D9
:4007000084028604870688068B03910A970F98019B0DA802AA04B30FB407BA30BB08C043C202C9FFCAFFCBFFCD83CE03CF01D018D804D904DA04DC22DD02DF01E040E2406B
:40074000E440E540E680E880EA80EC80EE800380040E05110D20171019081D10212023082410271029082A802B80351137083C1441284280452846808380900A9A809D10DD
:400780009F10A108A520C078C240C440CA0BCCE0CE60D0E7E204E6080005020A0403060C08050A0A1A0F28032A0C320F4043420249FF4AFF4BFF4D834E034F01501852833E
:4007C00058045A045B045C025D225F016040624064406540668068806A806C806E809701AF01B701BF40C043C202C5ECC702C813C9FFCAFFCBFFCD83CE03CF01D018D40360
:40080000D604D904DA04DB04DD22DF01E040E240E440E540E680E880EA80EC80EE80040A05100D2017101E1022402A80310841284280452846804905510859055A9061022E
:400840006C0576808902C070C240C440CA08CC02D0E7D60FD801E208E62003010A012A0132013301404249FF4AFF4BFF4F0150185280580459045A045B045C115D155F010E
:400880006040624064406540668068806A806C806E808A029201A602B002B401C042C9FFCAFFCBFFCD83CE03CF01D018D280D804DA04DB04DC03DD35DF01E040E240E44095
:4008C000E540E680E880EA80EC80EE80012006080B401220172019211C20260427203C0241204280452046847340740184109A089D20A220A604C042C208C444CE80D0A549
:40090000404349FF4AFF4BFF4D834E034F01501852805A045B045D555F016040624064406540668068806A806C806E808A01A201AB01AF01B001B701BE01C042C5ECC70294
:40094000C813C9FFCAFFCBFFCD83CE03CF01D018D401D804D904DA04DB04DC50DD55DF01E040E240E440E540E680E880EA80EC80EE80060416801E8026802E802F084280B7
:40098000430846844D044F01560457085D045E805F0172808101868099019E84C040C410CA30D0A3D6D030013310340835403B8049404B20CCF0CE100B2883108B4097A0D6
:4009C0009C099F10C250E2208F019C09AF14EC5097029C090810298053805A808E40C202CA08D405E00885809980A780B010EA048F80A780E0028708880197029C09E21037
:400A00000B025B105F088311840897029B089C08C240D480D680E220E420E610001B08010C1A0E10102E1A041C2A00FF0103000000040400040C0000000040133C1F8200DA
:400A4000BF0000001813000C00022340100C0013000F40101C03A120A7011840080800001F00380F401C80608000022A000010406204030001E00C0006FFFFFF62A0F04173
:400A80000C00000018000000040404044444000100000000000040020010301000101012000000000000000000000000000000005000000000000000000B0B00000000004F
:400AC000007F7F00000000004000005414001400000000000000000000000400010040090900090000000000000000000000000000000000000000000000000000000000DC
:400B000000000000000000000000000000000000000000000000000000000000000000000000000000000000000000000000000000000000000000000000000000000000B5
:400B40000000000000000000000000000000000000000000000000000000000000000000000000000000000000000000000000000000000000000000000000000000000075
:400B80000000000000000000000000000000000000000000000000000000000000000000000000000000000000000000000000000000000000000000000000000000000035
:400BC00000000000000000000000000000000000000000000000000000000000000000000000000000000000000000000000000000000000000000000000000000000000F5
:0200000490006A
:0400000000004005B7
:0200000490105A
:04000000BC90ACAF55
:0200000490303A
:02000000467C3C
:0200000490402A
:4000000000000000000000000000000000000000000000000000000000000000000000000000000000000000000000000000000000000000000000000000000000000000C0
:400040000000000000000000000000000000000000000000000000000000000000000000000000000000000000000000000000000000000000000000000000000000000080
:400080000000000000000000000000000000000000000000000000000000000000000000000000000000000000000000000000000000000000000000000000000000000040
:4000C0000000000000000000000000000000000000000000000000000000000000000000000000000000000000000000000000000000000000000000000000000000000000
:0200000490501A
:0C00000000012E12306900012E3276E55E
:00000001FF