:400000000080002011000000B10A0000B10A000008B5044B1A6803F53F5302331A6000F067FD00BFFA46004010B5054C237833B9044B13B10448AFF300800123237010BD9D
:40004000C881FF1F000000006C420000084B10B51BB108490848AFF300800848036803B910BD074B002BFBD0BDE81040184700BF00000000CC81FF1F6C420000C880FF1FA6
:400080000000000008B50E4A1368013313600D4BD3E9000102460B4601F028FC0A4BD3E9002301F023FC094BD3E9002301F01EFC0022074B01F0CCFD064BC3E9000108BDD3
:4000C000E881FF1F7084FF1F6084FF1F6884FF1F0000D03FD080FF1F08B501F013FB08BD08B501F0BDF908BD08B501F077FA08BD10B500F025FB01F061F8114B99689860DC
:40010000104C091A204600F029FBD4F80C220024234609A1D1E9000102F07CF801F062FD0022094B01F0BEFE084BC3E9000101F039F8074B5C6010BD007841CB020000007E
:40014000D080FF1F7884FF1F00408F403882FF1FE881FF1F38B501F0E1FAC143A1F14603B3F50C7F2CD8174C204600F0F7FAD4F8100201F0F7FC04460D460022124B1349D6
:40018000D1E9000101F0B0FB02460B462046294601F0EEFF18B10D4BC3E9004538BD0022094B0A49D1E9000101F0A0FB02460B462046294601F0BEFF10B1044BC3E9004568
:4001C00038BD00BF8C86FF1F000064406084FF1F38B501F051F9C143A1F14603B3F50C7F2CD8174C204600F0B9FAD4F8100201F0B9FC04460D460022124B1349D1E9000114
:4002000001F072FB02460B462046294601F0B0FF18B10D4BC3E9004538BD0022094B0A49D1E9000101F062FB02460B462046294601F080FF10B1044BC3E9004538BD00BFE6
:40024000A088FF1F00005E407084FF1F38B501F0D1F9C143A1F14603B3F50C7F2CD8174C204600F07BFAD4F8100201F07BFC04460D460022124B1349D1E9000101F034FB03
:4002800002460B462046294601F072FF18B10D4BC3E9004538BD0022094B0A49D1E9000101F024FB02460B462046294601F042FF10B1044BC3E9004538BD00BF4882FF1F96
:4002C000000054406884FF1F2DE9F04F85B08A4A536801335360092B04D900200021874BC3E90001864CD4E90467844BD3E900233046394601F0F8FA82468B467E4DD5E9ED
:40030000022301F0F3FAC5E90201D4E9062301F09FFCD4E9088942464B4601F099FC04460D46CDE900450022764B01F021FF38B90022754B2046294601F0FCFE28B908E0C2
:400340000023704CCDE9003403E000236E4CCDE900346B4BD3E90A235046594601F078FCCDE90201644CD4E904235046594601F0BBFAD4E9062301F06BFC42464B4601F061
:4003800091FD8046894654A3D3E900233046394601F05EFC02460B46DDE9020101F0A6FA02460B46DDE9000101F0A0FA02460B464046494601F09AFA01F00CFF01F0D2FB39
:4003C00006460F46C4E904AB45A3D3E9002301F0CFFE10B142A7D7E900673046394601F0F9FE80B200F04EFF454ED6E90C23D6E9000101F079FA04460D463F4FD7E90823A3
:4004000001F074FAC7E90801D7E90A2301F020FCD6E9088942464B4601F01AFC06460F4600223A4B01F0A4FE40B92FA3D3E900233046394601F07EFE18B905E00026334FF5
:4004400002E029A7D7E90067DFF8B4A0DAE90E232046294601F0FCFBCDE90001264BD3E90C232046294601F03FFADAE9102301F0EFFB42464B4601F015FD80468946244BC4
:40048000D3E90023DDE9000101F030FA02460B463046394601F02AFA02460B464046494601F024FA01F06EFE01F06CFB06460F460022184B01F03EFE80B30DA3D3E9002351
:4004C0003046394601F0C4FB0122134B01F00EFA06460F463EE000BFCDCCCCCCCCCCFC3F0000000000FEAF400000000000407FC0CDCCCCCCCCCCF43FE881FF1F3882FF1F94
:40050000D080FF1F00009040000090C000407F404082FF1F000049C000001E40002200233046394601F006FEA0B131A3D3E900233046394601F08CFB02460B4630463946B9
:4005400001F086FB02460B463046394601F0CEF906460F4628A3D3E900233046394601F0C5F906460F462046294601F00BFE0028B8BF404201F006FB21A3D3E9002301F0BD
:4005800067FB02460B4620A1D1E9000101F0ACF91F4BC3E9040100221E4B01F0CBFD20B100201C491A4BC3E904011B4BC3E90C4500221A4B3046394601F0BCFD38B90022C7
:4005C000174B3046394601F0D3FD18B904E00026124F01E00026124F3046394601F0FAFD80B200F047FD05B0BDE8F08FAFF30080FB7E6ABC749368BF0000000000709740ED
:400600009A9999999999F13F0000000000507A40D080FF1F00807640E881FF1F00408F4000409F4008B500F077FD0022702308E013F0010F03D003EB4303013300E05B1039
:4006400001322A498A42F3DD62B600F06BF800F025FC274800F008FC00F0EAFC00F07EFC01F09EF801F0C6F8224801F0A9F80321214800F06FF800F041FF00F093FF1F48EA
:4006800000F076FF03211E4800F064F800F0F4FF01F01CF81B4800F0FFFF03211A4800F059F800F063FD00F0CBFD184800F044FD0521174800F04EF801F0CAF8154801F0AA
:4006C000A9F800F045FF144800F028FF01F0EAF8124801F0CDF800F027FE00F07BFE00F0A3FE0F4800F086FEFEE700BF86D6120085000000550100008C86FF1FD101000006
:40070000A088FF1F4D0200004882FF1FF10000007884FF1FD9000000E1000000E9000000C902000008B500F051FB0021084600F05BFB024800F0F0FA08BD00BF78420000B3
:4007400008B5012000F0F6FA08BD00BF00680B68C01A7047C0F80012704700BF2DE9F04100AF0446D0F80052D0F80432581C6A1C90FBF2F802FB180844F8231054F82320A9
:40078000D4F808321344C4F8083254F82820D4F808329B1AC4F80832D4F80832D4F80022B3FBF2F3C4F80C32AB000A3323F00703ADEB030D6E46002304E054F8232046F8EB
:4007C00023200133AB42F8DB074B04222946304602F074FA6D1056F82530C4F81032C4F80482BD46BDE8F0814D070000FEE700BFF0B40022174611E050F82760F3B226F0F6
:40080000FF0608E001EB420511F812406D78A5550132013BDBB2002BF4D10137262FEBD9F0BC70470C4B1B78DBB203F007010B4A11701B09013213700422094B1A70102365
:40084000084A1370402130321170043213704422054B1A70704700BFCF0100496E5800404D510040905A00407658004008B50A46002101F096FE08BD38B501222D4B1A8021
:400880001C2202331A70022202331A8018232A490B70172129480180023003700230018027490B700024274B1C801B210233197003F26E231A7008224FF040231A700321FC
:4008C00003F500731970204B1B78DBB21F490B701F4B1A8041F25122023B1A8019250CE01C4B1B7803F0010343EA440404F003044FF4F07000F0E4FF013D0DB1032CEFD129
:4009000015B90320FFF772FF134B4FF480721A8007221A70002211490A704820023108701A700222033B1A700D4A137843F01F03137038BD80400040864000408840004043
:400940008E4000409040004008010049A146004022420040254200400440004006400040A243004008B501F011FE08BD38B572B6384A137843F00403137000240CE0364D72
:40098000630019194A0011462A44084691882858FFF76CFF0134E4B2072CF0D92F494FF09040FFF725FF03222D4B1A802D4B2E4A136002F5D062136002F592422B321378FA
:4009C00043F0020313701032137843F002031370264C237843F040032370A2F58632513A137843F010031370082221492148FFF7B9FF082220492148FFF7B4FF082220498D
:400A00002048FFF7AFFF0A221F492048FFF7AAFF08221F491F48FFF7A5FF08221E491F48FFF7A0FF1E4A137843F0080313701D4D61232B70FFF720FF81232B7001221A4BD6
:400A40001A70FFF7EFFE0E2221461848FFF78AFF38BD00BFE8460040904200009C000048485800400404044458000140A0430040AC0C004802510040B40C00481251004091
:400A8000BC0C004822510040C40C004830510040D00C004842510040D80C004862510040224300400048004004000840B043004008B501F03FFD03680C2B00D1FEE7FEE7B1
:400AC00008B5094B1A681044084BC31A802B02DC054B186005E001F02DFD0C2303604FF0FF32104608BD00BF1881FF1FB88AFF1F08B5104E104D16E029686B68AC68002293
:400B000004E051F8040B43F8040B0432A242F8D1E868002203E0002143F8041B04328242F9D11035013E002EE6D101F009FDFFF779FDFEE7010000001444000008B5104A97
:400B4000104B1A60104A136843F40073136000230AE0032B03D80D4A52F8231000E00C490C4A42F8231001332F2BF2D90A4B1A780A4B1A70074A0A4B1A60FFF7F7FE08BDDD
:400B80000004FA050CED00E014ED00E000000000B10A00000080FF1FBC760040C080FF1F08ED00E010B50B4C237803F09F032370237803F0F00323702378184340F0100051
:400BC0002070012000F044F9237803F0EF03237010BD00BF2051004038B505460E4C237843F020032370237803F0BF032370002000F02EF9237803F0F003237023781D4388
:400C000045F010052570012000F022F9237803F0EF03237038BD00BF2051004070B5354B1A7802F08002D2B21A7033490A7802F0F00242F00F020A7001310A7802F0F00241
:400C40000A7001310A7802F0F0020A701A7802F0DF021A701A7842F040021A704FF4CA76002000F0F5F8234D2B7843F010032B70012000F0EDF8214B1C78E4B22B7803F0D3
:400C8000EF032B70002000F0E3F804F00804E4B22B7843F010032B70012000F0D9F82B7803F0EF032B7014B90A2000F0D1F8013E0CB1002ED4D10F4A137803F0BF03137002
:400CC000137803F08003DBB213700232137803F0F00313700132137803F0F00343F00F0313700132137803F0F00343F00F03137070BD00BF205100402251004021510040E1
:400D000010B50446FFF78AFF2009FFF765FF04F00F00FFF761FF10BD38B505460078012404E0FFF7EDFF285D0134E4B20028F8D138BD00BF10B50446FFF770FF2009FFF759
:400D400031FF04F00F00FFF72DFF10BD08B5282000F068F80320FFF725FF052000F062F80320FFF71FFF0F2000F05CF80320FFF719FF012000F056F80220FFF713FF0520C7
:400D800000F050F80620FFF7D5FF0E20FFF7D2FF2C20FFF7CFFF0820FFF7CCFF0120FFF7C9FF0C20FFF7C6FF0320FFF7C3FF052000F038F808BD00BF08B50C20FFF7BAFF1B
:400DC0000122014B1A7008BD2082FF1F08B5054B5B7823B9FFF7BAFF0122024B5A70FFF7EBFF08BD2082FF1F08B5032819D8DFE800F002070D1381F08000FFF79BFF08BD6C
:400E0000A1F14000C0B2FFF795FF08BDA1F16C00C0B2FFF78FFF08BDA1F12C00C0B2FFF789FF08BD10B5044605E0084B186800F047FDA4F50044B4F5004FF6D8034B586847
:400E400000FB04F000F03CFD10BD00BF1C81FF1F08B5034B1B7A00FB03F000F031FD08BD1C81FF1F704700BF014B1B68D864704708ED00E04001C0B2014B1870704700BFDD
:400E800003E400E00822014B1A60704700E100E00822014B1A60704780E100E008B5FFF7F7FF0448FFF7E0FF0720FFF7E3FFFFF7E9FF08BD650E0000054A137843F0040328
:400EC00013701032137843F004031370704700BFA8430040054B1A7802F0FD021A701A7800F0020010431870704700BF28580040014B1870704700BF825B0040064B1B7807
:400F0000C3F3810303F19243063393F82831DBB2024A1370704700BF285800400A46004008B5064B1A7802F0F3021A701A7800F00C0010431870FFF7E1FF08BD285800409A
:400F400008B50020044B187001331870FFF7E8FF0220FFF7BFFF08BD2858004008B5074B1B7823B9FFF7ECFF0122044B1A70FFF7A3FF6420FFF7BCFF08BD00BF2282FF1F5B
:400F8000054A137843F0010313701032137843F001031370704700BFA74300400F490B7803F0FC0200F0030313430B7001280AD10B4B1B78DBB20B4A13700B4B1B78DBB21B
:400FC000013213707047094B1B78DBB2054A1370074B1B78DBB201321370704740580040100100493046004014010049AD010049B501004908B50120FFF7D0FF0B4B1A7898
:4010000002F0DF021A701A7802F0FB021A701A7842F008021A7003F287231A7802F0E7021A701A7842F010021A7008BD4058004008B5054B1B7823B9FFF7DCFF0122024BA0
:401040001A70FFF79DFF08BD2382FF1F024A137843F080031370704778650040014B1880704700BF10680040014B1880704700BF90680040014B1880704700BF50680040F2
:40108000014B1870704700BF89640040014B1878704700BF69640040014B188880B27047B068004008B501E0FFF7F6FFFFF7EEFF10F0100FF8D108BD10B5154A137803F072
:4010C000C00343F009031370E03A137843F001031370104C237843F00103237044F62060FFF7BCFF44F62060FFF7BEFF40F2CD50FFF7C0FF0020FFF7C3FF00F0E9FB237828
:4011000043F01003237000F0E7FBFFF7CBFF10BD786500409964004008B5054B1B7823B9FFF7CAFF0122024B1A70FFF78FFF08BD2482FF1F704700BF014B1B681865704762
:4011400008ED00E04001C0B2014B1870704700BF04E400E01022014B1A60704700E100E01022014B1A60704780E100E008B5FFF7F7FF0448FFF7E0FF0720FFF7E3FFFFF7B6
:40118000E9FF08BD35110000024A137843F08003137070477B650040014B1870704700BF8B650040014B1878704700BF6B650040014B1860704700BF28650040014B1868A6
:4011C000704700BF48650040014B1860704700BF0865004000F00300044B1A7802F0FC021A701A7810431870704700BF7B65004008B501E0FFF7E2FFFFF7D4FF10F0080FFF
:40120000F8D108BD08B54FF0FF30FFF7D1FF4FF0FF30FFF7D9FF00F05BFB084A137843F01003137000F058FB0020FFF7D3FFFFF7DFFF0220FFF7B0FF08BD00BF9B6500407D
:4012400008B5054B1B7823B9FFF7DCFF0122024B1A70FFF799FF08BD2582FF1F024A137843F08003137070477B640040014B1880704700BF14680040014B1880704700BFB9
:4012800094680040014B1880704700BF54680040014B1870704700BF8B640040014B1878704700BF6B640040014B188880B27047B468004008B501E0FFF7F6FFFFF7EEFF25
:4012C00010F0100FF8D108BD10B5154A137803F0C00343F0090313701F32137843F001031370104C237843F00103237040F6FF70FFF7BCFF40F6FF70FFF7BEFF40F2DA20E9
:40130000FFF7C0FF0020FFF7C3FF00F0E1FA237843F01003237000F0DFFAFFF7CBFF10BD7B6400409B64004008B5054B1B7823B9FFF7CAFF0122024B1A70FFF78FFF08BDAF
:401340002682FF1F024A137843F080031370704776650040014B1870704700BF87650040014B1878704700BF67650040014B1860704700BF24650040014B1868704700BFAC
:4013800044650040014B1860704700BF0465004008B501E0FFF7F0FFFFF7E2FF10F0080FF8D108BD08B51320FFF7E0FF1320FFF7E9FF00F08DFA064A137843F01003137071
:4013C00000F08AFAFFF7E4FF0120FFF7C3FF08BD9765004008B5054B1B7823B9FFF7E2FF0122024B1A70FFF7ADFF08BD2782FF1F704700BF014B1B685865704708ED00E0BD
:401400004001C0B2014B1870704700BF05E400E02022014B1A60704700E100E02022014B1A60704780E100E008B5FFF7F7FF0448FFF7E0FF0720FFF7E3FFFFF7E9FF08BDFA
:40144000F1130000024A137843F080031370704771640040014B1870704700BF83640040014B1878704700BF63640040014B1860704700BF20640040014B1868704700BF82
:4014800040640040014B1860704700BF0064004000F00300044B1A7802F0FC021A701A7810431870704700BF7164004008B501E0FFF7E2FFFFF7D4FF10F0080FF8D108BD41
:4014C00008B54FF0FF30FFF7D1FF4FF0FF30FFF7D9FF00F0FDF9084A137843F01003137000F0FAF90020FFF7D3FFFFF7DFFF0220FFF7B0FF08BD00BF9364004008B5054B05
:401500001B7823B9FFF7DCFF0122024B1A70FFF799FF08BD2882FF1F704700BF014B1B689865704708ED00E04001C0B2014B1870704700BF06E400E04022014B1A607047E2
:4015400000E100E04022014B1A60704780E100E008B5FFF7F7FF0448FFF7E0FF0720FFF7E3FFFFF7E9FF08BD19150000704700BF014B1B681864704708ED00E04001C0B2F0
:40158000014B1870704700BF00E400E00122014B1A60704700E100E00122014B1A60704780E100E008B5FFF7F7FF0448FFF7E0FF0720FFF7E3FFFFF7E9FF08BD6D150000ED
:4015C000024A137843F080031370704773640040014B1870704700BF80640040014B1878704700BF60640040014B1860704700BF2C640040014B1868704700BF4C6400400D
:40160000014B1860704700BF0C64004000F00300044B1A7802F0FC021A701A7810431870704700BF7364004008B501E0FFF7E2FFFFF7D4FF10F0080FF8D108BD08B54FF099
:40164000FF30FFF7D1FF4FF0FF30FFF7D9FF00F03FF9084A137843F01003137000F03CF90020FFF7D3FFFFF7DFFF0220FFF7B0FF08BD00BF9064004008B5054B1B7823B98F
:40168000FFF7DCFF0122024B1A70FFF799FF08BD2982FF1F704700BF014B1B685864704708ED00E04001C0B2014B1870704700BF01E400E00222014B1A60704700E100E092
:4016C0000222014B1A60704780E100E008B5FFF7F7FF0448FFF7E0FF0720FFF7E3FFFFF7E9FF08BD95160000024A137843F080031370704775640040014B1870704700BFC7
:4017000087640040014B1878704700BF67640040014B1860704700BF24640040014B1868704700BF44640040014B1860704700BF0464004000F00300044B1A7802F0FC024F
:401740001A701A7810431870704700BF7564004008B501E0FFF7E2FFFFF7D4FF10F0080FF8D108BD08B54FF0FF30FFF7D1FF4FF0FF30FFF7D9FF00F0ABF8084A137843F030
:401780001003137000F0A8F80020FFF7D3FFFFF7DFFF0220FFF7B0FF08BD00BF9764004008B5054B1B7823B9FFF7DCFF0122024B1A70FFF799FF08BD2A82FF1F704700BFE7
:4017C000014B1B689864704708ED00E04001C0B2014B1870704700BF02E400E00422014B1A60704700E100E00422014B1A60704780E100E008B5FFF7F7FF0448FFF7E0FFBD
:401800000720FFF7E3FFFFF7E9FF08BDBD170000704700BF014B1B681866704708ED00E04001C0B2014B1870704700BF08E400E04FF48072014B1A60704700BF00E100E0E8
:401840004FF48072014B1A60704700BF80E100E008B5FFF7F5FF0448FFF7DCFF0720FFF7DFFFFFF7E5FF08BD11180000704700BF014B1B68D865704708ED00E04001C0B26E
:40188000014B1870704700BF07E400E08022014B1A60704700E100E08022014B1A60704780E100E008B5FFF7F7FF0448FFF7E0FF0720FFF7E3FFFFF7E9FF08BD6D180000E2
:4018C0000230800803D000BF01380046FCD17047EFF3108072B6704780F31088704700BF81F0004102E000BF83F0004330B54FEA41044FEA430594EA050F08BF90EA020FF6
:401900001FBF54EA000C55EA020C7FEA645C7FEA655C00F0E2804FEA5454D4EB5555B8BF6D420CDD2C4480EA020281EA030382EA000083EA010180EA020281EA0303362DC8
:4019400088BF30BD11F0004F4FEA01314FF4801C4CEA113102D0404261EB410113F0004F4FEA03334CEA133302D0524263EB430394EA050F00F0A780A4F10104D5F1200ED1
:401980000DDB02FA0EFC22FA05F2801841F1000103FA0EF2801843FA05F359410EE0A5F120050EF1200E012A03FA0EFC28BF4CF0020C43FA05F3C01851EBE37101F00045EB
:4019C00007D54FF0000EDCF1000C7EEB00006EEB0101B1F5801F1BD3B1F5001F0CD349085FEA30004FEA3C0C04F101044FEA445212F5800F80F09A80BCF1004F08BF5FEA0A
:401A0000500C50F1000041EB045141EA050130BD5FEA4C0C404141EB010111F4801FA4F10104E9D191F0000F04BF01460020B1FA81F308BF2033A3F10B03B3F120020CDAE1
:401A40000C3208DD02F1140CC2F10C0201FA0CF021FA02F10CE002F11402D8BFC2F1200C01FA02F120FA0CFCDCBF41EA0C019040E41AA2BF01EB0451294330BD6FEA0404F2
:401A80001F3C1CDA0C340EDC04F11404C4F1200220FA04F001FA02F340EA030021FA04F345EA030130BDC4F10C04C4F1200220FA02F001FA04F340EA0300294630BD21FA2C
:401AC00004F0294630BD94F0000F83F4801306BF81F480110134013D4EE77FEA645C18BF7FEA655C29D094EA050F08BF90EA020F05D054EA000C04BF1946104630BD91EA80
:401B0000030F1EBF0021002030BD5FEA545C05D14000494128BF41F0004130BD14F580043CBF01F5801130BD01F0004545F0FE4141F470014FF0000030BD7FEA645C1ABF2F
:401B4000194610467FEA655C1CBF0B46024650EA013406BF52EA033591EA030F41F4002130BD00BF90F0000F04BF0021704730B54FF4806404F132044FF000054FF00001F6
:401B800050E700BF90F0000F04BF0021704730B54FF4806404F1320410F0004548BF40424FF000013EE700BF42004FEAE2014FEA31014FEA02701FBF12F07F4393F07F4F75
:401BC00081F06051704792F0000F14BF93F07F4F704730B54FF4607401F0004521F0004120E700BF50EA010208BF704730B54FF000050AE050EA010208BF704730B511F0E7
:401C0000004502D5404261EB41014FF4806404F132045FEA915C3FF4DCAE4FF003025FEADC0C18BF03325FEADC0C18BF033202EBDC02C2F1200300FA03FC20FA02F001FAD4
:401C400003FE40EA0E0021FA02F11444C1E600BF70B54FF0FF0C4CF4E06C1CEA11541DBF1CEA135594EA0C0F95EA0C0F00F0DEF82C4481EA030621EA4C5123EA4C5350EA44
:401C8000013518BF52EA033541F4801143F4801338D0A0FB02CE4FF00005E1FB02E506F00042E0FB03E54FF00006E1FB03569CF0000F18BF4EF0010EA4F1FF04B6F5007FA3
:401CC00064F5407404D25FEA4E0E6D4146EB060642EAC62141EA55514FEAC52040EA5E504FEACE2EB4F1FD0C88BFBCF5E06F1ED8BEF1004F08BF5FEA500E50F1000041EB9E
:401D0000045170BD06F0004646EA010140EA020081EA0301B4EB5C04C2BFD4EB0C0541EA045170BD41F480114FF0000E013C00F3AB8014F1360FDEBF002001F0004170BD47
:401D4000C4F10004203C35DA0C341BDC04F11404C4F1200500FA05F320FA04F001FA05F240EA020001F0004221F0004110EBD37021FA04F642EB06015EEA430E08BF20EA8D
:401D8000D37070BDC4F10C04C4F1200500FA04F320FA05F001FA04F240EA020001F0004110EBD37041F100015EEA430E08BF20EAD37070BDC4F1200500FA05F24EEA020E67
:401DC00020FA04F301FA05F243EA020321FA04F001F0004121FA04F220EA020000EBD3705EEA430E08BF20EAD37070BD94F0000F0FD101F00046400041EB010111F4801F8C
:401E000008BF013CF7D041EA060195F0000F18BF704703F00046520043EB030313F4801F08BF013DF7D043EA0603704794EA0C0F0CEA135518BF95EA0C0F0CD050EA4106A0
:401E400018BF52EA4306D1D181EA030101F000414FF0000070BD50EA410606BF1046194652EA430619D094EA0C0F02D150EA013613D195EA0C0F05D152EA03361CBF104617
:401E800019460AD181EA030101F0004141F0FE4141F470014FF0000070BD41F0FE4141F4780170BD70B54FF0FF0C4CF4E06C1CEA11541DBF1CEA135594EA0C0F95EA0C0F97
:401EC00000F0A7F8A4EB050481EA030E52EA03354FEA013100F088804FEA03334FF0805545EA131343EA12634FEA022245EA111545EA10654FEA00260EF000419D4208BF54
:401F0000964244F1FD0404F5407402D25B084FEA3202B61A65EB03055B084FEA32024FF480104FF4002CB6EB020E75EB030E22BFB61A754640EA0C005B084FEA3202B6EBD3
:401F4000020E75EB030E22BFB61A754640EA5C005B084FEA3202B6EB020E75EB030E22BFB61A754640EA9C005B084FEA3202B6EB020E75EB030E22BFB61A754640EADC0066
:401F800055EA060E18D04FEA051545EA16754FEA06164FEAC30343EA52734FEAC2025FEA1C1CC0D111F4801F0BD141EA00014FF000004FF0004CB6E711F4801F04BF0143C6
:401FC0000020B4F1FD0C88BFBCF5E06F3FF6AFAEB5EB030C04BFB6EB020C5FEA500C50F1000041EB045170BD0EF0004E4EEA113114EB5C04C2BFD4EB0C0541EA045170BD62
:4020000041F480114FF0000E013C90E645EA060E8DE60CEA135594EA0C0F08BF95EA0C0F3FF43BAF94EA0C0F0AD150EA01347FF434AF95EA0C0F7FF425AF104619462CE7CD
:4020400095EA0C0F06D152EA03353FF4FDAE1046194622E750EA410618BF52EA43067FF4C5AE50EA41047FF40DAF52EA43057FF4EBAE12E74FF0FF3C06E000BF4FF0010C7A
:4020800002E000BF4FF0010C4DF804CD4FEA410C7FEA6C5C4FEA430C18BF7FEA6C5C1BD001B050EA410C0CBF52EA430C91EA030F02BF90EA020F0020704710F1000F91EA22
:4020C000030F58BF994208BF90422CBFD8176FEAE37040F0010070474FEA410C7FEA6C5C02D150EA013C07D14FEA430C7FEA6C5CD6D152EA033CD3D05DF8040B704700BFA4
:402100008446104662468C461946634600E000BF01B5FFF7B7FF002848BF10F1000F01BD4DF808EDFFF7F4FF0CBF012000205DF808FB00BF4DF808EDFFF7EAFF34BF01208C
:4021400000205DF808FB00BF4DF808EDFFF7E0FF94BF012000205DF808FB00BF4DF808EDFFF7CEFF94BF012000205DF808FB00BF4DF808EDFFF7C4FF34BF012000205DF84A
:4021800008FB00BF4FEA410212F5001215D211D56FF47873B3EB625212D94FEAC12343F0004343EA505311F0004F23FA02F018BF404270474FF00000704750EA013005D167
:4021C00011F0004008BF6FF0004070474FF00000704700BF4A0011D212F5001211D20DD56FF47873B3EB62520ED44FEAC12343F0004343EA505323FA02F070474FF00000D7
:40220000704750EA013002D14FF0FF3070474FF00000704753B94AB9002908BF00281CBF4FF0FF314FF0FF3000F082B9ADF1080C6DE904CE00F006F8DDF804E0DDE9022318
:4022400004B070472DE9F04F8C460C460546099E002B4FD18A4217466BD9B2FA82FEBEF1000F0BD0CEF1200520FA05F501FA0EF345EA030C02FA0EF700FA0EF5390CBCFBDF
:40228000F1F0BAB201FB10C300FB02F84FEA154C4CEA0344A04509D9E41900F1FF3380F02881A04540F2258102383C44C8EB0404B4FBF1F301FB134C03FB02F2ACB244EA58
:4022C0000C418A4209D9C91903F1FF3480F00F818A4240F20C81023B39448A1A43EA00400021002E63D022FA0EF2002386E80C00BDE8F08F8B4207D9002E56D0002186E895
:4023000011000846BDE8F08FB3FA83F1002940F09380A34202D3824200F2FE80851A64EB03039C460120002E41D086E82010BDE8F08F12B90127B7FBF2F7B7FA87FEBEF134
:40234000000F36D1E41B4FEA17481FFA87F90121B4FBF8F308FB134409FB03F24FEA154C4CEA0444A24207D9E41903F1FF3002D2A24200F2D3800346A41AB4FBF8F008FB6E
:40238000104809FB00F9ACB244EA0842914507D9D21900F1FF3402D2914500F2BA802046C9EB020240EA03409BE731463046BDE8F08F07FA0EF7CEF1200C24FA0CF34FEAF2
:4023C0001748B3FBF8FA1FFA87F908FB1A3520FA0CFC04FA0EF40AFB09FB4CEA040C4FEA1C4242EA05439B4500FA0EF50AD9DB190AF1FF3280F08B809B4540F28880AAF167
:40240000020A3B44CBEB0303B3FBF8F008FB103300FB09F41FFA8CFC4CEA03439C4207D9DB1900F1FF326ED29C426CD902383B441C1B40EA0A418BE7C1F1200E8B4022FA8F
:402440000EFC4CEA030C24FA0EF74FEA1C49B7FBF9FA1FFA8CF309FB1A7720FA0EF88C400AFB03F548EA04044FEA144848EA0747BD4202FA01F200FA01FB09D917EB0C0767
:402480000AF1FF3041D2BD423FD9AAF1020A67447F1BB7FBF9F509FB157705FB03F3A4B244EA0747BB4208D917EB0C0705F1FF3027D2BB4225D9023D674445EA0A40A0FBDA
:4024C0000289FF1A4F4545464C4614D329D066B3BBEB050367EB040707FA0EFECB40CF404EEA030386E888000021BDE8F08F2346F3E61846DAE6B8EB020569EB0C0401383C
:40250000E5E70546D9E7104692E78246C0E7924678E702383A4443E7084604E7023B3C442AE7C345E7D33C46D1E73146BDE8F08F704700BF014B1868704700BF8C81FF1FEC
:402540000E4B70B51E460E4C0025E41AA410A54204D056F8253098470135F8E701F048FF084B094C1E46E41AA4100025A54204D056F8253098470135F8E770BDFC4300001D
:40258000FC430000FC4300000444000010B5431E0A44914204D011F8014B03F8014FF8E710BD03460244934202D003F8011BFAE770472DE9F04788B0149F002B1E46129997
:4025C000B8BF03F1004327F02007B6BF1E4600232D23462F1446109DDDF84CA00B7003D0452F03D1013501E0032300E0022307AA049206AA03928DE828042246334600F090
:4026000027FD472F804602D1119BDB0728D5462F08EB050911D198F80030302B0AD10022002320463146FFF77BFD18B9C5F10105CAF80050DAF800309944002200232046D5
:402640003146FFF76DFD08B9302202E0CDF81C9006E0079B994503D9591C07911A70F8E74046079B159AC8EB0303136008B0BDE8F087034673B50029B8BF494203F8022BCA
:40268000B4BF2D222B22092942701ADD0DF1070216460A2591FBF5F405FB1411092C01F1300102F8011D2146F4DC3031541E02F8011CB4421A460AD214F8012B03F8012BE2
:4026C000F7E71A463024214402F8024B5970101A02B070BD2DE9F04F91B00C46DDF8688016461F46054601F04BFA03681846099300F01BFC00230E93D8F800300A900733DF
:4027000023F0070303F1080294F81890D4F800B0C8F80020D3E90023C4E91223D4F84CA0D4F848802AF000430B934FF0FF32A74B40460B9901F084FDA0B94FF0FF32A34B31
:4027400040460B99FFF700FD60B90022002340465146FFF7EFFC10B12D2384F843309C4B9C4A0AE0424653464046514601F068FD002800F09281984B984AB9F1470F8CBF5A
:4027800090469846032323612BF0040323604FF0000A3DE0B9F1670F00F08A81B9F1470F00F0868123600193636800210DF13302059002920093424653460691CDF810908F
:4027C000CDF80CE02846FFF7F4FE09F0DF03472B804600F08481B9F1650F0D9900F28D8101394A4604F150000D91FFF742FF0E9A82468318012A236100F37C812268D10716
:4028000000F178819DF8333013B12D2384F84330009733460FAA2146284600F09FF9013002D14FF0FF3096E123685A0501D4236965E0B9F1650F40F2D580D4E9120100227D
:402840000023FFF76DFC78B30123654A31462846B8470130E5D00E9B0D9A9A420BDB2368D80708D423689B0740F111814FF0000804F1190906E10A9B099A31462846B84755
:402880000130CED04FF0000804F11A090E9B013B9845E7DA01234A4631462846B8470130BFD008F10108F1E70D9B002B29DC01234B4A31462846B8470130B2D00D9B23B989
:4028C0000E9B13B92368D907CCD50A9B099A31462846B8470130A4D04FF0000904F11A0A0D9B5B42994509DA0123524631462846B847013095D009F10109F1E70E9B4246DC
:40290000A7E00E9AA36D9A42A8BF1A46002A914606DC4FF0000A29EAE97904F11A0B11E01346314642462846B8470130F1D178E701235A4631462846B84701303FF471AFC6
:402940000AF1010AA36DC9EB03029245F0DB08EB03090D9A0E9B9A420FDB2368DA070CD40E9B0D9A9844C9EB08089B1A9845A8BF9846B8F1000F08DC0FE00A9B099A314674
:402980002846B8470130EBD14BE743464A4631462846B84701303FF444AF4FF0000928EAE87804F11A0A09E00123524631462846B84701303FF435AF09F101090D9A0E9B3F
:4029C0009B1AC8EB03039945EEDB4BE7FFFFEF7FC2420000C6420000CA420000CE420000D24200000E9A012A01DCDB0738D50123424631462846B84701303FF412AF0A9BEF
:402A0000099A31462846B84701303FF40AAFD4E9120100220023FFF783FB20B14FF0000804F11A090EE00E9B08F10102013B19E001234A4631462846B84701303FF4F1AED6
:402A400008F101080E9B013B9845F1DB534604F1500231462846B84701307FF403AFE0E64246012331462846B8470130EED1D8E601234A4631462846B84701303FF4D1AE2D
:402A800008F10108E3680F9A9B1A9845F0DBE0680F9B9842B8BF18465DE062680EA8531C0DF1340E4BF480637FF474AE062201E012B90122626075E6002106910DF1330101
:402AC0008DE80C00236005904246CDF81090CDF80CE0029153462846FFF76BFD80460D9BD81C02DB626893421DDDA9F102095FFA89F970E60133236184E6B9F1660F14D1D3
:402B00000029636807DD216113B92268D2071DD501330B4419E013B92268D00701D5023313E0012311E04FF067090D9B0E9A934205DB22682361D10708D5013305E0002BA3
:402B4000D4BFC3F102030123134423610D9B4FF0000AA36556E611B0BDE8F08F2DE9F04791461F460A698B6806469342B8BF1346C9F8003091F843200C46DDF8208012B1A9
:402B80000133C9F800302368990642BFD9F800300233C9F80030256815F0060510D104F1190A07E00123524639463046C04701301AD00135E368D9F800209B1A9D42F1DB7C
:402BC00094F843302268003318BF012392060FD5E118302081F843005A1C94F845102244023382F8431003E04FF0FF30BDE8F08704F1430239463046C0470130F4D02268BC
:402C0000D9F80050E36802F00602042A08BF5D1B2269A3680CBF25EAE57500259342C4BF9B1AED184FF000091A344D4509D00123224639463046C0470130D5D009F101095D
:402C4000F3E70020BDE8F087012B30B50ADC920803680C68013A002A40F8044B41F8043BF6DC30BD03460D781C7803F8015B01F8014BD41A0444002CF5DC30BDF8B50F468B
:402C8000144606461D4698470028214638460BDAA847002801DA3846F8BD21463046A847002809DB3046F8BDA8470028F3DC21463046A8470028F5DB2046F8BD2DE9F04FF8
:402CC00006468B46144685B00093B20707D1A30705D1B4F1040818BF4FF0010801E04FF002083319BBF1060F019326D81F4604FB0B65AF4280F01681B9464E4501D327444E
:402D0000F7E7C4EB090A49465046009B98470028F5DDB8F1000F08D1D9F80030DAF80020C9F80020CAF8003005E04346224651464846FFF789FFD146DFE74FEA5B050BF118
:402D4000FF33BBF1070F04FB0565019326D0BBF1280F04FB036919D94FEADB076743F119CA19009B3046FFF789FFEA192946009B8246E81BFFF782FF0546A9EB47004A46E6
:402D8000009BC119FFF77AFF814600E0B2462946009B4A465046FFF771FF0546B8F1000F04D133682A6832602B6005E04346224629463046FFF748FF019B371904FB03658D
:402DC000A9463B19029301970023029AC4EB020A554555D303933146009B504698470028039B24DC15D1B8F1000F08D1019BDAF800201B6801990A60CAF8003005E0434658
:402E0000224651460198FFF71FFF019B234401930123029A22440292D7E703933146009B284698470028039B18DB03D02D1B5545F3D225E0B8F1000F06D12B68D9F8002097
:402E40002A60C9F8003005E04346224649462846FFF7FAFEC4EB09090123E7E7B8F1000F06D1DAF800302A68CAF800202B6005E04346224629465046FFF7E6FE2D1BC7E728
:402E800004FB0BFB63B3019B06EB0B079A1BC3EB0A0B5A45A8BF5A462AB14346C2EB0A013046FFF7D1FEC9EB0702C5EB0905121BAA4228BF2A4622B14346B91A5046FFF73D
:402EC000C3FE5C4506D2009B2246BBFBF4F13046FFF7F4FEAC4225D27E1BB5FBF4FBF4E6B3445F451ED23D46AE4201D32744F8E7C4EB050929464846009B98470028F5DD5B
:402F0000B8F1000F06D12B68D9F800202A60C9F8003005E04346224649462846FFF794FE4D46E1E705B0BDE8F08F034613F8012B002AFBD1181A013870472DE9F74F036914
:402F40000C6980469C427FDC013C01F114074FEA840E00F1140606EB0E0357F82450019356F824300135B3FBF5F507EB0E09C5B34FF0000A3846B446D34650F8043B9AB2C6
:402F800005FB02A21B0C4FEA124A05FB03A392B2C2EB0B0BBCF800204FEA134A5A441FFA83FBDCF800308145CBEB134303EB224392B242EA03424FEA234B4CF8042BDCD2BF
:402FC00056F80E306BB9019B043B9E421A4602D3C8F8104005E01268043B002AF8D1013CF3E7404600F0E5FF00282BDB304601354FF0000E57F8042B036891B2C1EB0E0E04
:40300000120C99B27144C2EB134303EB214389B24FEA234EB94541EA034340F8043BE9D256F8242006EB840362B9043B9E421A4602D3C8F8104005E01268043B002AF8D17D
:40304000013CF3E7284600E0002003B0BDE8F08F2DE9F04F456A95B08246219CCDE9022345B9102000F090FDCAF82400456085600560C560DAF82430196859B15A6801230F
:4030800093404A608B60504600F0BBFDDAF8243000221A60039BA04A002BBDBF01232360039B0023BCBF23F000430393DDF80C80A8BF236028F000431B0D1B0593421DD1F9
:4030C00042F20F73209A1360029B43B9934A944BC8F31300002814BF1846104600E09048229B002B00F04685C37813B100F1080300E0C31C229A136000F03CBDDDE90245E1
:403100000022002320462946FFF70AF8074658B1209A01231360229B002B00F01E8581481860013800F026BD12AB019313AB009322462B46504600F0B7FFC8F30A560490A8
:4031400056B1C5F3130343F07F51204641F44011A6F2FF3611971DE0139B129E1E4406F23243202B0ADD029A06F21240C3F1400322FA00F008FA03F3184304E0C3F12000C6
:40318000029B03FA00F0FEF7EDFC0123A1F1F871013E11930022644BFEF7A6FB58A3D3E90023FEF755FD58A3D3E90023FEF79EFB044630460D46FEF7E5FC55A3D3E90023F5
:4031C000FEF746FD02460B4620462946FEF78EFB04460D46FEF7D6FF00228346002320462946FEF7A7FF58B15846FEF7CBFC02460B4620462946FEF793FF08B90BF1FF3B77
:40320000BBF1160F0DD8DDE90223484901EBCB01D1E90001FEF7ACFF30B10BF1FF3B002300E00123109300E01090129B9E1B731E079343BFC3F10008002307934FF0000895
:40324000BBF1000F06DB079BCDF82CB05B440793002705E00023CBEB0808CBF100070B931E9B092B28D8052BC4BF043B1E931E9BC8BF0025A3F10203D8BF0125032B20D86F
:40328000DFE803F0060E0204012302E0012308E000230A931F9B002B1DDD9946059321E000230A931F9B0BEB030909F10103012B0593B8BF012315E0012500231E930A95AA
:4032C00001E001230A934FF0FF390022CDF8149012231F9206E04FF001094B46CDF81490CDF87C90DAF8244000226260042101F114029A421CD86268490001326260F6E74E
:4033000061436F63A787D23FB3C8608B288AC63FFB799F501344D33F0000F07FD4420000DD420000D34200000000F83FF04200006168504600F030FCDAF8243020601B6829
:403340000693059B0E2B00F25B81002D00F05881DDE90234BBF1000FCDE90E3430DD9F4A0BF00F034FEA2B1502EBC303E80618CBCDE908340CD5DDE90E01994B05F00F05D3
:40338000D3E90823FEF78EFD0324CDE9020100E00224934E6DB1E90708D5DDE90801D6E90023FEF755FCCDE9080101346D100836F0E7DDE90823DDE90201FEF773FD20E058
:4033C000CBF1000505B3DDE90E01844B05F00F0203EBC203D3E90023FEF73AFCCDE902017F4E2D110023022455B1EA0705D5D6E90023FEF72DFC013401236D100836F3E721
:403400001BB1CDE9020100E00224109BE3B1DDE902560022734B28463146FEF78BFE98B1059B8BB1B9F1000F40F3E6800BF1FF330893314600226C4B2846FEF709FC013434
:40344000CDE902014E4602E0059ECDF820B02046FEF798FBDDE90223FEF7FAFB634B0022FEF744FAA1F1507304460C931D46D6B9DDE9020100225E4BFEF736FA22460C9B27
:40348000CDE90201FEF774FE002840F03F820C99224601F10043DDE90201FEF74BFE002840F02B82A8E00A9A4C4B711E002A49D003EBC103D3E9002300204E49FEF7F2FCC5
:4034C00022462B46FEF710FACDE90C01069CDDE90201FEF757FE0546FEF754FB02460B46DDE90201FEF700FADDE90C23303504F8015BCDE90201FEF71DFE002840F01D8329
:40350000DDE9022300203749FEF7EEF9DDE90C23FEF710FE002840F0D180069BE31AB3426ADADDE90C0100222F4BFEF791FB0022CDE90C01DDE902012B4BFEF789FBCDE969
:403540000201C4E703EBC1012246D1E900012B46FEF77EFB069BCDE90C011D469C19DDE90201FEF70FFE0646FEF70CFB02460B46DDE90201FEF7B8F9303605F8016BAC4297
:40358000CDE902014FF0000222D11A4BDDE90C01FEF7ACF902460B46DDE90201FEF7E8FD002840F08B80DDE90C2300201149FEF79BF902460B46DDE90201FEF7BBFDD8B11D
:4035C00014F8013C621E302B40F0B7821446F7E7054BFEF73DFBCDE90201C0E7F0420000C84300000000F03F0000244000001C40000014400000E03FDDE90E34CDE9023496
:40360000139B002B7CDBBBF10E0F79DCAB4B03EBCB03D3E900671F9B002B14DA059B002B11DC40F06C810022A54B30463946FEF70FFBDDE90223FEF791FD059D2E4600280D
:4036400040F05F8165E1069CDDE9028932463B4640464946FEF726FCFEF794FD0546FEF791FA32463B46FEF7F3FA0B46024649464046FEF739F905F1300E069B04F801EB1E
:40368000C3EB040E059B73452DD102460B46FEF72DF98046894602460B4630463946FEF749FD78B942464B4630463946FEF738FD002800F04482EB0704D440E2DDF820B00A
:4036C00000E01C4614F8012C631E392A07D1069A9A42F6D1069930220BF1010B0A701A7801321A702BE20022764BFEF7B1FA0022002380468946FEF713FD0028A6D01EE281
:403700000A9A002A2BD01E9A012A0ADC119A12B103F2334302E0129BC3F136033D46444613E0059B5D1EAF42BFBF0B9BEA1B9B180B93059BB6BF2F467D1B0025002BA7BF44
:403740004446059BC3EB08040023079A01211A4450469844079200F0F3FA064602E03D4644460A9E5CB1079B002B08DDA342A8BF2346079AC3EB0808E41AD31A0793002FCF
:403780001DDD0A9BABB18DB131462A46504600F071FB049A01460646504600F0DAFA04990890504600F02DFA089B04937A1B06D000E03A460499504600F05CFB0490012155
:4037C000504600F0BDFA0B9B05465BB31A460146504600F04FFB1E9B0546012B18DC029B83B9039BC3F3130373B9039B23F000473F0D3F054FB1079B08F101080133079389
:40380000012702E0002700E0029F0B9B73B100E000272B6905EB8303186900F044FAC0F1200004E01E9B012BD9DD0B9F0120079B184410F01F0008D0C0F12003042B02DD5A
:40384000C0F11C0002E006D018461C30079B8044034404440793B8F1000F05DD42460499504600F055FB0490079B002B05DD29461A46504600F04CFB0546109B23B32946DB
:40388000049800F096FB00281EDA00230A220499504600F0CDF90A9B0BF1FF3B0490002B00F05F81314600230A22504600F0C0F9B9F1000F06463FDC3BE000BFF0420000F8
:4038C0000000144000002440059B002B2BDC1E9B022B28DDDDF81490B9F1000F11D129464B460522504600F0A3F901460546049800F05FFB00280CDC03E0354600E000250B
:403900002E461F9B069C6FEA030B09E03546DDF820B0069B069A5C1C312313700BF1010B05960026F7E00A9BDDF8149023B9069CB2E01E9B022BCFDC002C05DD314622466B
:40394000504600F0E5FA06469FB17168504600F023F90446326906F10C01023292000C30FEF714FE01222146504600F0D1FA059000E00596029B069F03F0010307932946AC
:403980000498FFF7DAFA3146044600F13008049800F00FFB059A02902946504600F025FBC36802463BB901460A90049800F001FB0A9A034600E00123114650460A9300F0A0
:4039C00020F90A9B53B91E9A42B9079A32B9B8F1390F2AD0029B002B1CDC1DE0029A002A04DB1BD11E9ACAB9079ABAB9002B13DD01220499504600F08BFA2946049000F05D
:403A0000D8FA002803DC07D118F0010F04D0B8F1390F0AD004F131087C1C0CE0002B07F101040BDDB8F1390F03D139233B70013756E008F1010887F800806CE0069B2746C7
:403A4000E31A4B4504F8018C3BD000230A220499504600F0EDF8059B04909E424FF00A024FF000033146504604D100F0E1F80646059084E700F0DCF8002306460A22059939
:403A8000504600F0D5F8059079E700230A220499504600F0CDF8049029460498FFF74DFA069B00F1300804F8018BE31A4B45ECDB069B0596B9F1010FACBF4B4401331F467C
:403AC000002601220499504600F022FA2946049000F06FFA002803DC15D118F0010F12D03C4614F8013C621E392B09D1069B934204D10BF1010B3123069A02E01446F0E718
:403B00000133137007E03C4614F8013C621E302B01D11446F8E72946504600F072F8059B6BB12EB19E4203D03146504600F069F80599504600F065F801E0DDF820B0049987
:403B4000504600F05EF80023209A23700BF101031360229B1BB11C6001E008480AE0069808E0B9F1000F3FF7E2AE1E9B022B7FF7DEAEB1E615B0BDE8F08F00BFD242000026
:403B8000004870479081FF1F024B0146186800F0E7BA00BF8C81FF1F70B5456A04460E463DB91020FFF7F0FF6062456085600560C560656AEB6843B1636ADB6853F826005E
:403BC00078B1026843F8262017E021220421204600F0B8FA636AE860DB68002BECD1002070BD012101FA06F56A1D9200204600F0A9FA0028F3D04660856000230361C36073
:403C000070BD70B5446A06460D463CB91020FFF7BBFF7062446084600460C4603DB1736A6A68DB6853F82210296043F8225070BD2DE9F04106460C460D691F4601F1140E9A
:403C40000023DEF80000013381B202FB0171000C0F0C02FB007089B201EB00419D424FEA10474EF8041BECDCD7B1A3689D4212DB616830460131FFF78FFF8046226904F143
:403C80000C01023292000C30FEF780FC21463046FFF7B7FF444604EB850301355F6125612046BDE8F081030C1B0413B90004102300E0002310F07F4F04BF0002083310F000
:403CC000704F04BF0001043310F0404F04BF80000233002803DB420003D5581C70471846704720207047036813F007020BD0D90722D49A074BBF5B089B08036003604CBF02
:403D000001200220704799B209B91B0C102213F0FF0F04BF1B0A0832190704BF1B090432990704BF9B080232D90702D45B0805D0013203601046704700207047202070471A
:403D400010B50C460121FFF727FF01224461026110BD2DE9F74F14460A69236988469A42BEBF0B46A0461C46D8F81070D4F81090D8F80830D8F8041007EB09069E42C8BF71
:403D80000131FFF709FF00F114052B4605EB860C0022634502D243F8042BFAE704F1140208F1140102EB890301EB87070093009B0192934257D9B2F800B0BBF1000F23D013
:403DC0008946AE464FF0000859F8044BBEF800A0A3B20BFB03A34FEA144ADEF8004043444FEA14480BFB0A84F24604EB13449BB243EA04434F454FEA14484AF8043B01D9A2
:403E0000D646E1E7CEF80480019B0432B3F802A0BAF1000F21D02C4689462B684FF00008B9F800E0B4F802B09BB20AFB0EBEA346F04443EA08434BF8043B59F8043BB4F80F
:403E400004E01B0C0AFB03E34F4503EB18434FEA134801D95C46E3E763600435A7E75CF8043D13B9013E002EF9DC066103B0BDE8F08F00002DE9F843154612F0030206462B
:403E80000F4607D0214C013A002354F82220FFF7CFFE0746AD1036D0746A3CB91020FFF773FE7062446084600460C460D6F82480D8F808404CB940F271213046FFF740FF60
:403EC00004460023C8F8080003604FF00008EB070AD5394622463046FFF73BFF814639463046FFF78EFE4F466D100CD0206808B10446ECE7224621463046FFF72AFF206017
:403F0000C0F80080F4E73846BDE8F883B84300002DE9F0470C460746914626694FEA621A56444968A368751CAB4202DA01315B00FAE73846FFF730FE002380461A4600F1D4
:403F40001401534503DA41F823200133F9E72AEAEA73206901EB830319F01F0904F1140101EB800E14D0C9F1200C002208689A4600FA09F0024343F8042B51F8042B8E45DD
:403F800022FA0CF2F2D8CAF8042042B1B51C06E0043B51F8042B8E4543F8042FF9D8013D3846C8F810502146FFF72BFE4046BDE8F08703690A6910B59B1A11D192001430AF
:403FC000143183180A4453F8044D52F8041D8C4202D007D3012010BD9842F4D3002010BD184610BD4FF0FF3010BD2DE9F8430C460746114620461546FFF7DBFF061E08D15B
:4040000031463846FFF7C8FD012303614661BDE8F883BCBF23462C4638466168BABF1D4601260026FFF7B8FD2B69C660266905F1140904F1140101EB860709EB830800F1C1
:4040400014054FF0000C51F8042B59F8044B93B29C44A3B2240CC3EB0C03C4EB124202EB23429BB24FEA224CC84543EA02428E4645F8042BE7D8BE450ED25EF8041B8AB203
:404080006244131403EB114392B242EA03424FEA234C45F8042BEEE755F8043D0BB9013EFAE70661BDE8F8832DE9F3411C4601219046089E099DFFF76FFDC4F31302C4F385
:4040C0000A5407460CB142F480120192B8F1000F19D002A840F8088DFFF705FE009B48B1019AC0F1200102FA01F10B43C2407B61019200E07B61019B002B14BF02210121A3
:40410000BB61396107E001A8FFF7EDFD019B01217B613961203034B1A4F2334404443460C0F1350009E0A0F2324007EB810330601869FFF7B8FDC0EB41102860384602B04E
:40414000BDE8F08138B502FB01F4214600F008F8054618B122460021FEF723FA284638BD70B5CD1C25F0030508350C2D38BF0C25002D064601DBA94202D90C23336046E015
:4041800000F05CF8234B1C681A462146A1B10B685B1B0ED40B2B03D90B60CC18CD501EE08C420BBF63684B681360636018BF0C4615E00C464968E9E7174C23681BB93046F4
:4041C00000F02CF820602946304600F027F8431C18D0C41C24F00304A0420DD12560304600F02DF804F10B00231D20F00700C31A0ED05A42E25070BD211A304600F00EF871
:404200000130EBD10C233360304600F018F8002070BD00BF3082FF1F2C82FF1F38B5064C0023054608462360FCF74AFC431C02D1236803B12B6038BDB48AFF1F704770473F
:404240004FEA410C7FEA6C5C02D150EA013C0AD14FEA430C7FEA6C5C02D152EA033C02D14FF0000070474FF00100704700000000D4DFFF7F010000004E617669676174653A
:4042800021000000256C7500256C660025640000505100401000C05100401000F0510040100000000140001000140140000800400140000A004C01400002005001402000FB
:4042C0004300494E4600696E66004E414E006E616E003000496E66696E697479004E614E00504F534958002E0000000000000000000000000000F03F00000000000024407C
:4043000000000000000059400000000000408F40000000000088C34000000000006AF8400000000080842E4100000000D01263410000000084D797410000000065CDCD413C
:40434000000000205FA00242000000E876483742000000A2941A6D42000040E59C30A2420000901EC4BCD64200003426F56B0C430080E03779C3414300A0D8855734764300
:4043800000C84E676DC1AB43003D9160E458E143408CB5781DAF154450EFE2D6E41A4B4492D54D06CFF08044F64AE1C7022DB544B49DD9794378EA4405000000190000003D
:4043C0007D000000000000000080E03779C34143176E05B5B5B89346F5F93FE9034F384D321D30F94877825A3CBF737FDD4F1575F8B500BFF8BC08BC9E4670474D000000F5
:404400003D0B0000F8B500BFF8BC08BC9E4670472900000028440000C880FF1F00010000F00800000000000000000000000000000000000000A07440FFFFFFFF0000000071
:404440000000000000407A4000000000000000407B14AE47E17A943F00000000000000400000000000A07440EC51B81E85EBF13F9A9999999999A93FB88AFF1F0000E02E1C
:40448000C05D00001800000000366E010000000000000000000000000000000000000000000000000000000000000000C04200000000000000000000000000000000000020
:4044C00000000000000000000000000000000000000000000000000000000000000000000000000000000000000000002C81FF1FE7420000E8420000E8420000E84200004A
:40450000E8420000E8420000E8420000E8420000E8420000E8420000FFFFFFFFFFFFFFFFFFFFFFFFFFFF00000000000000000000000000000000000000000000000000008D
:40454000000000000000000000000000000000000000000000000000000000000000000000000000000000000000000000000000000000000000000000000000000000003B
:4045800000000000000000000000000000000000000000000000000000000000000000000000000000000000000000000000000000000000000000000000000000000000FB
:4045C00000000000000000000000000000000000000000000000000000000000000000000000000000000000000000000000000000000000000000000000000000000000BB
:40460000000000000000000000000000000000000000000000000000000000000000000000000000000000000000000000000000000000000000000000000000000000007A
:020000040003F7
:0200000480007A
:400000000352004005640040026500404A0001402B0101405C020140460301405D040140370501405A060140440701404008014022090140400A0140220B0140280C01400B
:40004000150D01402D0E01400D0F01405F140140411501405F160140431701403F18014026190140491A01402E1B0140094001400F410140094201400A43014004440140A4
:400080000245014003460140034701400B4801400E4901400850014003510140180419143108800F830F870F890D8B0D870D8B0F0710080609030A190B0C0C090D050E060E
:4000C0000F0A100412081503170C181F1B0F1D051F0A2410260627102801290F2A023110321F350F3F0140434101420549FF4AFF4BFF4F01501854035604580459045A0431
:400100005B045F056040624064406540668068806A806C806E80C043C101C205C9FFCAFFCBFFCD83CE03CF01D018D283DA04DB04DF01E040E240E440E540E680E880EA806A
:40014000EC80EE80005008100A841028181022102380291430283120324038503904410442A0434246A0474049804D804E01580A5A205B8062026D606F0576807810800203
:400180008202C003C20AC406CA06CC0ECE0ED0DBD218D60FD801DE04E601001F09340BC20C010D5E0E060FA1115013A8140616191DFF201822062408260229322BC42C04AC
:4001C0002D012E102FFE321F33F0370F40424101420549FF4AFF4BFF4D834E034F015018580459045A045F016040624064406540668068806A806C806E80870189048B02B7
:400200008D0E8F109502970499109B0E9F08A91EAF01B11EB301BF04C043C101C205C5ECC702C813C9FFCAFFCBFFCD83CE03CF01D018D283D403D604D904DA04DB04DF0503
:40024000E040E240E440E540E680E880EA80EC80EE80058007400E10154017061E10204022042540272229102B022D802E103008312032403741385039083DA04144428072
:4002800043404684474049864D804E0151045204584059065B20638068086A80734079808340884089048A048B40901091409440950C96869A809B059D109F40A110A3026A
:4002C000A408A520B408B504C090C220C4B0CA3CCC9ECE3ED0BBD218D60FD801DE08000602010418070108010A020E100F01161819011B021E0722083010320333023408D3
:40030000350136043E113F1040544102420649FF4AFF4BFF4F015018580459045A045C085F016040624064406540668068806A806C806E8088FF89088B0290E59104921AAA
:4003400093109410951F96EF99019B06A005A28AA443A62CA823A906AA4CAB19AD18AF06B0F0B20FB31FC045C103C206C9FFCAFFCBFFCD83CE03CF01D018D283D804D90484
:40038000DA04DB04DF01E040E240E440E540E680E880EA80EC80EE8003AA070809080B010E400F2012401404172519221B981E50212C27202C042E40332035203709390850
:4003C0003B403D204004410146404708480149204E024F2059025A026D206F057401764078808720934096069D109F40A302A520C04FC235C478CA30CCE4CE2AD0C5D23CEB
:40040000DE08E208E608070109010F0111011B012101250129012F01310139023F0140454103420649FF4AFF4BFF4D834E034F01501859045A045F016040624064406540F4
:40044000668068806A806C806E80800183018401870189018A018D018E019201940199019A019C019D01A101A202A601A701AB01AE02B002B401B501B820B920BE11BF10B1
:40048000C054C102C206C5ECC720C823C9FFCAFFCBFFCD83CE03CF01D018D403D604D804D904DA04DB04DF05E040E240E440E540E680E880EA80EC80EE8000400110039852
:4004C00009080A880B0212421304180819101A4420042110230827402BA82FA9324033103502371038403A083B1A3C483E083F1C4004410146404708480949054C084E02A3
:400500004F205101520259055A50610279208502921094049502960497019A409D109F48A005A398A602AC84B120C00FC20FC40DCAF7CCACCE7FD0C5D23CD60FD801DE04E7
:40054000E0401301230133014040410649FF4AFF4BFF4DA04F04501859045A045C305D035F01604062C06440654066C068C06AC06CC06EC0870293029F01A201A501B20107
:40058000B302B701BF04C040C103C5D0C601C702C816C9FFCAFFCBFFCDAFCE0FCF04D018D405D804D904DA04DB04DC33DD33DF01E040E2C0E440E540E6C0E8C0EAC0ECC0D8
:4005C000EEC0108019082244272029082C803080310233013701380841024308450249014C045084530859015A888F0497809B109F40B104C408CA82CC89CE02D083D2203E
:40060000D60BE040EC804030410249FF4AFF4BFF4DA04F0450185A045D015F01604062C06440654066C068C06AC06CC06EC0820183038A028B029E04A602AD01B004B2019D
:40064000B302B402B701BE10C030C102C5D0C620C710C82AC9FFCAFFCBFFCDAFCE0FCF04D018D280D405D804D904DA04DB04DC11DD11DF01E040E2C0E440E540E6C0E8C06E
:40068000EAC0ECC0EEC0041006400F0216101C101D081E081F02264027102F023C103F024010412045284F015520561057015E885F017640874095089F40C050C280C4209C
:4006C000CA10CEA0D066D6D0E60840244101420349FF4AFF4BFF4F0150185A045F016040624064406540668068806A806C806E80C026C101C203C9FFCAFFCBFFCD83CE03A6
:40070000CF01D018DA04DF01E040E240E440E540E680E880EA80EC80EE80410442084344450146084744492088048A088D2195089F40A101A404B501B608B704D0FED204A3
:40074000E020EA5040624101420349FF4AFF4BFF4D834E034F0150185A045F016040624064406540668068806A806C806E80C064C101C203C6E0C72CC838C9FFCAFFCBFFE8
:40078000CD83CE03CF01D018DA04DF01E040E240E440E540E680E880EA80EC80EE804104420843444501474448044B104F10550157148310D0DED224020206020701090102
:4007C0000D010E0211011201160219011A021D0120012202230127022A022B012E022F023003350237013A023F40404249FF4AFF4BFF4F015018580459045A045C485D0471
:400800005F116040624064406540668068806A806C806E808101820183028504860189048E018F05910494019A019B04A001A104A302A801A904AB02AC01AF04B103B201C8
:40084000B704BB02BE04BF40C042C9FFCAFFCBFFCD83CE03CF01D018D804D904DA04DC80DD04DF11E040E240E440E540E680E880EA80EC80EE800080020103900440050247
:40088000062009080A880B040F1411101202130114401601171019021A801C20200221102442250126022A852B082C402D102E202FC932423310350237103B943C403F15C5
:4008C00041204280452046847B047F04841191109208931B9442952096809A809B109D02A040A128A384A501C0BDC26EC4DBCABFCCADCEFED0A5DE240101020203020B0202
:400900000E020F021201160217011A021C011E02230227022A022B022F02300333033A023B08404249FF4AFF4BFF4D834E034F0150185280580459045A045B045C885D4437
:400940005F116040624064406540668068806A806C806E8081018202830286018B028E048F029202960297019A049C019E02A302AA02B303B403B604BA20BB08BE40C04274
:40098000C5ECC620C80BC9FFCAFFCBFFCD83CE03CF01D018D401D804D904DA04DB04DC88DD44DF11E040E240E440E540E680E880EA80EC80EE8003E10440074009290B018F
:4009C0000E440F111110151019801A0C1B201C801E401F0121082310260827102B802D102FA131083608384039103B013C403F11412042804520468047014905512059853F
:400A000076807B047F0489108C01911093099440968897129D029F10A384A508A720B404B701C09DC2FFC442CAF1CC42CEBDD0A5D60BDE24E240E660EA01EC100202070835
:400A400009020B041506180219012201260229022B042D0630013202330735083B0C3E044045420349FF4AFF4BFF4F0150185280580459045A045B045C235D325F0160401D
:400A8000624064406540668068806A806C806E80C051C203C9FFCAFFCBFFCD83CE03CF01D018DA04DD02DF01E040E240E440E540E680E880EA80EC80EE8006400F08168082
:400AC00017081D0A1E20260427082A022B402F0A36143C103F08410842024508464048014F8076808F1097809B10A304A502AB20B740C010C240C430CA30CC60CE60D0CAD9
:400B0000D218E640E8104051420649FF4AFF4BFF4D834E034F0150185A045D025F016040624064406540668068806A806C806E808014860689038A0C8B0C8E019505961E30
:400B4000970A9A1A9B0FA201A903AB0CAD05AF0AB21EB30FB401BA08BE10C045C206C5ECC602C807C9FFCAFFCBFFCD83CE03CF01D018D283D403D604D804D904DA04DB0469
:400B8000DC22DD22DF01E040E240E440E540E680E880EA80EC80EE8004020504060207040E280F1016401C181D0427202F0A36143C104202464048014B104D044F9157404D
:400BC0005C805D045F2167806C016F0E740176408884941097809A029E40A214A401A74AC0F0C260C410CA30CC60CE20D088D23CD6F0D88032023310340137203B80832010
:400C0000CCF0CE10E280080109080A023020320834083510831097809C019F10A602C250CCF0E2208740920297809C089D10A108A420A60AE21086028C209C089D10A10819
:400C4000A420A60AAE01E240EC402B015301CA08D4019702A30187019702A3018F019702E00288208C048D109B209C289D10A420A608AB20B508EA8008205F2060048408D3
:400C8000860890049B209C28A608C240D620D840E210E610000B08010A010C0A0E01101C1A101C0C00FF01FF020300005000000000000000000B0B0000000000007F7F00C3
:400CC000000000004000005414001400000000000000000000000400000808000800000000000000000000000000000000000000000000000000000000000000000000001C
:400D000000000000000000000000000000000000000000000000000000000000000000000000000000000000000000000000000000000000000000000000000000000000B3
:400D40000000000000000000000000000000000000000000000000000000000000000000000000000000000000000000000000000000000000000000000000000000000073
:400D80000000000000000000000000000000000000000000000000000000000000000000000000000000000000000000000000000000000000000000000000000000000033
:400DC00000000000000000000000000000000000000000000000000000000000000000000000000000000000000000000000000000000000000000000000000000000000F3
:0200000490006A
:0400000000004005B7
:0200000490105A
:04000000BC90ACAF55
:0200000490303A
:02000000183AAC
:0200000490402A
:4000000000000000000000000000000000000000000000000000000000000000000000000000000000000000000000000000000000000000000000000000000000000000C0
:400040000000000000000000000000000000000000000000000000000000000000000000000000000000000000000000000000000000000000000000000000000000000080
:400080000000000000000000000000000000000000000000000000000000000000000000000000000000000000000000000000000000000000000000000000000000000040
:4000C0000000000000000000000000000000000000000000000000000000000000000000000000000000000000000000000000000000000000000000000000000000000000
:0200000490501A
:0C00000000012E12306900012E3248A3CE
:00000001FF