:400000000080002011000000E1030000E103000008B5044B1A6803F53F5302331A6000F0FFF900BFFA46004010B5054C237833B9044B13B10448AFF300800123237010BDB7
:400040004881FF1F00000000B8140000084B10B51BB108490848AFF300800848036803B910BD074B002BFBD0BDE81040184700BF000000004C81FF1FB8140000C880FF1F6A
:4000800000000000034B1A6801321A6000225A60704700BF6481FF1F08B500F011FD08BD00B5A1B000F018FDC343074A934208D8064A12680649684600F0DAFD684600F0AB
:4000C000DDFB21B05DF804FB40420F006481FF1FBC14000008B562B600F024F800F0B4FB0C4800F0CBFB00F071FB0B4800F054FB00F0CAFC00F05EFC00F030FD00F058FDC5
:40010000064800F03BFD00F0F5FB054800F0D8FBFEE700BFCC14000085000000A10000009900000008B500F0E9FA0021084600F0F3FA024800F088FA08BD00BFD81400000E
:40014000FEE700BFF0B40022174611E050F82760F3B226F0FF0608E001EB420511F812406D78A5550132013BDBB2002BF4D101371A2FEBD9F0BC70470C4B1B78DBB203F0E5
:4001800007010B4A11701B09013213700422094B1A701023084A1370402130321170043213704422054B1A70704700BFCF0100496E5800404D510040905A00407658004093
:4001C00008B50A46002100F04AFD08BD38B50122264B1A801C2202331A70192502331D80182202331A70022203F27A231A7008224FF040231A70032103F5007319701C4B9F
:400200001B78DBB21B490B701B4B1A8041F25122023B1A8000240CE0184B1B7803F0010343EA440404F003044FF4F07000F0D0FC013D0DB1032CEFD115B90320FFF780FF25
:400240000F4B4FF480721A8007221A7000220D490A704820023108701A700222033B1A70094A137843F00303137038BD8040004008010049A14600402242004025420040D4
:400280000440004006400040A243004008B500F0DBFC08BD38B572B63C4A137843F00403137000240CE03A4D630019194A0011462A44084691882858FFF782FF0134E4B27F
:4002C000092CF0D900240BE03149A3001819420088188022016CC06BFFF7D8FF0134E4B2002CF1D02B494FF09040FFF72BFF0322294B1A80294A03F52A4390331A60284AA5
:40030000137843F0020313701032137843F002031370244C237843F040032370A2F58632513A137843F01003137008221E491F48FFF7ACFF08221E491E48FFF7A7FF082257
:400340001D491E48FFF7A2FF08221D491D48FFF79DFF0A221C491D48FFF798FF1C4A137843F0080313701B4D61232B70FFF72EFF81232B700122184B1A70FFF7FDFE0E2244
:4003800021461648FFF782FF38BD00BFE8460040F01400006C000048485800400404044403500140A0430040E006004802510040E806004812510040F006004822510040B5
:4003C000F8060048425100400007004860510040224300400048004004000840B043004008B500F005FC03680C2B00D1FEE7FEE708B5094B1A681044084BC31A802B02DC6D
:40040000054B186005E000F0F3FB0C2303604FF0FF32104608BD00BFCC80FF1F8081FF1F08B5104E104D16E029686B68AC68002204E051F8040B43F8040B0432A242F8D15B
:40044000E868002203E0002143F8041B04328242F9D11035013E002EE6D100F0CFFBFFF739FEFEE7010000009015000008B5104A104B1A60104A136843F40073136000230C
:400480000AE0032B03D80D4A52F8231000E00C490C4A42F8231001332F2BF2D90A4B1A780A4B1A70074A0A4B1A60FFF7F3FE08BD0004FA050CED00E014ED00E000000000D5
:4004C000E10300000080FF1FBC760040C080FF1F08ED00E010B50B4C237803F09F032370237803F0F00323702378184340F010002070012000F044F9237803F0EF032370BB
:4005000010BD00BF2051004038B505460E4C237843F020032370237803F0BF032370002000F02EF9237803F0F003237023781D4345F010052570012000F022F9237803F0A6
:40054000EF03237038BD00BF2051004070B5354B1A7802F08002D2B21A7033490A7802F0F00242F00F020A7001310A7802F0F0020A7001310A7802F0F0020A701A7802F091
:40058000DF021A701A7842F040021A704FF4CA76002000F0F5F8234D2B7843F010032B70012000F0EDF8214B1C78E4B22B7803F0EF032B70002000F0E3F804F00804E4B29C
:4005C0002B7843F010032B70012000F0D9F82B7803F0EF032B7014B90A2000F0D1F8013E0CB1002ED4D10F4A137803F0BF031370137803F08003DBB213700232137803F014
:40060000F00313700132137803F0F00343F00F0313700132137803F0F00343F00F03137070BD00BF20510040225100402151004010B50446FFF78AFF2009FFF765FF04F065
:400640000F00FFF761FF10BD38B505460078012404E0FFF7EDFF285D0134E4B20028F8D138BD00BF10B50446FFF770FF2009FFF731FF04F00F00FFF72DFF10BD08B52820FE
:4006800000F068F80320FFF725FF052000F062F80320FFF71FFF0F2000F05CF80320FFF719FF012000F056F80220FFF713FF052000F050F80620FFF7D5FF0E20FFF7D2FF98
:4006C0002C20FFF7CFFF0820FFF7CCFF0120FFF7C9FF0C20FFF7C6FF0320FFF7C3FF052000F038F808BD00BF08B50C20FFF7BAFF0122014B1A7008BD6C81FF1F08B5054B29
:400700005B7823B9FFF7BAFF0122024B5A70FFF7EBFF08BD6C81FF1F08B5032819D8DFE800F002070D1381F08000FFF79BFF08BDA1F14000C0B2FFF795FF08BDA1F16C00E1
:40074000C0B2FFF78FFF08BDA1F12C00C0B2FFF789FF08BD10B5044605E0084B186800F037FAA4F50044B4F5004FF6D8034B586800FB04F000F02CFA10BD00BFD080FF1FB3
:4007800008B5034B1B7A00FB03F000F021FA08BDD080FF1F704700BF014B1B685864704708ED00E04001C0B2014B1870704700BF01E400E00222014B1A60704700E100E0BC
:4007C0000222014B1A60704780E100E008B5FFF7F7FF0448FFF7E0FF0720FFF7E3FFFFF7E9FF08BD950700007222084B1A702022A3F580731A700622673B1A704722103347
:400800001A70002254331A70704700BF8765004010B500F0E5F904460A4A137843F020031370A2F58072137843F010031370033A137843F01003137000F032F8204600F0E6
:40084000D3F910BD9765004008B5054B1B7823B9FFF7CAFF0122024B1A70FFF7D9FF08BD6E81FF1F034B1B7813F0040FFAD1024B18707047646400404765004038B5074B4D
:400880001B782BB938BDFFF7EDFF0134A4B201E005460024285D0028F5D138BD6E81FF1F054A137843F0020313701032137843F002031370704700BFA2430040704700BF6C
:4008C000014B1B689864704708ED00E04001C0B2014B1870704700BF02E400E00422014B1A60704700E100E00422014B1A60704780E100E008B5FFF7F7FF0448FFF7E0FFCC
:400900000720FFF7E3FFFFF7E9FF08BDBD080000054A137843F0040313701032137843F004031370704700BFA8430040054B1A7802F0FD021A701A7800F0020010431870D2
:40094000704700BF28580040014B1870704700BF825B0040064B1B78C3F3810303F19243063393F82831DBB2024A1370704700BF285800400A46004008B5064B1A7802F022
:40098000F3021A701A7800F00C0010431870FFF7E1FF08BD2858004008B50020044B187001331870FFF7E8FF0220FFF7BFFF08BD2858004008B5074B1B7823B9FFF7ECFFED
:4009C0000122044B1A70FFF7A3FF7D20FFF7BCFF08BD00BF7081FF1F054A137843F0010313701032137843F001031370704700BFA74300400F490B7803F0FC0200F0030305
:400A000013430B7001280AD10B4B1B78DBB20B4A13700B4B1B78DBB2013213707047094B1B78DBB2054A1370074B1B78DBB2013213707047405800401001004930460040A3
:400A400014010049AD010049B501004908B50120FFF7D0FF0B4B1A7802F0DF021A701A7802F0FB021A701A7842F008021A7003F287231A7802F0E7021A701A7842F010026B
:400A80001A7008BD4058004008B5054B1B7823B9FFF7DCFF0122024B1A70FFF79DFF08BD7181FF1F024A137843F080031370704773640040014B1870704700BF8364004012
:400AC000014B1878704700BF63640040014B1860704700BF24640040014B1868704700BF44640040014B1860704700BF0464004000F00300044B1A7802F0FC021A701A78AF
:400B000010431870704700BF7364004008B501E0FFF7E2FFFFF7D4FF10F0080FF8D108BD08B54FF0FF30FFF7D1FF4FF0FF30FFF7D9FF00F055F8084A137843F0100313705A
:400B400000F052F80020FFF7D3FFFFF7DFFF0220FFF7B0FF08BD00BF9364004008B5054B1B7823B9FFF7DCFF0122024B1A70FFF799FF08BD7281FF1F704700BF014B1B680D
:400B80001864704708ED00E04001C0B2014B1870704700BF00E400E00122014B1A60704700E100E00122014B1A60704780E100E008B5FFF7F7FF0448FFF7E0FF0720FFF743
:400BC000E3FFFFF7E9FF08BD790B0000000000000230800803D000BF01380046FCD17047EFF3108072B6704780F31088704700BF014B1868704700BF4081FF1F0E4B70B52C
:400C00001E460E4C0025E41AA410A54204D056F8253098470135F8E700F0A8FC084B094C1E46E41AA4100025A54204D056F8253098470135F8E770BD7815000078150000BD
:400C4000781500008015000010B5431E0A44914204D011F8014B03F8014FF8E710BD03460244934202D003F8011BFAE7704700000EB400B54FF402719CB0ADF814106FF065
:400C80000041049107914FF6FF711DAB02900690084853F8042BADF81610006802A9019300F064F8029B00221A701CB05DF804EB03B070474081FF1F2DE9F0478E688246EC
:400CC0009E420C46914698463ED88A8912F4906F3AD02568096902236F1A656905EB450595FBF3F57B1C43449D4238BF1D4653050FD5294600F040FB064698B13A462169DC
:400D0000FFF7A2FFA38923F4906343F08003A38113E02A4600F08EFB064670B92169504600F0DEFA0C23CAF80030A3894FF0FF3043F04003A381BDE8F08726613E442660D3
:400D400046466561ED1BA560464528BF464649463246206800F0A8FAA36800209B1BA36023681E442660BDE8F08700002DE9F04F9DB003938B8980461C060D4616460DD5BD
:400D80000B695BB9402100F0F7FA2860286118B90C23C8F80030CDE040236B610023099320238DF82930DFF89CB130238DF82A3037463C4614F8013B1BB9B7EB060910D0AA
:400DC00003E0252BF9D02746F3E74B46324629464046FFF771FF013000F0A780099B4B4409933B78002B00F0A08000234FF0FF3204930793059206938DF853301A93012677
:400E0000052221784E4800F041FA671C049B38B14B4A3C46801A06FA00F018430490EFE7D90644BF20228DF853201A0744BF2B228DF8532022782A2A03D0079A00210A208E
:400E40000BE0039A111D12680391002A10DA524243F00200079204900BE027463B780134303B092B03D800FB02320121F5E701B107923B782E2B1ED17B782A2B0AD1039BB6
:400E800002371A1D1B680392002BB8BF4FF0FF33059310E0002319460593781C0A2407463A780130303A092A03D804FB01210123F5E703B1059103223978224800F0E6F911
:400EC00040B14023CBEB000003FA00F0049B013718430490397806221B487E1C8DF8281000F0D4F988B1194B33B9039B073323F007030833039314E003AB00932A46144B92
:400F000004A94046AFF3008007E003AB00932A460F4B04A9404600F093F8B0F1FF3F824603D0099B5344099342E7AB895B0601D4099801E04FF0FF301DB0BDE8F08F00BF38
:400F4000381500003E1500004215000000000000B90C00002DE9F04791461F460A698B6806469342B8BF1346C9F8003091F843200C46DDF8208012B10133C9F800302368BE
:400F8000990642BFD9F800300233C9F80030256815F0060510D104F1190A07E00123524639463046C04701301AD00135E368D9F800209B1A9D42F1DB94F84330226800338C
:400FC00018BF012392060FD5E118302081F843005A1C94F845102244023382F8431003E04FF0FF30BDE8F08704F1430239463046C0470130F4D02268D9F80050E36802F036
:401000000602042A08BF5D1B2269A3680CBF25EAE57500259342C4BF9B1AED184FF000091A344D4509D00123224639463046C0470130D5D009F10109F3E70020BDE8F087C1
:401040002DE9F04317460A7E85B06E2A984606460C460C9B01F1430E00F0AE8011D8632A22D009D8002A00F0BB80582A40F0CA8081F84520834955E0642A1ED0692A1CD07D
:40108000C0E0732A00F0B08009D86F2A2ED0702A40F0B8800A6842F020020A603EE0752A24D0782A3AD0ADE01A6801F14205111D1960136884F84230A8E021681A6811F0E0
:4010C000800F02D0111D196008E011F0400F02F10401196002D0B2F9003000E01368002B3CDA2D225B4284F8432037E021681A6811F0800F02D0111D196007E011F0400FC9
:4011000002F10401196001D0138800E01368227E5C496F2A14BF0A2208221BE078225A4984F845202268186812F0800F00F104051D6003D1550601D5038800E00368D00793
:4011400044BF42F0200222601BB9226822F0200222601022002084F8430001E049490A226568002DA56008DB206820F0040020602BB9002D7DD175460CE0002B79D075469F
:40118000B3FBF2F002FB1033CB5C05F8013D03460028F5D1082A0BD12368DA0708D5236962689A42DEBF302305F8013C05F1FF35C5EB0E0323612EE008681A6810F0800F15
:4011C000496903D0101D1860136808E010F0400F02F104001860136801D0198000E0196000232361754616E01A68111D1960156800216268284600F049F808B1401B60600A
:40120000636804E004F1420584F8422001232361002384F84330CDF800803B4603AA21463046FFF797FE013002D14FF0FF3026E023692A4639463046C0470130F5D023685F
:401240009B0710D5002504F1190907E001234A4639463046C0470130E7D00135E368039A9B1A9D42F2DBE068039B9842B8BF184605E00B7804F1420584F842308AE705B060
:40128000BDE8F083491500005A15000010B5C9B202449042034605D01C7801308C42F8D1184610BD002010BD884210B501EB020301D8421E0BE09842FBD28118D21AD3427A
:4012C00004D013F8014D01F8014DF8E710BD994204D011F8014B02F8014FF8E710BD000038B50546002944D051F8043C0C1F002BB8BFE41800F0D4F81E4A1368114613B94B
:401300006360146030E0A3420DD92268A018834201BF18685B681218226063600C6023E0A24203D813465A68002AF9D118681918A1420BD12168014458188242196013D116
:4013400010685268014419605A600DE002D90C232B6009E021686018824201BF106852680918216062605C602846BDE8384000F098B838BD7881FF1F70B5CD1C25F003057F
:4013800008350C2D38BF0C25002D064601DBA94202D90C23336046E000F082F8234B1C681A462146A1B10B685B1B0ED40B2B03D90B60CC18CD501EE08C420BBF63684B68BA
:4013C0001360636018BF0C4615E00C464968E9E7174C23681BB9304600F052F820602946304600F04DF8431C18D0C41C24F00304A0420DD12560304600F053F804F10B0082
:40140000231D20F00700C31A0ED05A42E25070BD211A304600F034F80130EBD10C233360304600F03EF8002070BD00BF7881FF1F7481FF1FF8B5074615460E4621B9114677
:40144000BDE8F840FFF798BF1AB9FFF749FF2846F8BD00F027F885420ED929463846FFF78BFF044650B131462A46FFF7EDFB31463846FFF735FF01E03046F8BD2046F8BD8E
:4014800038B5064C0023054608462360FEF7B0FF431C02D1236803B12B6038BD7C81FF1F7047704751F8040C0028BEBF091851F8043CC0180438704700000000252D31306A
:4014C0006420252D32306C750D0A00005374617274210D0A000000004E6176696761746521000000256C7500256C660025640000305100401000505100401000C05100408D
:401500001000F0510040100000000140800600070140000900140140000800400140000A004C01400002005001402000800601406006004880004300232D302B2000686CF3
:401540004C00656667454647003031323334353637383941424344454600303132333435363738396162636465660000F8B500BFF8BC08BC9E4670474D0000006D040000DA
:40158000F8B500BFF8BC08BC9E46704729000000A0150000C880FF1F8000000038000000000000008081FF1F0000E02EC05D00001800000000366E010000000000000000A9
:4015C00000000000000000000000000000000000000000000000000036150000000000000000000000000000000000000000000000000000000000000000000000000000A0
:40160000000000000000000000000000000000000000000000000000E080FF1F0000000000000000000000000000000000000000000000000000000000000000000000002C
:40164000000000000000000000000000000000000000000000000000000000000000000000000000000000000000000000000000000000000000000000000000000000006A
:40168000000000000000000000000000000000000000000000000000000000000000000000000000000000000000000000000000000000000000000000000000000000002A
:4016C00000000000000000000000000000000000000000000000000000000000000000000000000000000000000000000000000000000000000000000000000000000000EA
:4017000000000000000000000000000000000000000000000000000000000000000000000000000000000000000000000000000000000000000000000000000000000000A9
:020000040003F7
:0200000480007A
:400000000252004003640040016500405400014037010140510201404F03014062040140460501402106014050070140010D014001150140481601403E170140011B01403F
:4000400009400140074101400242014006440140044501400146014001470140014C0140024D0140055001400151014031013440830F840F87388772001802640502070C60
:40008000090E0F011201140416081840190E1A181C241E1820012202247C270129082A012B022C102D042E202F123002311033013401350E367C3E103F044004470449FFDE
:4000C0004A074BFF4C404D204EF04F055008580459045A045C105D015F01604061A862406320870389038A288E1091039629970399039A249D039E2AA015A22AA62AA70165
:40010000AA2AAB03AD03AE2AB030B102B203B301B40CB908BA2ABF05D804D904DC08DF210001044007040A680B020D200E1211681301144016201760180119401A481B104A
:400140001C681D201E101F0221042222230424802504260428022A042B082C102E202F2630203601376639203A803B043C083E104101510852107F2084408C40C0C8C2EF11
:40018000C4FFCA7ECCF4CE6ED001DE40E61003020C020E0110071208130114081607180F1B022101230228012A022B022E04300F37033B80580459045C805F218302861010
:4001C000870289018A208C058E0A91019220960F99019C059E0AA40FA803AA0CAC03AE0CB230B302B40FB501BB02BE04BF04C052C104C206C403C60EC70CC814C9FFCAFF04
:40020000CBFFCC62CDA0CEF0CF41D00CD283D403D604D804D904DA04DB04DC10DD01DF05E640E702E910EA30EB10ED10EE10EF120140022003080540060108060B020C0487
:400240000E880F20111812011550181019101E801F0120C8220827022C402F04302033013722380839203B013C083E0A405042084602474048095004518059956380695048
:400280006A2072807A047D04800883418A208B4095629620970A984299C09A109C109E849F66A010A10CA226A310A420A510A708AB01AD84B002C087C27DC4C7CAA0CCA589
:4002C000CE87D007D20CD60FD801DE44EA01030C08040A020B530E011002120417081806192C1B431E011F402171230E2406258029712B063130320633803401350F374076
:4003000039023B203E103F4540434106420249FF4AFF4BFF4F0150185401580459045A045B045C115D105F016040624064406540668068806A806C806E80810882028306FC
:4003400086028B0293029601970199049B0A9C019E02A101A30EAB02B203B30CB503BA08BB20C042C103C206C9FFCAFFCBFFCD83CE03CF01D018D804D904DA04DC88DF219F
:40038000E040E240E440E540E680E880EA80EC80EE80004003080760081209800C500D100E20102018041B081E201F042101227427242BA42C402F0430803148321037269B
:4003C00039083A143B123C203E02400841044280451446844A044F20582059025A887D04910493409522970998429ADA9B029D059E049F65A050A18CA206A310A421A70842
:40040000AC10AD04AE48B510B680C033C2ABC404CAA7CCEECEA5D0E7D224D60FDE4006011001140218011D01230130033101380240424103420649FF4AFF4BFF4D834E03B6
:400440004F015018580459045A045C815F216040624064406540668068806A806C806E800080012802200508080109080B8A0C010F18114012141302184019201F01200219
:40048000218022012302274028022A042B482C403008319037403A1A3B403C803F804008410442804514468049054A044F2051045A026004624078087B107D0481408304F7
:4004C00090049104935094409528970398429AC89C089D059F41A040A11CA226A318A4A1A7A4AC20AD40B102B320C027C27FC40FCA8FCC1ECE0FD0E7D224D601D80CDE40D3
:40050000EA21B44002030406060116021A051E062A0136073A8058045C015F018020817F840A85188604881089088C208D678F18900392049304953C960597429E08A003FD
:40054000A110A204A420A763A820A91CAB61AC03AD04AE0CB010B20FB31FB420B558B738BA08BB28BE11C036C101C6ECC70BC81CC9FFCAFFCBFFCEF0CF44D00CD602D71223
:40058000D804D904DA04DB04DC11DD11DF01E6C0EA40EB020082012802610508074008480B920C400D080F0810801140121C1308140818401A181B041FC022082309280238
:4005C0002A1A320A38283A41421043C04B10508053245A08682069206B01701C711072029140931295209789980299209A089D109E169F01A041A108A222A4A8A7A4C03F24
:40060000C2EDC44FCA0FCC03CE0FD00AD204D602E84032023310354049404B2085408E02CC70E41008800B20831097209F10C250E220AC80EC4008102A805301C202CA089A
:40064000D4019702AA80B010EA04970297029702B701E802000308030A0310021A02003F0008000038000433000F06300133000018002200200C0000280400001233200C4C
:40068000013F0000000C01330022010020111800013000003E00000F02000080000000004306020000EC000213FFFFFF00830301180000001800000004040404111000011C
:4006C00040004000404080008000800080008000000000000000000000000000000000005000000000000000000B0B0000000000007F7F0000000000000000000000040012
:400700000100400101000100000000000000000000000000000000000000000000000000000000000000000000000000000000000000000000000000000000000000000075
:400740000000000000000000000000000000000000000000000000000000000000000000000000000000000000000000000000000000000000000000000000000000000079
:400780000000000000000000000000000000000000000000000000000000000000000000000000000000000000000000000000000000000000000000000000000000000039
:4007C00000000000000000000000000000000000000000000000000000000000000000000000000000000000000000000000000000000000000000000000000000000000F9
:4008000000000000000000000000000000000000000000000000000000000000000000000000000000000000000000000000000000000000000000000000000000000000B8
:0200000490006A
:0400000000004005B7
:0200000490105A
:04000000BC90ACAF55
:0200000490303A
:02000000FD9A67
:0200000490402A
:4000000000000000000000000000000000000000000000000000000000000000000000000000000000000000000000000000000000000000000000000000000000000000C0
:400040000000000000000000000000000000000000000000000000000000000000000000000000000000000000000000000000000000000000000000000000000000000080
:400080000000000000000000000000000000000000000000000000000000000000000000000000000000000000000000000000000000000000000000000000000000000040
:4000C0000000000000000000000000000000000000000000000000000000000000000000000000000000000000000000000000000000000000000000000000000000000000
:0200000490501A
:0C00000000012E12306900012E1C2E039E
:00000001FF